{
  "contractName": "LaunchPad",
  "abi": [
    {
      "inputs": [
        {
          "internalType": "bool",
          "name": "_isLocked",
          "type": "bool"
        }
      ],
      "stateMutability": "nonpayable",
      "type": "constructor"
    },
    {
      "inputs": [
        {
          "internalType": "uint256",
          "name": "",
          "type": "uint256"
        }
      ],
      "name": "launchpads",
      "outputs": [
        {
          "internalType": "uint256",
          "name": "startTimeStamp",
          "type": "uint256"
        },
        {
          "internalType": "uint256",
          "name": "endTimeStamp",
          "type": "uint256"
        },
        {
          "internalType": "uint256",
          "name": "acceptancePercentage",
          "type": "uint256"
        },
        {
          "internalType": "uint256",
          "name": "totalTokens",
          "type": "uint256"
        },
        {
          "internalType": "address",
          "name": "sender",
          "type": "address"
        },
        {
          "internalType": "address",
          "name": "tokenAddress",
          "type": "address"
        }
      ],
      "stateMutability": "view",
      "type": "function"
    },
    {
      "inputs": [],
      "name": "totalLaunchpads",
      "outputs": [
        {
          "internalType": "uint256",
          "name": "",
          "type": "uint256"
        }
      ],
      "stateMutability": "view",
      "type": "function"
    },
    {
      "inputs": [
        {
          "internalType": "uint256",
          "name": "_startTime",
          "type": "uint256"
        },
        {
          "internalType": "uint256",
          "name": "_numOfDays",
          "type": "uint256"
        },
        {
          "internalType": "uint256",
          "name": "_acceptedPercentage",
          "type": "uint256"
        },
        {
          "internalType": "uint256",
          "name": "_totalTokens",
          "type": "uint256"
        },
        {
          "internalType": "address",
          "name": "_tokenAddress",
          "type": "address"
        }
      ],
      "name": "launchMyToken",
      "outputs": [],
      "stateMutability": "payable",
      "type": "function"
    },
    {
      "inputs": [
        {
          "internalType": "uint256",
          "name": "_launchPadId",
          "type": "uint256"
        }
      ],
      "name": "getLaunchPadInformation",
      "outputs": [
        {
          "internalType": "address",
          "name": "",
          "type": "address"
        }
      ],
      "stateMutability": "view",
      "type": "function"
    },
    {
      "inputs": [],
      "name": "whatTimeNow",
      "outputs": [
        {
          "internalType": "uint256",
          "name": "",
          "type": "uint256"
        }
      ],
      "stateMutability": "view",
      "type": "function"
    },
    {
      "inputs": [
        {
          "internalType": "uint256",
          "name": "_launchpadId",
          "type": "uint256"
        }
      ],
      "name": "buyLaunchPadToken",
      "outputs": [],
      "stateMutability": "payable",
      "type": "function"
    },
    {
      "inputs": [],
      "name": "settleLaunchPad",
      "outputs": [],
      "stateMutability": "nonpayable",
      "type": "function"
    },
    {
      "inputs": [],
      "name": "withdrawCredits",
      "outputs": [],
      "stateMutability": "nonpayable",
      "type": "function"
    },
    {
      "inputs": [
        {
          "internalType": "uint256",
          "name": "_numOfDays",
          "type": "uint256"
        }
      ],
      "name": "changeMaxNumOfDays",
      "outputs": [],
      "stateMutability": "nonpayable",
      "type": "function"
    },
    {
      "inputs": [
        {
          "internalType": "uint256",
          "name": "_numOfDays",
          "type": "uint256"
        }
      ],
      "name": "changeMinNumOfDays",
      "outputs": [],
      "stateMutability": "nonpayable",
      "type": "function"
    },
    {
      "inputs": [
        {
          "internalType": "uint256",
          "name": "_minimumTokens",
          "type": "uint256"
        }
      ],
      "name": "changeMinimumTokens",
      "outputs": [],
      "stateMutability": "nonpayable",
      "type": "function"
    },
    {
      "inputs": [
        {
          "internalType": "bool",
          "name": "_isLocked",
          "type": "bool"
        }
      ],
      "name": "lockContract",
      "outputs": [],
      "stateMutability": "nonpayable",
      "type": "function"
    },
    {
      "inputs": [
        {
          "internalType": "uint256",
          "name": "_fee",
          "type": "uint256"
        }
      ],
      "name": "changeFee",
      "outputs": [],
      "stateMutability": "nonpayable",
      "type": "function"
    },
    {
      "inputs": [
        {
          "internalType": "address",
          "name": "_newOwner",
          "type": "address"
        }
      ],
      "name": "changeOwner",
      "outputs": [],
      "stateMutability": "nonpayable",
      "type": "function"
    }
  ],
  "bytecode": "0x608060405260056001556000600355600a6004556103e8600555603c6006553480156200002b57600080fd5b5060405162001f8f38038062001f8f8339818101604052810190620000519190620000f4565b33600060016101000a81548173ffffffffffffffffffffffffffffffffffffffff021916908373ffffffffffffffffffffffffffffffffffffffff160217905550806000806101000a81548160ff0219169083151502179055505062000126565b600080fd5b60008115159050919050565b620000ce81620000b7565b8114620000da57600080fd5b50565b600081519050620000ee81620000c3565b92915050565b6000602082840312156200010d576200010c620000b2565b5b60006200011d84828501620000dd565b91505092915050565b611e5980620001366000396000f3fe6080604052600436106100dd5760003560e01c8063897cceee1161007f578063ab87e74711610059578063ab87e7471461026b578063c06ca1dd14610282578063e8b90cc6146102ad578063f3193884146102d6576100dd565b8063897cceee146101ee57806393d4b1ca14610217578063a6f9dae114610242576100dd565b80635be5f0bc116100bb5780635be5f0bc146101505780636a1db1bf146101925780636c1e4fb6146101bb578063717f6dfb146101d7576100dd565b80631b9c079f146100e257806321ecdd32146100fe5780635bbfdb0c14610127575b600080fd5b6100fc60048036038101906100f791906111ca565b610313565b005b34801561010a57600080fd5b5061012560048036038101906101209190611245565b61088a565b005b34801561013357600080fd5b5061014e60048036038101906101499190611245565b6108ee565b005b34801561015c57600080fd5b5061017760048036038101906101729190611245565b610952565b60405161018996959493929190611290565b60405180910390f35b34801561019e57600080fd5b506101b960048036038101906101b49190611245565b6109ce565b005b6101d560048036038101906101d09190611245565b610ab8565b005b3480156101e357600080fd5b506101ec610d34565b005b3480156101fa57600080fd5b5061021560048036038101906102109190611329565b610ed6565b005b34801561022357600080fd5b5061022c610f4c565b6040516102399190611356565b60405180910390f35b34801561024e57600080fd5b5061026960048036038101906102649190611371565b610f54565b005b34801561027757600080fd5b50610280610ff2565b005b34801561028e57600080fd5b50610297611042565b6040516102a49190611356565b60405180910390f35b3480156102b957600080fd5b506102d460048036038101906102cf9190611245565b611048565b005b3480156102e257600080fd5b506102fd60048036038101906102f89190611245565b6110ac565b60405161030a919061139e565b60405180910390f35b60008054906101000a900460ff1615610361576040517f08c379a000000000000000000000000000000000000000000000000000000000815260040161035890611416565b60405180910390fd5b4285116103a3576040517f08c379a000000000000000000000000000000000000000000000000000000000815260040161039a90611482565b60405180910390fd5b6004548411156103e8576040517f08c379a00000000000000000000000000000000000000000000000000000000081526004016103df906114ee565b60405180910390fd5b60045484101561042d576040517f08c379a00000000000000000000000000000000000000000000000000000000081526004016104249061155a565b60405180910390fd5b600654841115610472576040517f08c379a0000000000000000000000000000000000000000000000000000000008152600401610469906114ee565b60405180910390fd5b60328310156104b6576040517f08c379a00000000000000000000000000000000000000000000000000000000081526004016104ad906115c6565b60405180910390fd5b60648311156104fa576040517f08c379a00000000000000000000000000000000000000000000000000000000081526004016104f190611658565b60405180910390fd5b6000819050828173ffffffffffffffffffffffffffffffffffffffff1663dd62ed3e33306040518363ffffffff1660e01b815260040161053b929190611678565b60206040518083038186803b15801561055357600080fd5b505afa158015610567573d6000803e3d6000fd5b505050506040513d601f19601f8201168201806040525081019061058b91906116b6565b10156105cc576040517f08c379a00000000000000000000000000000000000000000000000000000000081526004016105c39061172f565b60405180910390fd5b8073ffffffffffffffffffffffffffffffffffffffff166323b872dd3330866040518463ffffffff1660e01b81526004016106099392919061174f565b602060405180830381600087803b15801561062357600080fd5b505af1158015610637573d6000803e3d6000fd5b505050506040513d601f19601f8201168201806040525081019061065b919061179b565b61069a576040517f08c379a000000000000000000000000000000000000000000000000000000000815260040161069190611814565b60405180910390fd5b6005548310156106df576040517f08c379a00000000000000000000000000000000000000000000000000000000081526004016106d690611880565b60405180910390fd5b600062015180866106f091906118cf565b426106fb9190611929565b905086811015610740576040517f08c379a0000000000000000000000000000000000000000000000000000000008152600401610737906119cb565b60405180910390fd5b6001600360008282546107539190611929565b925050819055506040518060c001604052808881526020018281526020018681526020018581526020013373ffffffffffffffffffffffffffffffffffffffff1681526020018473ffffffffffffffffffffffffffffffffffffffff168152506002600060035481526020019081526020016000206000820151816000015560208201518160010155604082015181600201556060820151816003015560808201518160040160006101000a81548173ffffffffffffffffffffffffffffffffffffffff021916908373ffffffffffffffffffffffffffffffffffffffff16021790555060a08201518160050160006101000a81548173ffffffffffffffffffffffffffffffffffffffff021916908373ffffffffffffffffffffffffffffffffffffffff16021790555090505050505050505050565b600060019054906101000a900473ffffffffffffffffffffffffffffffffffffffff1673ffffffffffffffffffffffffffffffffffffffff163373ffffffffffffffffffffffffffffffffffffffff16146108e457600080fd5b8060068190555050565b600060019054906101000a900473ffffffffffffffffffffffffffffffffffffffff1673ffffffffffffffffffffffffffffffffffffffff163373ffffffffffffffffffffffffffffffffffffffff161461094857600080fd5b8060048190555050565b60026020528060005260406000206000915090508060000154908060010154908060020154908060030154908060040160009054906101000a900473ffffffffffffffffffffffffffffffffffffffff16908060050160009054906101000a900473ffffffffffffffffffffffffffffffffffffffff16905086565b600060019054906101000a900473ffffffffffffffffffffffffffffffffffffffff1673ffffffffffffffffffffffffffffffffffffffff163373ffffffffffffffffffffffffffffffffffffffff1614610a2857600080fd5b60008111610a6b576040517f08c379a0000000000000000000000000000000000000000000000000000000008152600401610a6290611a37565b60405180910390fd5b60648110610aae576040517f08c379a0000000000000000000000000000000000000000000000000000000008152600401610aa590611aa3565b60405180910390fd5b8060018190555050565b60008054906101000a900460ff1615610b06576040517f08c379a0000000000000000000000000000000000000000000000000000000008152600401610afd90611416565b60405180910390fd5b600354811115610b4b576040517f08c379a0000000000000000000000000000000000000000000000000000000008152600401610b4290611b0f565b60405180910390fd5b60026000828152602001908152602001600020600001544211610ba3576040517f08c379a0000000000000000000000000000000000000000000000000000000008152600401610b9a90611b7b565b60405180910390fd5b6002600082815260200190815260200160002060010154421115610bfc576040517f08c379a0000000000000000000000000000000000000000000000000000000008152600401610bf390611be7565b60405180910390fd5b60003411610c3f576040517f08c379a0000000000000000000000000000000000000000000000000000000008152600401610c3690611c53565b60405180910390fd5b606434600760003373ffffffffffffffffffffffffffffffffffffffff1673ffffffffffffffffffffffffffffffffffffffff1681526020019081526020016000206000828254610c909190611929565b92505081905511610cf65734600760003373ffffffffffffffffffffffffffffffffffffffff1673ffffffffffffffffffffffffffffffffffffffff1681526020019081526020016000206000828254610cea9190611929565b92505081905550610d31565b6040517f08c379a0000000000000000000000000000000000000000000000000000000008152600401610d2890611ce5565b60405180910390fd5b50565b60008054906101000a900460ff1615610d82576040517f08c379a0000000000000000000000000000000000000000000000000000000008152600401610d7990611416565b60405180910390fd5b6000600760003373ffffffffffffffffffffffffffffffffffffffff1673ffffffffffffffffffffffffffffffffffffffff1681526020019081526020016000205490506000811415610dd457600080fd5b80471015610de157600080fd5b6000600760003373ffffffffffffffffffffffffffffffffffffffff1673ffffffffffffffffffffffffffffffffffffffff1681526020019081526020016000208190555060003373ffffffffffffffffffffffffffffffffffffffff1682604051610e4c90611d36565b60006040518083038185875af1925050503d8060008114610e89576040519150601f19603f3d011682016040523d82523d6000602084013e610e8e565b606091505b5050905080610ed2576040517f08c379a0000000000000000000000000000000000000000000000000000000008152600401610ec990611d97565b60405180910390fd5b5050565b600060019054906101000a900473ffffffffffffffffffffffffffffffffffffffff1673ffffffffffffffffffffffffffffffffffffffff163373ffffffffffffffffffffffffffffffffffffffff1614610f3057600080fd5b806000806101000a81548160ff02191690831515021790555050565b600042905090565b600060019054906101000a900473ffffffffffffffffffffffffffffffffffffffff1673ffffffffffffffffffffffffffffffffffffffff163373ffffffffffffffffffffffffffffffffffffffff1614610fae57600080fd5b80600060016101000a81548173ffffffffffffffffffffffffffffffffffffffff021916908373ffffffffffffffffffffffffffffffffffffffff16021790555050565b60008054906101000a900460ff1615611040576040517f08c379a000000000000000000000000000000000000000000000000000000000815260040161103790611416565b60405180910390fd5b565b60035481565b600060019054906101000a900473ffffffffffffffffffffffffffffffffffffffff1673ffffffffffffffffffffffffffffffffffffffff163373ffffffffffffffffffffffffffffffffffffffff16146110a257600080fd5b8060058190555050565b60008160035411156110f3576040517f08c379a00000000000000000000000000000000000000000000000000000000081526004016110ea90611e03565b60405180910390fd5b6002600083815260200190815260200160002060040160009054906101000a900473ffffffffffffffffffffffffffffffffffffffff169050919050565b600080fd5b6000819050919050565b61114981611136565b811461115457600080fd5b50565b60008135905061116681611140565b92915050565b600073ffffffffffffffffffffffffffffffffffffffff82169050919050565b60006111978261116c565b9050919050565b6111a78161118c565b81146111b257600080fd5b50565b6000813590506111c48161119e565b92915050565b600080600080600060a086880312156111e6576111e5611131565b5b60006111f488828901611157565b955050602061120588828901611157565b945050604061121688828901611157565b935050606061122788828901611157565b9250506080611238888289016111b5565b9150509295509295909350565b60006020828403121561125b5761125a611131565b5b600061126984828501611157565b91505092915050565b61127b81611136565b82525050565b61128a8161118c565b82525050565b600060c0820190506112a56000830189611272565b6112b26020830188611272565b6112bf6040830187611272565b6112cc6060830186611272565b6112d96080830185611281565b6112e660a0830184611281565b979650505050505050565b60008115159050919050565b611306816112f1565b811461131157600080fd5b50565b600081359050611323816112fd565b92915050565b60006020828403121561133f5761133e611131565b5b600061134d84828501611314565b91505092915050565b600060208201905061136b6000830184611272565b92915050565b60006020828403121561138757611386611131565b5b6000611395848285016111b5565b91505092915050565b60006020820190506113b36000830184611281565b92915050565b600082825260208201905092915050565b7f436f6e7472616374206973206c6f636b65642062792061646d696e0000000000600082015250565b6000611400601b836113b9565b915061140b826113ca565b602082019050919050565b6000602082019050818103600083015261142f816113f3565b9050919050565b7f43616e6e6f7420737461727420696e2070617374206461746500000000000000600082015250565b600061146c6019836113b9565b915061147782611436565b602082019050919050565b6000602082019050818103600083015261149b8161145f565b9050919050565b7f57686f6f70732c2063616e27742062652074686174206c6f6e67000000000000600082015250565b60006114d8601a836113b9565b91506114e3826114a2565b602082019050919050565b60006020820190508181036000830152611507816114cb565b9050919050565b7f746f6f2073686f72740000000000000000000000000000000000000000000000600082015250565b60006115446009836113b9565b915061154f8261150e565b602082019050919050565b6000602082019050818103600083015261157381611537565b9050919050565b7f4d757374206265206f7665722035302520616363657074616e63650000000000600082015250565b60006115b0601b836113b9565b91506115bb8261157a565b602082019050919050565b600060208201905081810360008301526115df816115a3565b9050919050565b7f4d757374206265206c657373207468616e203130302520616363657074616e6360008201527f6500000000000000000000000000000000000000000000000000000000000000602082015250565b60006116426021836113b9565b915061164d826115e6565b604082019050919050565b6000602082019050818103600083015261167181611635565b9050919050565b600060408201905061168d6000830185611281565b61169a6020830184611281565b9392505050565b6000815190506116b081611140565b92915050565b6000602082840312156116cc576116cb611131565b5b60006116da848285016116a1565b91505092915050565b7f496e737566696369656e7420416c6c6f77616e63650000000000000000000000600082015250565b60006117196015836113b9565b9150611724826116e3565b602082019050919050565b600060208201905081810360008301526117488161170c565b9050919050565b60006060820190506117646000830186611281565b6117716020830185611281565b61177e6040830184611272565b949350505050565b600081519050611795816112fd565b92915050565b6000602082840312156117b1576117b0611131565b5b60006117bf84828501611786565b91505092915050565b7f7472616e73666572204661696c65640000000000000000000000000000000000600082015250565b60006117fe600f836113b9565b9150611809826117c8565b602082019050919050565b6000602082019050818103600083015261182d816117f1565b9050919050565b7f4e656564206d6f726520746f6b656e7320746f2070726f636573730000000000600082015250565b600061186a601b836113b9565b915061187582611834565b602082019050919050565b600060208201905081810360008301526118998161185d565b9050919050565b7f4e487b7100000000000000000000000000000000000000000000000000000000600052601160045260246000fd5b60006118da82611136565b91506118e583611136565b9250817fffffffffffffffffffffffffffffffffffffffffffffffffffffffffffffffff048311821515161561191e5761191d6118a0565b5b828202905092915050565b600061193482611136565b915061193f83611136565b9250827fffffffffffffffffffffffffffffffffffffffffffffffffffffffffffffffff03821115611974576119736118a0565b5b828201905092915050565b7f736f6d657468696e67206973207265616c6c792077726f6e6720686572650000600082015250565b60006119b5601e836113b9565b91506119c08261197f565b602082019050919050565b600060208201905081810360008301526119e4816119a8565b9050919050565b7f466565206d757374206265206c6172676572207468616e203025000000000000600082015250565b6000611a21601a836113b9565b9150611a2c826119eb565b602082019050919050565b60006020820190508181036000830152611a5081611a14565b9050919050565b7f466565206d757374206265206c6f776572207468616e20313030250000000000600082015250565b6000611a8d601b836113b9565b9150611a9882611a57565b602082019050919050565b60006020820190508181036000830152611abc81611a80565b9050919050565b7f496e76616c6964206c61756e6368706164496400000000000000000000000000600082015250565b6000611af96013836113b9565b9150611b0482611ac3565b602082019050919050565b60006020820190508181036000830152611b2881611aec565b9050919050565b7f686176656e277420737461727465642079657400000000000000000000000000600082015250565b6000611b656013836113b9565b9150611b7082611b2f565b602082019050919050565b60006020820190508181036000830152611b9481611b58565b9050919050565b7f697420616c726561647920656e64656400000000000000000000000000000000600082015250565b6000611bd16010836113b9565b9150611bdc82611b9b565b602082019050919050565b60006020820190508181036000830152611c0081611bc4565b9050919050565b7f73656e64206d6f6e657920706c73000000000000000000000000000000000000600082015250565b6000611c3d600e836113b9565b9150611c4882611c07565b602082019050919050565b60006020820190508181036000830152611c6c81611c30565b9050919050565b7f596f7520657863656564656420746865206d6178696d756d206269642077686960008201527f6368206973203130302045544800000000000000000000000000000000000000602082015250565b6000611ccf602d836113b9565b9150611cda82611c73565b604082019050919050565b60006020820190508181036000830152611cfe81611cc2565b9050919050565b600081905092915050565b50565b6000611d20600083611d05565b9150611d2b82611d10565b600082019050919050565b6000611d4182611d13565b9150819050919050565b7f4661696c656420746f2073656e64204574686572000000000000000000000000600082015250565b6000611d816014836113b9565b9150611d8c82611d4b565b602082019050919050565b60006020820190508181036000830152611db081611d74565b9050919050565b7f74686174206e6f20657869737400000000000000000000000000000000000000600082015250565b6000611ded600d836113b9565b9150611df882611db7565b602082019050919050565b60006020820190508181036000830152611e1c81611de0565b905091905056fea2646970667358221220eae0e1f3b03aa9d4ef13185ffb13d47475e3c46c595ae381a09fb99a837bd7ba64736f6c63430008090033",
  "immutableReferences": {},
  "source": "// SPDX-License-Identifier: GPL-3.0\n\n/*\n1. Developer deposit tokens (Lee Min) \n- Handle max capacity\n- Handle time to start and end\n- tokens leave in contract\n- Percentage of acceptance (eg. 60%)\n\n2. User participate in crowdsale\n-  Record user purchase in credits\n- Check if sale already started and ended already\n- Only accept ETH\n- User purchase per limit\n\n3. After sales\n- check percentage, if not satisfy send tokens back to developer \n- pull over push method to let user withdraw\n- refund left crypto to developer (if have)\n\n4. Admin\n- withdraw all funds\n- lock contract \n- update admin (timelock?)\n\nTodo: \n- Fee calculations\n- Events should be emitted\n- Public getters\n- Price per token\n- Test cases to make sure everything works as expected\n- 10000000000000000000 fucking decimals\n- Map credit to multiple launchpad id\n\nDesign UI (Yuan Jie)\n*/\n\npragma solidity ^0.8.9;\n\nimport \"@openzeppelin/contracts/token/ERC20/IERC20.sol\";\n\ncontract LaunchPad {\n\n    //Admin variables\n    bool isLocked; //lock contract in case shit happens\n    address owner; //owner of this contract\n    uint fee = 5; //fee is 5% by default\n\n    //Launchpad variables\n    struct LaunchPadInformation {\n        uint startTimeStamp;\n        uint endTimeStamp;\n        uint acceptancePercentage;\n        uint totalTokens;\n        address sender;\n        address tokenAddress;\n    }\n    mapping (uint => LaunchPadInformation) public launchpads;\n    uint public totalLaunchpads = 0;\n    uint minNumberofDays = 10;\n    uint minimumTokens = 1000;\n    uint maxNumberofDays = 60; \n    \n\n    mapping(address => uint) credits; //user bid money, save it here\n\n\n    //MODIFIERS \n\n    modifier onlyOwner() {\n        require(msg.sender == owner);\n        _;\n    }\n\n    modifier isLock() {\n        require(!isLocked, \"Contract is locked by admin\");\n        _;\n    }\n\n    //CONSTRUCTOR\n\n    constructor (bool _isLocked){\n        owner = msg.sender;\n        isLocked = _isLocked;\n    }\n\n    //DEVELOPER DEPOSIT\n    //TODO: should we use Unix timestamp? Or number of days?\n    function launchMyToken(uint256 _startTime, uint256 _numOfDays, uint _acceptedPercentage, uint _totalTokens, address _tokenAddress) public payable isLock {\n\n        //would be cleaner if put into internal function\n        require(_startTime > block.timestamp, \"Cannot start in past date\"); //front-end should handle the conversion from date to Unix timestamp\n        require(_numOfDays <= minNumberofDays, \"Whoops, can't be that long\");\n        require(_numOfDays >= minNumberofDays, \"too short\"); \n        require(_numOfDays <= maxNumberofDays, \"Whoops, can't be that long\");\n        require(_acceptedPercentage >= 50, \"Must be over 50% acceptance\");\n        require(_acceptedPercentage <= 100, \"Must be less than 100% acceptance\");\n\n        //TODO: check for duplicate msg.sender, how?\n        //require(launchpads[msg.sender].endTimeStamp == 0, \"This account has an existing bid\");\n\n        // TODO: Front end need to handle approval, just set it as unlimited\n        IERC20 customToken = IERC20(_tokenAddress);\n        require(customToken.allowance(msg.sender, address(this)) >= _totalTokens, \"Insuficient Allowance\"); \n        require(customToken.transferFrom(msg.sender, address(this), _totalTokens), \"transfer Failed\");\n\n        require(_totalTokens >= minimumTokens, \"Need more tokens to process\");\n\n        uint _endTimeStamp = block.timestamp + (_numOfDays * 1 days);\n        require(_endTimeStamp >= _startTime, \"something is really wrong here\");\n               \n        //if someone have a better idea lmk\n        //https://programtheblockchain.com/posts/2018/01/12/writing-a-contract-that-handles-time/\n        //see if you want handle time in Unix timestamp, or use days like start after 2 days then end in 30 days\n\n        //TODO: calculate fee based on fee = msg.value\n        //TODO: formula? \n\n        //increment lauchpad id\n        totalLaunchpads += 1;\n\n        //We assume msg.sender is developer, if it's not we are fucked up\n        launchpads[totalLaunchpads] = LaunchPadInformation(_startTime, _endTimeStamp, _acceptedPercentage, _totalTokens, msg.sender, _tokenAddress);\n \n    }\n\n    function getLaunchPadInformation(uint _launchPadId) public view returns (address) {\n        require(totalLaunchpads <= _launchPadId, \"that no exist\");\n        return launchpads[_launchPadId].sender;\n    }\n\n    //will remove in production\n    function whatTimeNow() public view returns (uint) {\n        return block.timestamp;\n    }\n\n    //USER OPERATIONS\n    function buyLaunchPadToken(uint _launchpadId) public payable isLock {\n        //check launchpadId stuff\n        require(_launchpadId <= totalLaunchpads, \"Invalid launchpadId\");\n        require(block.timestamp > launchpads[_launchpadId].startTimeStamp, \"haven't started yet\");\n        require(block.timestamp <= launchpads[_launchpadId].endTimeStamp, \"it already ended\");\n\n        //check msg.value to determine bid amount\n        require(msg.value > 0 ether, \"send money pls\");\n\n        //only allow maximum 100 eth per user\n        if ((credits[msg.sender] += msg.value) <= 100){\n            credits[msg.sender] += msg.value;\n        } else {\n            revert(\"You exceeded the maximum bid which is 100 ETH\");\n        }\n    }\n\n    //AFTER SALES\n    function settleLaunchPad() public isLock {\n        //check percentage\n        //\n        //if not enough percentage\n        //1. send all funds to developer\n        //2. allow user to withdraw ether\n\n        //if enough percentage\n        //1. send rest of tokens back to developer\n        //2. user withdraw erc20 token\n        //3. send ether to developer\n    }\n\n    //TODO: must be modified\n    function withdrawCredits() public isLock {\n        //check if launchpad is over end date\n\n        uint amount = credits[msg.sender];\n\n        require(amount != 0);\n        require(address(this).balance >= amount);\n\n        credits[msg.sender] = 0;\n\n        (bool sent, ) = msg.sender.call{value: amount}(\"\");\n        require(sent, \"Failed to send Ether\");\n    }\n\n    //ADMIN OPERATIONS\n    function changeMaxNumOfDays(uint _numOfDays) public onlyOwner {\n        maxNumberofDays = _numOfDays;\n        //emit event\n    }\n\n    function changeMinNumOfDays(uint _numOfDays) public onlyOwner {\n        minNumberofDays = _numOfDays;\n        //emit event\n    }\n\n    function changeMinimumTokens(uint _minimumTokens) public onlyOwner {\n        minimumTokens = _minimumTokens;\n        //emit event\n    }\n\n    function lockContract(bool _isLocked) public onlyOwner {\n        isLocked = _isLocked;\n    }\n\n    function changeFee(uint _fee) public onlyOwner {\n        //check fee rate range from 0%-100%\n        require(_fee > 0, \"Fee must be larger than 0%\");\n        require(_fee < 100, \"Fee must be lower than 100%\");\n        fee = _fee;\n    }\n\n    function changeOwner(address _newOwner) public onlyOwner {\n        //TODO: some checking to verify address\n        //TODO: add timelock\n        owner = _newOwner;\n    }\n\n}",
  "sourcePath": "/home/miao/Downloads/solidity/blockchain-assignment/contracts/Launchpad.sol",
  "compiler": {
    "name": "solc",
    "version": "0.8.9+commit.e5eed63a.Emscripten.clang"
  },
  "schemaVersion": "3.3.2",
  "updatedAt": "2021-11-26T05:18:05.947Z",
  "devdoc": {
    "kind": "dev",
    "methods": {},
    "version": 1
  },
  "userdoc": {
    "kind": "user",
    "methods": {},
    "version": 1
  }
}