{
  "contractName": "LaunchPad",
  "abi": [
    {
      "inputs": [
        {
          "internalType": "bool",
          "name": "_isLocked",
          "type": "bool"
        }
      ],
      "stateMutability": "nonpayable",
      "type": "constructor"
    },
    {
      "anonymous": false,
      "inputs": [
        {
          "indexed": false,
          "internalType": "uint256",
          "name": "_startTime",
          "type": "uint256"
        },
        {
          "indexed": false,
          "internalType": "uint256",
          "name": "_numOfDays",
          "type": "uint256"
        },
        {
          "indexed": false,
          "internalType": "uint256",
          "name": "_acceptedPercentage",
          "type": "uint256"
        },
        {
          "indexed": false,
          "internalType": "uint256",
          "name": "_pricePerToken",
          "type": "uint256"
        },
        {
          "indexed": false,
          "internalType": "uint256",
          "name": "_totalTokens",
          "type": "uint256"
        },
        {
          "indexed": false,
          "internalType": "address",
          "name": "_tokenAddress",
          "type": "address"
        }
      ],
      "name": "DepositToken",
      "type": "event"
    },
    {
      "anonymous": false,
      "inputs": [
        {
          "indexed": false,
          "internalType": "uint256",
          "name": "_numOfDays",
          "type": "uint256"
        }
      ],
      "name": "changeMaxDays",
      "type": "event"
    },
    {
      "anonymous": false,
      "inputs": [
        {
          "indexed": false,
          "internalType": "uint256",
          "name": "_numOfDays",
          "type": "uint256"
        }
      ],
      "name": "changeMinDays",
      "type": "event"
    },
    {
      "anonymous": false,
      "inputs": [
        {
          "indexed": false,
          "internalType": "uint256",
          "name": "_minimumTokens",
          "type": "uint256"
        }
      ],
      "name": "changeTokens",
      "type": "event"
    },
    {
      "anonymous": false,
      "inputs": [
        {
          "indexed": false,
          "internalType": "uint256",
          "name": "developerProfit",
          "type": "uint256"
        }
      ],
      "name": "succeedLaunchpad",
      "type": "event"
    },
    {
      "inputs": [],
      "name": "fee",
      "outputs": [
        {
          "internalType": "uint256",
          "name": "",
          "type": "uint256"
        }
      ],
      "stateMutability": "view",
      "type": "function"
    },
    {
      "inputs": [],
      "name": "isLocked",
      "outputs": [
        {
          "internalType": "bool",
          "name": "",
          "type": "bool"
        }
      ],
      "stateMutability": "view",
      "type": "function"
    },
    {
      "inputs": [
        {
          "internalType": "address",
          "name": "",
          "type": "address"
        }
      ],
      "name": "launchedTokens",
      "outputs": [
        {
          "internalType": "uint256",
          "name": "",
          "type": "uint256"
        }
      ],
      "stateMutability": "view",
      "type": "function"
    },
    {
      "inputs": [
        {
          "internalType": "uint256",
          "name": "",
          "type": "uint256"
        }
      ],
      "name": "launchpads",
      "outputs": [
        {
          "internalType": "uint256",
          "name": "startTimeStamp",
          "type": "uint256"
        },
        {
          "internalType": "uint256",
          "name": "endTimeStamp",
          "type": "uint256"
        },
        {
          "internalType": "uint256",
          "name": "acceptancePercentage",
          "type": "uint256"
        },
        {
          "internalType": "uint256",
          "name": "milestone",
          "type": "uint256"
        },
        {
          "internalType": "uint256",
          "name": "originalAmountofTokens",
          "type": "uint256"
        },
        {
          "internalType": "uint256",
          "name": "totalTokens",
          "type": "uint256"
        },
        {
          "internalType": "uint256",
          "name": "pricePerToken",
          "type": "uint256"
        },
        {
          "internalType": "address",
          "name": "sender",
          "type": "address"
        },
        {
          "internalType": "address",
          "name": "tokenAddress",
          "type": "address"
        },
        {
          "internalType": "bool",
          "name": "paid",
          "type": "bool"
        },
        {
          "internalType": "uint256",
          "name": "creditType",
          "type": "uint256"
        }
      ],
      "stateMutability": "view",
      "type": "function"
    },
    {
      "inputs": [],
      "name": "maxNumberofDays",
      "outputs": [
        {
          "internalType": "uint256",
          "name": "",
          "type": "uint256"
        }
      ],
      "stateMutability": "view",
      "type": "function"
    },
    {
      "inputs": [],
      "name": "minNumberofDays",
      "outputs": [
        {
          "internalType": "uint256",
          "name": "",
          "type": "uint256"
        }
      ],
      "stateMutability": "view",
      "type": "function"
    },
    {
      "inputs": [],
      "name": "minimumTokens",
      "outputs": [
        {
          "internalType": "uint256",
          "name": "",
          "type": "uint256"
        }
      ],
      "stateMutability": "view",
      "type": "function"
    },
    {
      "inputs": [],
      "name": "owner",
      "outputs": [
        {
          "internalType": "address",
          "name": "",
          "type": "address"
        }
      ],
      "stateMutability": "view",
      "type": "function"
    },
    {
      "inputs": [],
      "name": "totalLaunchpads",
      "outputs": [
        {
          "internalType": "uint256",
          "name": "",
          "type": "uint256"
        }
      ],
      "stateMutability": "view",
      "type": "function"
    },
    {
      "inputs": [
        {
          "internalType": "uint256",
          "name": "_startTime",
          "type": "uint256"
        },
        {
          "internalType": "uint256",
          "name": "_numOfDays",
          "type": "uint256"
        },
        {
          "internalType": "uint256",
          "name": "_acceptedPercentage",
          "type": "uint256"
        },
        {
          "internalType": "uint256",
          "name": "_pricePerToken",
          "type": "uint256"
        },
        {
          "internalType": "uint256",
          "name": "_totalTokens",
          "type": "uint256"
        },
        {
          "internalType": "address",
          "name": "_tokenAddress",
          "type": "address"
        }
      ],
      "name": "launchMyToken",
      "outputs": [],
      "stateMutability": "payable",
      "type": "function"
    },
    {
      "inputs": [],
      "name": "whatTimeNow",
      "outputs": [
        {
          "internalType": "uint256",
          "name": "",
          "type": "uint256"
        }
      ],
      "stateMutability": "view",
      "type": "function"
    },
    {
      "inputs": [
        {
          "internalType": "uint256",
          "name": "_launchpadId",
          "type": "uint256"
        }
      ],
      "name": "buyLaunchPadToken",
      "outputs": [],
      "stateMutability": "payable",
      "type": "function"
    },
    {
      "inputs": [
        {
          "internalType": "uint256",
          "name": "_launchpadId",
          "type": "uint256"
        }
      ],
      "name": "settleLaunchPad",
      "outputs": [],
      "stateMutability": "nonpayable",
      "type": "function"
    },
    {
      "inputs": [
        {
          "internalType": "uint256",
          "name": "_launchPadId",
          "type": "uint256"
        }
      ],
      "name": "withdrawCredits",
      "outputs": [],
      "stateMutability": "nonpayable",
      "type": "function"
    },
    {
      "inputs": [
        {
          "internalType": "uint256",
          "name": "_numOfDays",
          "type": "uint256"
        }
      ],
      "name": "changeMaxNumOfDays",
      "outputs": [],
      "stateMutability": "nonpayable",
      "type": "function"
    },
    {
      "inputs": [
        {
          "internalType": "uint256",
          "name": "_numOfDays",
          "type": "uint256"
        }
      ],
      "name": "changeMinNumOfDays",
      "outputs": [],
      "stateMutability": "nonpayable",
      "type": "function"
    },
    {
      "inputs": [
        {
          "internalType": "uint256",
          "name": "_minimumTokens",
          "type": "uint256"
        }
      ],
      "name": "changeMinimumTokens",
      "outputs": [],
      "stateMutability": "nonpayable",
      "type": "function"
    },
    {
      "inputs": [
        {
          "internalType": "bool",
          "name": "_isLocked",
          "type": "bool"
        }
      ],
      "name": "lockContract",
      "outputs": [],
      "stateMutability": "nonpayable",
      "type": "function"
    },
    {
      "inputs": [
        {
          "internalType": "uint256",
          "name": "_fee",
          "type": "uint256"
        }
      ],
      "name": "changeFee",
      "outputs": [],
      "stateMutability": "nonpayable",
      "type": "function"
    },
    {
      "inputs": [
        {
          "internalType": "address",
          "name": "_newOwner",
          "type": "address"
        }
      ],
      "name": "changeOwner",
      "outputs": [],
      "stateMutability": "nonpayable",
      "type": "function"
    },
    {
      "inputs": [
        {
          "internalType": "uint256",
          "name": "_launchPadId",
          "type": "uint256"
        }
      ],
      "name": "retrievePriceForToken",
      "outputs": [
        {
          "internalType": "uint256",
          "name": "",
          "type": "uint256"
        }
      ],
      "stateMutability": "view",
      "type": "function"
    },
    {
      "inputs": [
        {
          "internalType": "uint256",
          "name": "_launchPadId",
          "type": "uint256"
        }
      ],
      "name": "getMaxBuyValueForToken",
      "outputs": [
        {
          "internalType": "uint256",
          "name": "",
          "type": "uint256"
        }
      ],
      "stateMutability": "view",
      "type": "function"
    },
    {
      "inputs": [
        {
          "internalType": "uint256",
          "name": "_totalTokens",
          "type": "uint256"
        }
      ],
      "name": "calculateFee",
      "outputs": [
        {
          "internalType": "uint256",
          "name": "",
          "type": "uint256"
        }
      ],
      "stateMutability": "view",
      "type": "function"
    },
    {
      "inputs": [
        {
          "internalType": "uint256",
          "name": "_totalTokens",
          "type": "uint256"
        },
        {
          "internalType": "uint256",
          "name": "_acceptedRate",
          "type": "uint256"
        }
      ],
      "name": "calculateAcceptanceRate",
      "outputs": [
        {
          "internalType": "uint256",
          "name": "",
          "type": "uint256"
        }
      ],
      "stateMutability": "pure",
      "type": "function"
    },
    {
      "inputs": [
        {
          "internalType": "uint256",
          "name": "_totalTokens",
          "type": "uint256"
        }
      ],
      "name": "estimateProtocolFee",
      "outputs": [
        {
          "internalType": "uint256",
          "name": "",
          "type": "uint256"
        }
      ],
      "stateMutability": "view",
      "type": "function"
    }
  ],
  "bytecode": "0x6080604052600180556000600355600a6005556103e8600655603c6007553480156200002a57600080fd5b5060405162003ddb38038062003ddb8339818101604052810190620000509190620000f3565b33600060016101000a81548173ffffffffffffffffffffffffffffffffffffffff021916908373ffffffffffffffffffffffffffffffffffffffff160217905550806000806101000a81548160ff0219169083151502179055505062000125565b600080fd5b60008115159050919050565b620000cd81620000b6565b8114620000d957600080fd5b50565b600081519050620000ed81620000c2565b92915050565b6000602082840312156200010c576200010b620000b1565b5b60006200011c84828501620000dc565b91505092915050565b613ca680620001356000396000f3fe6080604052600436106101665760003560e01c806393d4b1ca116100d1578063bfeab6e51161008a578063d84244da11610064578063d84244da1461053c578063ddca3f4314610579578063e8b90cc6146105a4578063fa5a7361146105cd57610166565b8063bfeab6e514610497578063c06ca1dd146104d4578063cfc895cb146104ff57610166565b806393d4b1ca1461037357806399a5d7471461039e578063a4e2d634146103db578063a6f9dae114610406578063aebc47f31461042f578063bc96bc271461046c57610166565b80635be5f0bc116101235780635be5f0bc1461026a578063677ef683146102b15780636a1db1bf146102da5780636c1e4fb614610303578063897cceee1461031f5780638da5cb5b1461034857610166565b8063025302c81461016b57806309ed1782146101a857806321ecdd32146101d15780634056f8a8146101fa5780634f318045146102255780635bbfdb0c14610241575b600080fd5b34801561017757600080fd5b50610192600480360381019061018d91906124cd565b6105f8565b60405161019f919061251c565b60405180910390f35b3480156101b457600080fd5b506101cf60048036038101906101ca9190612537565b61061f565b005b3480156101dd57600080fd5b506101f860048036038101906101f39190612537565b6109d3565b005b34801561020657600080fd5b5061020f610ab5565b60405161021c919061251c565b60405180910390f35b61023f600480360381019061023a91906125c2565b610abb565b005b34801561024d57600080fd5b5061026860048036038101906102639190612537565b6113b2565b005b34801561027657600080fd5b50610291600480360381019061028c9190612537565b611494565b6040516102a89b9a99989796959493929190612679565b60405180910390f35b3480156102bd57600080fd5b506102d860048036038101906102d39190612537565b61153b565b005b3480156102e657600080fd5b5061030160048036038101906102fc9190612537565b61174a565b005b61031d60048036038101906103189190612537565b611834565b005b34801561032b57600080fd5b5061034660048036038101906103419190612750565b611cfe565b005b34801561035457600080fd5b5061035d611d74565b60405161036a919061277d565b60405180910390f35b34801561037f57600080fd5b50610388611d9a565b604051610395919061251c565b60405180910390f35b3480156103aa57600080fd5b506103c560048036038101906103c09190612537565b611da2565b6040516103d2919061251c565b60405180910390f35b3480156103e757600080fd5b506103f0611ddc565b6040516103fd9190612798565b60405180910390f35b34801561041257600080fd5b5061042d600480360381019061042891906127b3565b611ded565b005b34801561043b57600080fd5b5061045660048036038101906104519190612537565b611efb565b604051610463919061251c565b60405180910390f35b34801561047857600080fd5b50610481611f47565b60405161048e919061251c565b60405180910390f35b3480156104a357600080fd5b506104be60048036038101906104b991906127b3565b611f4d565b6040516104cb919061251c565b60405180910390f35b3480156104e057600080fd5b506104e9611f65565b6040516104f6919061251c565b60405180910390f35b34801561050b57600080fd5b5061052660048036038101906105219190612537565b611f6b565b604051610533919061251c565b60405180910390f35b34801561054857600080fd5b50610563600480360381019061055e9190612537565b61200e565b604051610570919061251c565b60405180910390f35b34801561058557600080fd5b5061058e612041565b60405161059b919061251c565b60405180910390f35b3480156105b057600080fd5b506105cb60048036038101906105c69190612537565b612047565b005b3480156105d957600080fd5b506105e2612127565b6040516105ef919061251c565b60405180910390f35b60008060648385610609919061280f565b6106139190612898565b90508091505092915050565b8060006002600083815260200190815260200160002060090154141561067a576040517f08c379a000000000000000000000000000000000000000000000000000000000815260040161067190612926565b60405180910390fd5b6000600860003373ffffffffffffffffffffffffffffffffffffffff1673ffffffffffffffffffffffffffffffffffffffff168152602001908152602001600020600001549050600354831115610706576040517f08c379a00000000000000000000000000000000000000000000000000000000081526004016106fd90612992565b60405180910390fd5b600081141561074a576040517f08c379a0000000000000000000000000000000000000000000000000000000008152600401610741906129fe565b60405180910390fd5b8047101561078d576040517f08c379a000000000000000000000000000000000000000000000000000000000815260040161078490612a6a565b60405180910390fd5b6000600860003373ffffffffffffffffffffffffffffffffffffffff1673ffffffffffffffffffffffffffffffffffffffff168152602001908152602001600020600001819055506001600260008581526020019081526020016000206009015414156108a65760003373ffffffffffffffffffffffffffffffffffffffff168260405161081a90612abb565b60006040518083038185875af1925050503d8060008114610857576040519150601f19603f3d011682016040523d82523d6000602084013e61085c565b606091505b50509050806108a0576040517f08c379a000000000000000000000000000000000000000000000000000000000815260040161089790612b1c565b60405180910390fd5b506109ce565b60028060008581526020019081526020016000206009015414156109cd5760006002600085815260200190815260200160002060080160009054906101000a900473ffffffffffffffffffffffffffffffffffffffff1690508073ffffffffffffffffffffffffffffffffffffffff1663a9059cbb33846040518363ffffffff1660e01b815260040161093a929190612b3c565b602060405180830381600087803b15801561095457600080fd5b505af1158015610968573d6000803e3d6000fd5b505050506040513d601f19601f8201168201806040525081019061098c9190612b7a565b6109cb576040517f08c379a00000000000000000000000000000000000000000000000000000000081526004016109c290612bf3565b60405180910390fd5b505b5b505050565b600060019054906101000a900473ffffffffffffffffffffffffffffffffffffffff1673ffffffffffffffffffffffffffffffffffffffff163373ffffffffffffffffffffffffffffffffffffffff1614610a2d57600080fd5b600554811015610a72576040517f08c379a0000000000000000000000000000000000000000000000000000000008152600401610a6990612c85565b60405180910390fd5b806007819055507f0b26d58d207871fa7b6481a3e958baf2fc3693e42739e543a1b5cde6c8a7f316600754604051610aaa919061251c565b60405180910390a150565b60065481565b60008054906101000a900460ff1615610b09576040517f08c379a0000000000000000000000000000000000000000000000000000000008152600401610b0090612cf1565b60405180910390fd5b42861015610b15574295505b600554851015610b5a576040517f08c379a0000000000000000000000000000000000000000000000000000000008152600401610b5190612d5d565b60405180910390fd5b600754851115610b9f576040517f08c379a0000000000000000000000000000000000000000000000000000000008152600401610b9690612dc9565b60405180910390fd5b60006201518086610bb0919061280f565b42610bbb9190612de9565b905086811015610c00576040517f08c379a0000000000000000000000000000000000000000000000000000000008152600401610bf790612e8b565b60405180910390fd5b6032851015610c44576040517f08c379a0000000000000000000000000000000000000000000000000000000008152600401610c3b90612ef7565b60405180910390fd5b6064851115610c88576040517f08c379a0000000000000000000000000000000000000000000000000000000008152600401610c7f90612f89565b60405180910390fd5b6000600460008473ffffffffffffffffffffffffffffffffffffffff1673ffffffffffffffffffffffffffffffffffffffff1681526020019081526020016000205414610d0a576040517f08c379a0000000000000000000000000000000000000000000000000000000008152600401610d019061301b565b60405180910390fd5b600654831015610d4f576040517f08c379a0000000000000000000000000000000000000000000000000000000008152600401610d4690613087565b60405180910390fd5b6000610d5a84611da2565b905080341015610d9f576040517f08c379a0000000000000000000000000000000000000000000000000000000008152600401610d96906130f3565b60405180910390fd5b6001851015610de3576040517f08c379a0000000000000000000000000000000000000000000000000000000008152600401610dda9061315f565b60405180910390fd5b670de0b6b3a7640000851115610e2e576040517f08c379a0000000000000000000000000000000000000000000000000000000008152600401610e25906131f1565b60405180910390fd5b6000610e3a85886105f8565b9050600160036000828254610e4f9190612de9565b92505081905550600354600460008673ffffffffffffffffffffffffffffffffffffffff1673ffffffffffffffffffffffffffffffffffffffff168152602001908152602001600020819055506040518061016001604052808a81526020018481526020018881526020018281526020018681526020018681526020018781526020013373ffffffffffffffffffffffffffffffffffffffff1681526020018573ffffffffffffffffffffffffffffffffffffffff1681526020016000151581526020016000815250600260006003548152602001908152602001600020600082015181600001556020820151816001015560408201518160020155606082015181600301556080820151816004015560a0820151816005015560c0820151816006015560e08201518160070160006101000a81548173ffffffffffffffffffffffffffffffffffffffff021916908373ffffffffffffffffffffffffffffffffffffffff1602179055506101008201518160080160006101000a81548173ffffffffffffffffffffffffffffffffffffffff021916908373ffffffffffffffffffffffffffffffffffffffff1602179055506101208201518160080160146101000a81548160ff0219169083151502179055506101408201518160090155905050600084905060128173ffffffffffffffffffffffffffffffffffffffff1663313ce5676040518163ffffffff1660e01b815260040160206040518083038186803b15801561107e57600080fd5b505afa158015611092573d6000803e3d6000fd5b505050506040513d601f19601f820116820180604052508101906110b6919061324a565b60ff16146110f9576040517f08c379a00000000000000000000000000000000000000000000000000000000081526004016110f0906132e9565b60405180910390fd5b60008173ffffffffffffffffffffffffffffffffffffffff166370a08231336040518263ffffffff1660e01b8152600401611134919061277d565b60206040518083038186803b15801561114c57600080fd5b505afa158015611160573d6000803e3d6000fd5b505050506040513d601f19601f82011682018060405250810190611184919061331e565b9050868110156111c9576040517f08c379a00000000000000000000000000000000000000000000000000000000081526004016111c0906133bd565b60405180910390fd5b868273ffffffffffffffffffffffffffffffffffffffff1663dd62ed3e33306040518363ffffffff1660e01b81526004016112059291906133dd565b60206040518083038186803b15801561121d57600080fd5b505afa158015611231573d6000803e3d6000fd5b505050506040513d601f19601f82011682018060405250810190611255919061331e565b1015611296576040517f08c379a000000000000000000000000000000000000000000000000000000000815260040161128d90613452565b60405180910390fd5b8173ffffffffffffffffffffffffffffffffffffffff166323b872dd33308a6040518463ffffffff1660e01b81526004016112d393929190613472565b602060405180830381600087803b1580156112ed57600080fd5b505af1158015611301573d6000803e3d6000fd5b505050506040513d601f19601f820116820180604052508101906113259190612b7a565b611364576040517f08c379a000000000000000000000000000000000000000000000000000000000815260040161135b906134f5565b60405180910390fd5b7ff349a5561a5b5b67c42c6d238c581ea38682ff0909602bc11356e94e231c872d8b8b8b8b8b8b60405161139d96959493929190613515565b60405180910390a15050505050505050505050565b600060019054906101000a900473ffffffffffffffffffffffffffffffffffffffff1673ffffffffffffffffffffffffffffffffffffffff163373ffffffffffffffffffffffffffffffffffffffff161461140c57600080fd5b600754811115611451576040517f08c379a0000000000000000000000000000000000000000000000000000000008152600401611448906135e8565b60405180910390fd5b806005819055507f42cbadd085735291b6a01da1498f497e5d86a74f8927dace693bf71c0606cbf6600554604051611489919061251c565b60405180910390a150565b60026020528060005260406000206000915090508060000154908060010154908060020154908060030154908060040154908060050154908060060154908060070160009054906101000a900473ffffffffffffffffffffffffffffffffffffffff16908060080160009054906101000a900473ffffffffffffffffffffffffffffffffffffffff16908060080160149054906101000a900460ff1690806009015490508b565b600354811115611580576040517f08c379a000000000000000000000000000000000000000000000000000000000815260040161157790612992565b60405180910390fd5b600015156002600083815260200190815260200160002060080160149054906101000a900460ff161515146115ea576040517f08c379a00000000000000000000000000000000000000000000000000000000081526004016115e190613654565b60405180910390fd5b600080600260008481526020019081526020016000206005015460026000858152602001908152602001600020600401546116259190613674565b90506002600084815260200190815260200160002060030154811061164d5760019150611652565b600091505b60006002600085815260200190815260200160002060010154421061167a576001905061167f565b600090505b806117185782156116d8576000600260008681526020019081526020016000206005015414156116b7576116b28461212d565b6116d3565b6002806000868152602001908152602001600020600901819055505b611713565b6040517f08c379a000000000000000000000000000000000000000000000000000000000815260040161170a906136f4565b60405180910390fd5b611744565b80156117435782156117325761172d8461212d565b611742565b8261174157611740846122ea565b5b5b5b5b50505050565b600060019054906101000a900473ffffffffffffffffffffffffffffffffffffffff1673ffffffffffffffffffffffffffffffffffffffff163373ffffffffffffffffffffffffffffffffffffffff16146117a457600080fd5b600081116117e7576040517f08c379a00000000000000000000000000000000000000000000000000000000081526004016117de90613760565b60405180910390fd5b6064811061182a576040517f08c379a0000000000000000000000000000000000000000000000000000000008152600401611821906137cc565b60405180910390fd5b8060018190555050565b60008054906101000a900460ff1615611882576040517f08c379a000000000000000000000000000000000000000000000000000000000815260040161187990612cf1565b60405180910390fd5b6002600082815260200190815260200160002060070160009054906101000a900473ffffffffffffffffffffffffffffffffffffffff1673ffffffffffffffffffffffffffffffffffffffff163373ffffffffffffffffffffffffffffffffffffffff161415611927576040517f08c379a000000000000000000000000000000000000000000000000000000000815260040161191e9061385e565b60405180910390fd5b60035481111561196c576040517f08c379a000000000000000000000000000000000000000000000000000000000815260040161196390612992565b60405180910390fd5b60026000828152602001908152602001600020600001544210156119c5576040517f08c379a00000000000000000000000000000000000000000000000000000000081526004016119bc906138ca565b60405180910390fd5b6002600082815260200190815260200160002060010154421115611a1e576040517f08c379a0000000000000000000000000000000000000000000000000000000008152600401611a1590613936565b60405180910390fd5b6000600260008381526020019081526020016000206005015411611a77576040517f08c379a0000000000000000000000000000000000000000000000000000000008152600401611a6e906139a2565b60405180910390fd5b600060026000838152602001908152602001600020600601549050600081670de0b6b3a7640000611aa89190612898565b905080341015611aed576040517f08c379a0000000000000000000000000000000000000000000000000000000008152600401611ae490613a34565b60405180910390fd5b60008234611afb919061280f565b90506000670de0b6b3a764000082611b139190612898565b90508060026000878152602001908152602001600020600501541015611b6e576040517f08c379a0000000000000000000000000000000000000000000000000000000008152600401611b6590613aa0565b60405180910390fd5b806002600087815260200190815260200160002060050154611b909190613674565b60026000878152602001908152602001600020600501819055506000600860003373ffffffffffffffffffffffffffffffffffffffff1673ffffffffffffffffffffffffffffffffffffffff16815260200190815260200160002060000154905060008282611bff9190612de9565b90506040518060400160405280828152602001600260008a815260200190815260200160002060080160009054906101000a900473ffffffffffffffffffffffffffffffffffffffff1673ffffffffffffffffffffffffffffffffffffffff16815250600860003373ffffffffffffffffffffffffffffffffffffffff1673ffffffffffffffffffffffffffffffffffffffff1681526020019081526020016000206000820151816000015560208201518160010160006101000a81548173ffffffffffffffffffffffffffffffffffffffff021916908373ffffffffffffffffffffffffffffffffffffffff16021790555090505050505050505050565b600060019054906101000a900473ffffffffffffffffffffffffffffffffffffffff1673ffffffffffffffffffffffffffffffffffffffff163373ffffffffffffffffffffffffffffffffffffffff1614611d5857600080fd5b806000806101000a81548160ff02191690831515021790555050565b600060019054906101000a900473ffffffffffffffffffffffffffffffffffffffff1681565b600042905090565b600080606460015484611db5919061280f565b611dbf9190612898565b9050662386f26fc1000081611dd4919061280f565b915050919050565b60008054906101000a900460ff1681565b600060019054906101000a900473ffffffffffffffffffffffffffffffffffffffff1673ffffffffffffffffffffffffffffffffffffffff163373ffffffffffffffffffffffffffffffffffffffff1614611e4757600080fd5b600073ffffffffffffffffffffffffffffffffffffffff168173ffffffffffffffffffffffffffffffffffffffff161415611eb7576040517f08c379a0000000000000000000000000000000000000000000000000000000008152600401611eae90613b0c565b60405180910390fd5b80600060016101000a81548173ffffffffffffffffffffffffffffffffffffffff021916908373ffffffffffffffffffffffffffffffffffffffff16021790555050565b60008060015490506000662386f26fc100009050600060648386611f1f919061280f565b611f299190612898565b905060008282611f39919061280f565b905080945050505050919050565b60075481565b60046020528060005260406000206000915090505481565b60035481565b600080600260008481526020019081526020016000206005015490506000811415611fcb576040517f08c379a0000000000000000000000000000000000000000000000000000000008152600401611fc290613b78565b60405180910390fd5b60006002600085815260200190815260200160002060060154670de0b6b3a7640000611ff79190612898565b90508082612005919061280f565b92505050919050565b60006002600083815260200190815260200160002060060154670de0b6b3a764000061203a9190612898565b9050919050565b60015481565b600060019054906101000a900473ffffffffffffffffffffffffffffffffffffffff1673ffffffffffffffffffffffffffffffffffffffff163373ffffffffffffffffffffffffffffffffffffffff16146120a157600080fd5b600081116120e4576040517f08c379a00000000000000000000000000000000000000000000000000000000081526004016120db90613be4565b60405180910390fd5b806006819055507f328db17120caa4c283f2086572f767f14d471acf104900d1ee3a2ad85f184d1a60065460405161211c919061251c565b60405180910390a150565b60055481565b60016002600083815260200190815260200160002060080160146101000a81548160ff02191690831515021790555060028060008381526020019081526020016000206009018190555060006002600083815260200190815260200160002060060154670de0b6b3a76400006121a39190612898565b905060008160026000858152602001908152602001600020600401546121c9919061280f565b905060006002600085815260200190815260200160002060070160009054906101000a900473ffffffffffffffffffffffffffffffffffffffff1673ffffffffffffffffffffffffffffffffffffffff168260405161222790612abb565b60006040518083038185875af1925050503d8060008114612264576040519150601f19603f3d011682016040523d82523d6000602084013e612269565b606091505b50509050806122ad576040517f08c379a00000000000000000000000000000000000000000000000000000000081526004016122a490612b1c565b60405180910390fd5b7fa2f987465605050caa2fa2eb7b6d8fdacd08377a37adaaa4533c734b81dded6c826040516122dc919061251c565b60405180910390a150505050565b60016002600083815260200190815260200160002060080160146101000a81548160ff0219169083151502179055506001600260008381526020019081526020016000206009018190555060006002600083815260200190815260200160002060080160009054906101000a900473ffffffffffffffffffffffffffffffffffffffff1690506000600260008481526020019081526020016000206004015490508173ffffffffffffffffffffffffffffffffffffffff1663a9059cbb6002600086815260200190815260200160002060070160009054906101000a900473ffffffffffffffffffffffffffffffffffffffff16836040518363ffffffff1660e01b81526004016123fc929190612b3c565b602060405180830381600087803b15801561241657600080fd5b505af115801561242a573d6000803e3d6000fd5b505050506040513d601f19601f8201168201806040525081019061244e9190612b7a565b61248d576040517f08c379a000000000000000000000000000000000000000000000000000000000815260040161248490613c50565b60405180910390fd5b505050565b600080fd5b6000819050919050565b6124aa81612497565b81146124b557600080fd5b50565b6000813590506124c7816124a1565b92915050565b600080604083850312156124e4576124e3612492565b5b60006124f2858286016124b8565b9250506020612503858286016124b8565b9150509250929050565b61251681612497565b82525050565b6000602082019050612531600083018461250d565b92915050565b60006020828403121561254d5761254c612492565b5b600061255b848285016124b8565b91505092915050565b600073ffffffffffffffffffffffffffffffffffffffff82169050919050565b600061258f82612564565b9050919050565b61259f81612584565b81146125aa57600080fd5b50565b6000813590506125bc81612596565b92915050565b60008060008060008060c087890312156125df576125de612492565b5b60006125ed89828a016124b8565b96505060206125fe89828a016124b8565b955050604061260f89828a016124b8565b945050606061262089828a016124b8565b935050608061263189828a016124b8565b92505060a061264289828a016125ad565b9150509295509295509295565b61265881612584565b82525050565b60008115159050919050565b6126738161265e565b82525050565b60006101608201905061268f600083018e61250d565b61269c602083018d61250d565b6126a9604083018c61250d565b6126b6606083018b61250d565b6126c3608083018a61250d565b6126d060a083018961250d565b6126dd60c083018861250d565b6126ea60e083018761264f565b6126f861010083018661264f565b61270661012083018561266a565b61271461014083018461250d565b9c9b505050505050505050505050565b61272d8161265e565b811461273857600080fd5b50565b60008135905061274a81612724565b92915050565b60006020828403121561276657612765612492565b5b60006127748482850161273b565b91505092915050565b6000602082019050612792600083018461264f565b92915050565b60006020820190506127ad600083018461266a565b92915050565b6000602082840312156127c9576127c8612492565b5b60006127d7848285016125ad565b91505092915050565b7f4e487b7100000000000000000000000000000000000000000000000000000000600052601160045260246000fd5b600061281a82612497565b915061282583612497565b9250817fffffffffffffffffffffffffffffffffffffffffffffffffffffffffffffffff048311821515161561285e5761285d6127e0565b5b828202905092915050565b7f4e487b7100000000000000000000000000000000000000000000000000000000600052601260045260246000fd5b60006128a382612497565b91506128ae83612497565b9250826128be576128bd612869565b5b828204905092915050565b600082825260208201905092915050565b7f726566756e642074797065206e6f742073657420796574210000000000000000600082015250565b60006129106018836128c9565b915061291b826128da565b602082019050919050565b6000602082019050818103600083015261293f81612903565b9050919050565b7f496e76616c6964206c61756e6368706164496400000000000000000000000000600082015250565b600061297c6013836128c9565b915061298782612946565b602082019050919050565b600060208201905081810360008301526129ab8161296f565b9050919050565b7f6e6f7468696e6720746f20776974686472617700000000000000000000000000600082015250565b60006129e86013836128c9565b91506129f3826129b2565b602082019050919050565b60006020820190508181036000830152612a17816129db565b9050919050565b7f6e6f7420656e6f7567682062616c616e636520746f2077697468647261770000600082015250565b6000612a54601e836128c9565b9150612a5f82612a1e565b602082019050919050565b60006020820190508181036000830152612a8381612a47565b9050919050565b600081905092915050565b50565b6000612aa5600083612a8a565b9150612ab082612a95565b600082019050919050565b6000612ac682612a98565b9150819050919050565b7f4661696c656420746f2073656e64204574686572000000000000000000000000600082015250565b6000612b066014836128c9565b9150612b1182612ad0565b602082019050919050565b60006020820190508181036000830152612b3581612af9565b9050919050565b6000604082019050612b51600083018561264f565b612b5e602083018461250d565b9392505050565b600081519050612b7481612724565b92915050565b600060208284031215612b9057612b8f612492565b5b6000612b9e84828501612b65565b91505092915050565b7f756e61626c6520746f2073656e64206d6f6e6579000000000000000000000000600082015250565b6000612bdd6014836128c9565b9150612be882612ba7565b602082019050919050565b60006020820190508181036000830152612c0c81612bd0565b9050919050565b7f537570706c696564206461797320697320736d616c6c6572207468616e206d6960008201527f6e696d756d206e756d626572206f662064617973000000000000000000000000602082015250565b6000612c6f6034836128c9565b9150612c7a82612c13565b604082019050919050565b60006020820190508181036000830152612c9e81612c62565b9050919050565b7f436f6e7472616374206973206c6f636b65642062792061646d696e0000000000600082015250565b6000612cdb601b836128c9565b9150612ce682612ca5565b602082019050919050565b60006020820190508181036000830152612d0a81612cce565b9050919050565b7f746f6f2073686f72740000000000000000000000000000000000000000000000600082015250565b6000612d476009836128c9565b9150612d5282612d11565b602082019050919050565b60006020820190508181036000830152612d7681612d3a565b9050919050565b7f57686f6f70732c2063616e27742062652074686174206c6f6e67000000000000600082015250565b6000612db3601a836128c9565b9150612dbe82612d7d565b602082019050919050565b60006020820190508181036000830152612de281612da6565b9050919050565b6000612df482612497565b9150612dff83612497565b9250827fffffffffffffffffffffffffffffffffffffffffffffffffffffffffffffffff03821115612e3457612e336127e0565b5b828201905092915050565b7f736f6d657468696e67206973207265616c6c792077726f6e6720686572650000600082015250565b6000612e75601e836128c9565b9150612e8082612e3f565b602082019050919050565b60006020820190508181036000830152612ea481612e68565b9050919050565b7f4d757374206265206f7665722035302520616363657074616e63650000000000600082015250565b6000612ee1601b836128c9565b9150612eec82612eab565b602082019050919050565b60006020820190508181036000830152612f1081612ed4565b9050919050565b7f4d757374206265206c657373207468616e203130302520616363657074616e6360008201527f6500000000000000000000000000000000000000000000000000000000000000602082015250565b6000612f736021836128c9565b9150612f7e82612f17565b604082019050919050565b60006020820190508181036000830152612fa281612f66565b9050919050565b7f54686973206163636f756e742068617320616e206578697374696e67206c617560008201527f6e63687061640000000000000000000000000000000000000000000000000000602082015250565b60006130056026836128c9565b915061301082612fa9565b604082019050919050565b6000602082019050818103600083015261303481612ff8565b9050919050565b7f4e656564206d6f726520746f6b656e7320746f2070726f636573730000000000600082015250565b6000613071601b836128c9565b915061307c8261303b565b602082019050919050565b600060208201905081810360008301526130a081613064565b9050919050565b7f4e6f7420656e6f75676820666565732070616964000000000000000000000000600082015250565b60006130dd6014836128c9565b91506130e8826130a7565b602082019050919050565b6000602082019050818103600083015261310c816130d0565b9050919050565b7f6d617820312065746865722070657220746f6b656e0000000000000000000000600082015250565b60006131496015836128c9565b915061315482613113565b602082019050919050565b600060208201905081810360008301526131788161313c565b9050919050565b7f796f75206578636565646564206d696e696d756d205f7072696365506572546f60008201527f6b656e0000000000000000000000000000000000000000000000000000000000602082015250565b60006131db6023836128c9565b91506131e68261317f565b604082019050919050565b6000602082019050818103600083015261320a816131ce565b9050919050565b600060ff82169050919050565b61322781613211565b811461323257600080fd5b50565b6000815190506132448161321e565b92915050565b6000602082840312156132605761325f612492565b5b600061326e84828501613235565b91505092915050565b7f5765206f6e6c792061636365707420313820646563696d616c7320746f6b656e60008201527f7300000000000000000000000000000000000000000000000000000000000000602082015250565b60006132d36021836128c9565b91506132de82613277565b604082019050919050565b60006020820190508181036000830152613302816132c6565b9050919050565b600081519050613318816124a1565b92915050565b60006020828403121561333457613333612492565b5b600061334284828501613309565b91505092915050565b7f4e6f7420656e6f7567682066756e647320696e2073656e6465722062616c616e60008201527f6365210000000000000000000000000000000000000000000000000000000000602082015250565b60006133a76023836128c9565b91506133b28261334b565b604082019050919050565b600060208201905081810360008301526133d68161339a565b9050919050565b60006040820190506133f2600083018561264f565b6133ff602083018461264f565b9392505050565b7f496e737566696369656e7420616c6c6f77616e63650000000000000000000000600082015250565b600061343c6015836128c9565b915061344782613406565b602082019050919050565b6000602082019050818103600083015261346b8161342f565b9050919050565b6000606082019050613487600083018661264f565b613494602083018561264f565b6134a1604083018461250d565b949350505050565b7f5472616e73666572206661696c65640000000000000000000000000000000000600082015250565b60006134df600f836128c9565b91506134ea826134a9565b602082019050919050565b6000602082019050818103600083015261350e816134d2565b9050919050565b600060c08201905061352a600083018961250d565b613537602083018861250d565b613544604083018761250d565b613551606083018661250d565b61355e608083018561250d565b61356b60a083018461264f565b979650505050505050565b7f537570706c696564206461797320697320626967676572207468616e206d617860008201527f696d756d206e756d626572206f66206461797300000000000000000000000000602082015250565b60006135d26033836128c9565b91506135dd82613576565b604082019050919050565b60006020820190508181036000830152613601816135c5565b9050919050565b7f54686973206c61756e636870616420686173206265656e20736574746c656400600082015250565b600061363e601f836128c9565b915061364982613608565b602082019050919050565b6000602082019050818103600083015261366d81613631565b9050919050565b600061367f82612497565b915061368a83612497565b92508282101561369d5761369c6127e0565b5b828203905092915050565b7f4d696c6573746f6e65206e6f7420616368696576656420796574210000000000600082015250565b60006136de601b836128c9565b91506136e9826136a8565b602082019050919050565b6000602082019050818103600083015261370d816136d1565b9050919050565b7f466565206d757374206265206c6172676572207468616e203025000000000000600082015250565b600061374a601a836128c9565b915061375582613714565b602082019050919050565b600060208201905081810360008301526137798161373d565b9050919050565b7f466565206d757374206265206c6f776572207468616e20313030250000000000600082015250565b60006137b6601b836128c9565b91506137c182613780565b602082019050919050565b600060208201905081810360008301526137e5816137a9565b9050919050565b7f646576656c6f706572732063616e6e6f7420627579207468656972206f776e2060008201527f746f6b656e000000000000000000000000000000000000000000000000000000602082015250565b60006138486025836128c9565b9150613853826137ec565b604082019050919050565b600060208201905081810360008301526138778161383b565b9050919050565b7f686176656e277420737461727465642079657400000000000000000000000000600082015250565b60006138b46013836128c9565b91506138bf8261387e565b602082019050919050565b600060208201905081810360008301526138e3816138a7565b9050919050565b7f697420616c726561647920656e64656400000000000000000000000000000000600082015250565b60006139206010836128c9565b915061392b826138ea565b602082019050919050565b6000602082019050818103600083015261394f81613913565b9050919050565b7f4e6f20746f6b656e73206c656674000000000000000000000000000000000000600082015250565b600061398c600e836128c9565b915061399782613956565b602082019050919050565b600060208201905081810360008301526139bb8161397f565b9050919050565b7f53656e742066756e6473206e6f7420656e6f75676820746f2062757920746f6b60008201527f656e732100000000000000000000000000000000000000000000000000000000602082015250565b6000613a1e6024836128c9565b9150613a29826139c2565b604082019050919050565b60006020820190508181036000830152613a4d81613a11565b9050919050565b7f4e6f7420656e6f75676820746f6b656e7320746f206275792100000000000000600082015250565b6000613a8a6019836128c9565b9150613a9582613a54565b602082019050919050565b60006020820190508181036000830152613ab981613a7d565b9050919050565b7f63616e6e6f742073657420746f206e756c6c2061646472657373000000000000600082015250565b6000613af6601a836128c9565b9150613b0182613ac0565b602082019050919050565b60006020820190508181036000830152613b2581613ae9565b9050919050565b7f4e6f20746f6b656e73206c65667420746f206275792100000000000000000000600082015250565b6000613b626016836128c9565b9150613b6d82613b2c565b602082019050919050565b60006020820190508181036000830152613b9181613b55565b9050919050565b7f43616e6e6f742073657420617320300000000000000000000000000000000000600082015250565b6000613bce600f836128c9565b9150613bd982613b98565b602082019050919050565b60006020820190508181036000830152613bfd81613bc1565b9050919050565b7f756e61626c6520746f2073656e642066756e647320746f206465762100000000600082015250565b6000613c3a601c836128c9565b9150613c4582613c04565b602082019050919050565b60006020820190508181036000830152613c6981613c2d565b905091905056fea2646970667358221220e1f1a7def5925551dfb19dc25475aa80bda03bb8e8183a0a6cbd25bfbd3278bd64736f6c63430008090033",
  "immutableReferences": {},
  "source": "// SPDX-License-Identifier: MIT\npragma solidity ^0.8.9;\n\nimport \"@openzeppelin/contracts/token/ERC20/ERC20.sol\"; //we use https://docs.openzeppelin.com/contracts/4.x/api/token/erc20#ERC20 to get decimals()\n\ncontract LaunchPad {\n\n    //Admin variables\n    bool public isLocked; //lock contract in case shit happens\n    address public owner; //owner of this contract\n    uint public fee = 1; //fee is 1% by default\n\n    //Launchpad variables\n    struct LaunchPadInformation {\n        uint startTimeStamp;\n        uint endTimeStamp;\n        uint acceptancePercentage;\n        uint milestone;\n        uint originalAmountofTokens; //original deposit 1000?\n        uint totalTokens; //1000 - 100 = 900\n        uint pricePerToken;\n        address sender;\n        address tokenAddress;\n        bool paid;\n        uint creditType; //0: Unset, 1: ETH, 2: Token\n    }\n    mapping(uint => LaunchPadInformation) public launchpads;\n    uint public totalLaunchpads = 0;\n    mapping(address => uint) public launchedTokens;\n    uint public minNumberofDays = 10;\n    uint public minimumTokens = 1000;\n    uint public maxNumberofDays = 60;\n\n    struct CreditPerLaunchPad {\n        uint credits;\n        address tokenAddress;\n    }\n\n    mapping(address => CreditPerLaunchPad) userCredits; //user bid money, save it here\n\n\n    //MODIFIERS \n\n    modifier onlyOwner() {\n        require(msg.sender == owner);\n        _;\n    }\n\n    modifier isLock() {\n        require(!isLocked, \"Contract is locked by admin\");\n        _;\n    }\n\n    modifier checkWithdrawType(uint _launchpadId) {\n        require(launchpads[_launchpadId].creditType != 0, \"refund type not set yet!\");\n        _;\n    }\n\n    //event\n\n    event DepositToken(uint256 _startTime, uint256 _numOfDays, uint _acceptedPercentage, uint _pricePerToken, uint _totalTokens, address _tokenAddress);\n    event changeMaxDays(uint _numOfDays);\n    event changeMinDays(uint _numOfDays);\n    event changeTokens(uint _minimumTokens);\n    event succeedLaunchpad(uint developerProfit);\n\n    //CONSTRUCTOR\n\n    constructor(bool _isLocked) {\n        owner = msg.sender;\n        isLocked = _isLocked;\n    }\n\n    /// DEVELOPER DEPOSIT\n\n    function launchMyToken(uint256 _startTime, uint256 _numOfDays, uint _acceptedPercentage, uint _pricePerToken, uint _totalTokens, address _tokenAddress) public payable isLock {\n\n        // @front-end should handle the conversion from date to Unix timestamp\n        // @front-end need to handle price decimal conversion, eg. 1000 = 0.001 ETH\n        // @front-end need to handle approval https://ethereum.stackexchange.com/a/112191\n\n        //verify time logic\n        if (_startTime < block.timestamp){\n            //default start now unless specified otherwise\n            _startTime = block.timestamp;\n        }\n        require(_numOfDays >= minNumberofDays, \"too short\");\n        require(_numOfDays <= maxNumberofDays, \"Whoops, can't be that long\");\n        uint _endTimeStamp = block.timestamp + (_numOfDays * 1 days);\n        require(_endTimeStamp >= _startTime, \"something is really wrong here\");\n\n        //verify percentage rate\n        require(_acceptedPercentage >= 50, \"Must be over 50% acceptance\");\n        require(_acceptedPercentage <= 100, \"Must be less than 100% acceptance\");\n\n        //verify existing launchpad for specifc token address\n        require(launchedTokens[_tokenAddress] == 0, \"This account has an existing launchpad\");\n\n        //verify minimum tokens\n        require(_totalTokens >= minimumTokens, \"Need more tokens to process\");\n\n        //verify fees\n        uint protocolFee = calculateFee(_totalTokens);\n        require(msg.value >= protocolFee, \"Not enough fees paid\");\n\n        //verify _pricePerToken, limit 1 to 10**18, hence we can only accept 18 decimals contract\n        require(_pricePerToken >= 1, \"max 1 ether per token\");\n        require(_pricePerToken <= 1 ether, \"you exceeded minimum _pricePerToken\");\n\n        //calculate required acceptance tokens\n        uint milestoneRequired = calculateAcceptanceRate(_totalTokens, _acceptedPercentage);\n\n        //increment lauchpad id and update values\n        totalLaunchpads += 1;\n        launchedTokens[_tokenAddress] = totalLaunchpads;\n\n        launchpads[totalLaunchpads] = LaunchPadInformation(_startTime, _endTimeStamp, _acceptedPercentage, milestoneRequired, _totalTokens, _totalTokens, _pricePerToken, msg.sender, _tokenAddress, false, 0);\n\n        // fund contract with developer custom ERC20 token\n        ERC20 customToken = ERC20(_tokenAddress);\n        require(customToken.decimals() == 18, \"We only accept 18 decimals tokens\");\n        uint balanceOfUser = customToken.balanceOf(msg.sender);\n        require(balanceOfUser >= _totalTokens, \"Not enough funds in sender balance!\");\n        require(customToken.allowance(msg.sender, address(this)) >= _totalTokens, \"Insuficient allowance\");\n        require(customToken.transferFrom(msg.sender, address(this), _totalTokens), \"Transfer failed\");\n\n        emit DepositToken(_startTime, _numOfDays, _acceptedPercentage, _pricePerToken, _totalTokens, _tokenAddress);\n    }\n\n    //will remove in production\n    function whatTimeNow() public view returns(uint) {\n        return block.timestamp;\n    }\n\n    /// USER OPERATIONS\n    function buyLaunchPadToken(uint _launchpadId) public payable isLock {\n        require(msg.sender != launchpads[_launchpadId].sender, \"developers cannot buy their own token\");\n\n        //check launchpad stuff\n        require(_launchpadId <= totalLaunchpads, \"Invalid launchpadId\");\n        require(block.timestamp >= launchpads[_launchpadId].startTimeStamp, \"haven't started yet\");\n        require(block.timestamp <= launchpads[_launchpadId].endTimeStamp, \"it already ended\");\n        require(launchpads[_launchpadId].totalTokens > 0, \"No tokens left\");\n\n        //calculation price stuffs\n        uint launchpadPricePerToken = launchpads[_launchpadId].pricePerToken;\n        uint minimumFunds = 1 ether / launchpadPricePerToken;\n        require(msg.value >= minimumFunds, \"Sent funds not enough to buy tokens!\");\n        uint amountToBuy = msg.value * launchpadPricePerToken;\n        uint tokensToBuy = amountToBuy / (10 ** 18);\n\n        //instead of revert, we can buy highest available and return funds to user\n        require(launchpads[_launchpadId].totalTokens >= tokensToBuy, \"Not enough tokens to buy!\");\n\n        launchpads[_launchpadId].totalTokens = launchpads[_launchpadId].totalTokens - tokensToBuy;\n\n        //increment credit\n        uint oldCredit = userCredits[msg.sender].credits;\n        uint newCredit = oldCredit + tokensToBuy;\n        userCredits[msg.sender] = CreditPerLaunchPad(newCredit, launchpads[_launchpadId].tokenAddress);\n    }\n\n    /// AFTER SALES\n    function settleLaunchPad(uint _launchpadId) public {\n\n        //developers and user run this to take funds\n        require(_launchpadId <= totalLaunchpads, \"Invalid launchpadId\");\n        require(launchpads[_launchpadId].paid == false, \"This launchpad has been settled\");\n\n        //calculate acceptance percentage\n        bool mileStoneAchieved;\n        uint tokensBought = launchpads[_launchpadId].originalAmountofTokens - launchpads[_launchpadId].totalTokens;\n        if (tokensBought >= launchpads[_launchpadId].milestone) {\n            mileStoneAchieved = true;\n        } else {\n            mileStoneAchieved = false;\n        }\n\n        //check launchpad end\n        bool isLaunchPadEnd;\n        if (block.timestamp >= launchpads[_launchpadId].endTimeStamp) {\n            isLaunchPadEnd = true;\n        } else {\n            isLaunchPadEnd = false;\n        }\n\n        //pre launchpad ending time\n        if (!isLaunchPadEnd) {\n            //code would enter this block if launchpad is too popular, ie. tokens are all bought before ending time\n            //user can call this function to start withdraw tokens before ending time, under condition that milestone is achieved\n\n            if (mileStoneAchieved) {\n                //if the tokens are so popular that everyone bought it before ending time, we will close it\n                if (launchpads[_launchpadId].totalTokens == 0) {\n                    successLaunchPad(_launchpadId);\n\n                } else {\n                    //there are still tokens left, so we allow user withdraw first because milestone is achieved\n                    launchpads[_launchpadId].creditType = 2;\n                }\n\n            } else {\n                //if milestone is not achieved yet\n                revert(\"Milestone not achieved yet!\");\n            }\n\n        } else if (isLaunchPadEnd) {\n            //post launchpad ending time\n            //only two possibilites, accepted or not\n\n            if (mileStoneAchieved) {\n                //if milestone achieved\n                successLaunchPad(_launchpadId);\n\n            } else if (!mileStoneAchieved) {\n                //if no one buy their token :(\n                failLaunchPad(_launchpadId);\n            }\n        }\n\n    }\n\n    function successLaunchPad(uint _launchpadId) internal {\n        //set funds paid to true\n        launchpads[_launchpadId].paid = true;\n\n        //allow user withdraw token\n        launchpads[_launchpadId].creditType = 2;\n\n        //calculate ETH amount to be sent\n        uint tokenInEth = 1 ether / launchpads[_launchpadId].pricePerToken;\n        uint amount = launchpads[_launchpadId].originalAmountofTokens * tokenInEth;\n\n        //send ETH to dev\n        (bool sent, ) = launchpads[_launchpadId].sender.call{value: amount}(\"\");\n        require(sent, \"Failed to send Ether\");\n\n        emit succeedLaunchpad(amount);\n    }\n\n    function failLaunchPad(uint _launchpadId) internal {\n        //set funds paid to true\n        launchpads[_launchpadId].paid = true;\n\n        //allow user withdraw eth\n        launchpads[_launchpadId].creditType = 1;\n\n        //calculate token to be sent\n        ERC20 customToken = ERC20(launchpads[_launchpadId].tokenAddress);\n        uint amount = launchpads[_launchpadId].originalAmountofTokens;\n\n        //send token to dev\n        require(customToken.transfer(launchpads[_launchpadId].sender, amount), \"unable to send funds to dev!\");\n    }\n\n    function withdrawCredits(uint _launchPadId) public checkWithdrawType(_launchPadId) {\n        //NOTE: all verifications are done in settleLaunchPad, hence a modifier to prevent bad stuff happen\n        // get launchpads address from struct\n        uint amount = userCredits[msg.sender].credits;\n\n        require(_launchPadId <= totalLaunchpads, \"Invalid launchpadId\");\n        require(amount != 0, \"nothing to withdraw\");\n        require(address(this).balance >= amount, \"not enough balance to withdraw\");\n\n        userCredits[msg.sender].credits = 0;\n\n        if (launchpads[_launchPadId].creditType == 1){\n            //user withdraw ETH\n            (bool sent, ) = msg.sender.call {value: amount}(\"\");\n            require(sent, \"Failed to send Ether\");\n        } else if ((launchpads[_launchPadId].creditType == 2)){\n            //user withdraw token\n            ERC20 customToken = ERC20(launchpads[_launchPadId].tokenAddress);\n            require(customToken.transfer(msg.sender, amount), \"unable to send money\");\n        }   \n    }\n    \n    //ADMIN OPERATIONS\n    function changeMaxNumOfDays(uint _numOfDays) public onlyOwner {\n        require(_numOfDays >= minNumberofDays, \"Supplied days is smaller than minimum number of days\");\n        maxNumberofDays = _numOfDays;\n\n        emit changeMaxDays(maxNumberofDays);\n    }\n    \n    function changeMinNumOfDays(uint _numOfDays) public onlyOwner {\n        require(_numOfDays <= maxNumberofDays, \"Supplied days is bigger than maximum number of days\");\n        minNumberofDays = _numOfDays;\n\n        emit changeMinDays(minNumberofDays);\n    }\n    \n    function changeMinimumTokens(uint _minimumTokens) public onlyOwner {\n        require(_minimumTokens > 0, \"Cannot set as 0\");\n        minimumTokens = _minimumTokens;\n        \n        emit changeTokens(minimumTokens);\n    }\n\n    function lockContract(bool _isLocked) public onlyOwner {\n        isLocked = _isLocked;\n    }\n\n    function changeFee(uint _fee) public onlyOwner {\n        //check fee rate range from 0%-100%\n        require(_fee > 0, \"Fee must be larger than 0%\");\n        require(_fee < 100, \"Fee must be lower than 100%\");\n        fee = _fee;\n    }\n\n    function changeOwner(address _newOwner) public onlyOwner {\n        require(_newOwner != address(0), \"cannot set to null address\");\n        //TODO: add timelock\n        owner = _newOwner;\n    }\n\n    //add admin remove launchpads todo\n\n    function retrievePriceForToken(uint _launchPadId) public view returns (uint) {\n        // return ETH price for one token \n        // get price per token for supplied _launchPadId\n        return 1 ether / launchpads[_launchPadId].pricePerToken;\n    }\n\n    // get max buy value for available tokens\n    function getMaxBuyValueForToken(uint _launchPadId) public view returns (uint) {\n        uint tokensLeft = launchpads[_launchPadId].totalTokens;\n        require(tokensLeft != 0, \"No tokens left to buy!\");\n        uint pricePerToken = 1 ether / launchpads[_launchPadId].pricePerToken;\n        return tokensLeft * pricePerToken;\n    }\n\n    /// Helper functions\n    function calculateFee(uint _totalTokens) public view returns(uint) {\n        uint totalFee = (_totalTokens * fee) / 100; //multiply before divide\n        return totalFee * 10 ** 16; // refer to README for calculation\n    }\n\n    function calculateAcceptanceRate(uint _totalTokens, uint _acceptedRate) public pure returns(uint) {\n        uint milestone = (_totalTokens * _acceptedRate) / 100;\n        return milestone;\n    }\n\n     function estimateProtocolFee(uint _totalTokens) public view returns (uint) {\n        // Formula: totalTokens * protocolFeePercentage * ethUnit\n        uint _protocolFeePercentage = fee; // 1%\n        uint _ethUnit = 10 ** 16; // 0.001 ETH\n        uint feePercentage = (_totalTokens * _protocolFeePercentage) / 100; \n        uint feeToPaid = feePercentage * _ethUnit;\n        return feeToPaid;\n    }\n\n}\n",
  "sourcePath": "/home/miao/Downloads/solidity/blockchain-assignment/contracts/LaunchPad.sol",
  "compiler": {
    "name": "solc",
    "version": "0.8.9+commit.e5eed63a.Emscripten.clang"
  },
  "schemaVersion": "3.3.2",
  "updatedAt": "2021-12-03T09:13:57.387Z",
  "devdoc": {
    "kind": "dev",
    "methods": {},
    "version": 1
  },
  "userdoc": {
    "kind": "user",
    "methods": {
      "buyLaunchPadToken(uint256)": {
        "notice": "USER OPERATIONS"
      },
      "calculateFee(uint256)": {
        "notice": "Helper functions"
      },
      "launchMyToken(uint256,uint256,uint256,uint256,uint256,address)": {
        "notice": "DEVELOPER DEPOSIT"
      },
      "settleLaunchPad(uint256)": {
        "notice": "AFTER SALES"
      }
    },
    "version": 1
  }
}