{
  "contractName": "LaunchPad",
  "abi": [
    {
      "inputs": [
        {
          "internalType": "bool",
          "name": "_isLocked",
          "type": "bool"
        }
      ],
      "stateMutability": "nonpayable",
      "type": "constructor"
    },
    {
      "anonymous": false,
      "inputs": [
        {
          "indexed": false,
          "internalType": "uint256",
          "name": "_startTime",
          "type": "uint256"
        },
        {
          "indexed": false,
          "internalType": "uint256",
          "name": "_numOfDays",
          "type": "uint256"
        },
        {
          "indexed": false,
          "internalType": "uint256",
          "name": "_acceptedPercentage",
          "type": "uint256"
        },
        {
          "indexed": false,
          "internalType": "uint256",
          "name": "_pricePerToken",
          "type": "uint256"
        },
        {
          "indexed": false,
          "internalType": "uint256",
          "name": "_totalTokens",
          "type": "uint256"
        },
        {
          "indexed": false,
          "internalType": "address",
          "name": "_tokenAddress",
          "type": "address"
        }
      ],
      "name": "DepositToken",
      "type": "event"
    },
    {
      "anonymous": false,
      "inputs": [
        {
          "indexed": false,
          "internalType": "uint256",
          "name": "_numOfDays",
          "type": "uint256"
        }
      ],
      "name": "changeMaxDays",
      "type": "event"
    },
    {
      "anonymous": false,
      "inputs": [
        {
          "indexed": false,
          "internalType": "uint256",
          "name": "_numOfDays",
          "type": "uint256"
        }
      ],
      "name": "changeMinDays",
      "type": "event"
    },
    {
      "anonymous": false,
      "inputs": [
        {
          "indexed": false,
          "internalType": "uint256",
          "name": "_minimumTokens",
          "type": "uint256"
        }
      ],
      "name": "changeTokens",
      "type": "event"
    },
    {
      "inputs": [
        {
          "internalType": "address",
          "name": "",
          "type": "address"
        }
      ],
      "name": "launchedTokens",
      "outputs": [
        {
          "internalType": "uint256",
          "name": "",
          "type": "uint256"
        }
      ],
      "stateMutability": "view",
      "type": "function",
      "constant": true
    },
    {
      "inputs": [
        {
          "internalType": "uint256",
          "name": "",
          "type": "uint256"
        }
      ],
      "name": "launchpads",
      "outputs": [
        {
          "internalType": "uint256",
          "name": "startTimeStamp",
          "type": "uint256"
        },
        {
          "internalType": "uint256",
          "name": "endTimeStamp",
          "type": "uint256"
        },
        {
          "internalType": "uint256",
          "name": "acceptancePercentage",
          "type": "uint256"
        },
        {
          "internalType": "uint256",
          "name": "milestone",
          "type": "uint256"
        },
        {
          "internalType": "uint256",
          "name": "originalAmountofTokens",
          "type": "uint256"
        },
        {
          "internalType": "uint256",
          "name": "totalTokens",
          "type": "uint256"
        },
        {
          "internalType": "uint256",
          "name": "pricePerToken",
          "type": "uint256"
        },
        {
          "internalType": "address",
          "name": "sender",
          "type": "address"
        },
        {
          "internalType": "address",
          "name": "tokenAddress",
          "type": "address"
        },
        {
          "internalType": "bool",
          "name": "paid",
          "type": "bool"
        },
        {
          "internalType": "uint256",
          "name": "creditType",
          "type": "uint256"
        }
      ],
      "stateMutability": "view",
      "type": "function",
      "constant": true
    },
    {
      "inputs": [],
      "name": "maxNumberofDays",
      "outputs": [
        {
          "internalType": "uint256",
          "name": "",
          "type": "uint256"
        }
      ],
      "stateMutability": "view",
      "type": "function",
      "constant": true
    },
    {
      "inputs": [],
      "name": "minNumberofDays",
      "outputs": [
        {
          "internalType": "uint256",
          "name": "",
          "type": "uint256"
        }
      ],
      "stateMutability": "view",
      "type": "function",
      "constant": true
    },
    {
      "inputs": [],
      "name": "minimumTokens",
      "outputs": [
        {
          "internalType": "uint256",
          "name": "",
          "type": "uint256"
        }
      ],
      "stateMutability": "view",
      "type": "function",
      "constant": true
    },
    {
      "inputs": [],
      "name": "totalLaunchpads",
      "outputs": [
        {
          "internalType": "uint256",
          "name": "",
          "type": "uint256"
        }
      ],
      "stateMutability": "view",
      "type": "function",
      "constant": true
    },
    {
      "inputs": [
        {
          "internalType": "uint256",
          "name": "_startTime",
          "type": "uint256"
        },
        {
          "internalType": "uint256",
          "name": "_numOfDays",
          "type": "uint256"
        },
        {
          "internalType": "uint256",
          "name": "_acceptedPercentage",
          "type": "uint256"
        },
        {
          "internalType": "uint256",
          "name": "_pricePerToken",
          "type": "uint256"
        },
        {
          "internalType": "uint256",
          "name": "_totalTokens",
          "type": "uint256"
        },
        {
          "internalType": "address",
          "name": "_tokenAddress",
          "type": "address"
        }
      ],
      "name": "launchMyToken",
      "outputs": [],
      "stateMutability": "payable",
      "type": "function",
      "payable": true
    },
    {
      "inputs": [],
      "name": "whatTimeNow",
      "outputs": [
        {
          "internalType": "uint256",
          "name": "",
          "type": "uint256"
        }
      ],
      "stateMutability": "view",
      "type": "function",
      "constant": true
    },
    {
      "inputs": [
        {
          "internalType": "uint256",
          "name": "_launchpadId",
          "type": "uint256"
        }
      ],
      "name": "buyLaunchPadToken",
      "outputs": [],
      "stateMutability": "payable",
      "type": "function",
      "payable": true
    },
    {
      "inputs": [
        {
          "internalType": "uint256",
          "name": "_launchpadId",
          "type": "uint256"
        }
      ],
      "name": "settleLaunchPad",
      "outputs": [],
      "stateMutability": "nonpayable",
      "type": "function"
    },
    {
      "inputs": [
        {
          "internalType": "uint256",
          "name": "_launchPadId",
          "type": "uint256"
        }
      ],
      "name": "withdrawCredits",
      "outputs": [],
      "stateMutability": "nonpayable",
      "type": "function"
    },
    {
      "inputs": [
        {
          "internalType": "uint256",
          "name": "_numOfDays",
          "type": "uint256"
        }
      ],
      "name": "changeMaxNumOfDays",
      "outputs": [],
      "stateMutability": "nonpayable",
      "type": "function"
    },
    {
      "inputs": [
        {
          "internalType": "uint256",
          "name": "_numOfDays",
          "type": "uint256"
        }
      ],
      "name": "changeMinNumOfDays",
      "outputs": [],
      "stateMutability": "nonpayable",
      "type": "function"
    },
    {
      "inputs": [
        {
          "internalType": "uint256",
          "name": "_minimumTokens",
          "type": "uint256"
        }
      ],
      "name": "changeMinimumTokens",
      "outputs": [],
      "stateMutability": "nonpayable",
      "type": "function"
    },
    {
      "inputs": [
        {
          "internalType": "bool",
          "name": "_isLocked",
          "type": "bool"
        }
      ],
      "name": "lockContract",
      "outputs": [],
      "stateMutability": "nonpayable",
      "type": "function"
    },
    {
      "inputs": [
        {
          "internalType": "uint256",
          "name": "_fee",
          "type": "uint256"
        }
      ],
      "name": "changeFee",
      "outputs": [],
      "stateMutability": "nonpayable",
      "type": "function"
    },
    {
      "inputs": [
        {
          "internalType": "address",
          "name": "_newOwner",
          "type": "address"
        }
      ],
      "name": "changeOwner",
      "outputs": [],
      "stateMutability": "nonpayable",
      "type": "function"
    },
    {
      "inputs": [
        {
          "internalType": "uint256",
          "name": "_launchPadId",
          "type": "uint256"
        }
      ],
      "name": "retrievePriceForToken",
      "outputs": [
        {
          "internalType": "uint256",
          "name": "",
          "type": "uint256"
        }
      ],
      "stateMutability": "view",
      "type": "function",
      "constant": true
    },
    {
      "inputs": [
        {
          "internalType": "uint256",
          "name": "_launchPadId",
          "type": "uint256"
        }
      ],
      "name": "getMaxBuyValueForToken",
      "outputs": [
        {
          "internalType": "uint256",
          "name": "",
          "type": "uint256"
        }
      ],
      "stateMutability": "view",
      "type": "function",
      "constant": true
    },
    {
      "inputs": [
        {
          "internalType": "uint256",
          "name": "_totalTokens",
          "type": "uint256"
        }
      ],
      "name": "calculateFee",
      "outputs": [
        {
          "internalType": "uint256",
          "name": "",
          "type": "uint256"
        }
      ],
      "stateMutability": "view",
      "type": "function",
      "constant": true
    },
    {
      "inputs": [
        {
          "internalType": "uint256",
          "name": "_totalTokens",
          "type": "uint256"
        },
        {
          "internalType": "uint256",
          "name": "_acceptedRate",
          "type": "uint256"
        }
      ],
      "name": "calculateAcceptanceRate",
      "outputs": [
        {
          "internalType": "uint256",
          "name": "",
          "type": "uint256"
        }
      ],
      "stateMutability": "pure",
      "type": "function",
      "constant": true
    },
    {
      "inputs": [
        {
          "internalType": "uint256",
          "name": "_totalTokens",
          "type": "uint256"
        }
      ],
      "name": "estimateProtocolFee",
      "outputs": [
        {
          "internalType": "uint256",
          "name": "",
          "type": "uint256"
        }
      ],
      "stateMutability": "view",
      "type": "function",
      "constant": true
    }
  ],
  "bytecode": "0x6080604052600180556000600355600a6005556103e8600655603c6007553480156200002a57600080fd5b5060405162003c9938038062003c998339818101604052810190620000509190620000f3565b33600060016101000a81548173ffffffffffffffffffffffffffffffffffffffff021916908373ffffffffffffffffffffffffffffffffffffffff160217905550806000806101000a81548160ff0219169083151502179055505062000125565b600080fd5b60008115159050919050565b620000cd81620000b6565b8114620000d957600080fd5b50565b600081519050620000ed81620000c2565b92915050565b6000602082840312156200010c576200010b620000b1565b5b60006200011c84828501620000dc565b91505092915050565b613b6480620001356000396000f3fe6080604052600436106101355760003560e01c806393d4b1ca116100ab578063bfeab6e51161006f578063bfeab6e514610410578063c06ca1dd1461044d578063cfc895cb14610478578063d84244da146104b5578063e8b90cc6146104f2578063fa5a73611461051b57610135565b806393d4b1ca1461031757806399a5d74714610342578063a6f9dae11461037f578063aebc47f3146103a8578063bc96bc27146103e557610135565b80635bbfdb0c116100fd5780635bbfdb0c146102105780635be5f0bc14610239578063677ef683146102805780636a1db1bf146102a95780636c1e4fb6146102d2578063897cceee146102ee57610135565b8063025302c81461013a57806309ed17821461017757806321ecdd32146101a05780634056f8a8146101c95780634f318045146101f4575b600080fd5b34801561014657600080fd5b50610161600480360381019061015c91906123a6565b610546565b60405161016e91906123f5565b60405180910390f35b34801561018357600080fd5b5061019e60048036038101906101999190612410565b61056d565b005b3480156101ac57600080fd5b506101c760048036038101906101c29190612410565b610921565b005b3480156101d557600080fd5b506101de610a03565b6040516101eb91906123f5565b60405180910390f35b61020e6004803603810190610209919061249b565b610a09565b005b34801561021c57600080fd5b5061023760048036038101906102329190612410565b611300565b005b34801561024557600080fd5b50610260600480360381019061025b9190612410565b6113e2565b6040516102779b9a99989796959493929190612552565b60405180910390f35b34801561028c57600080fd5b506102a760048036038101906102a29190612410565b611489565b005b3480156102b557600080fd5b506102d060048036038101906102cb9190612410565b611698565b005b6102ec60048036038101906102e79190612410565b611782565b005b3480156102fa57600080fd5b5061031560048036038101906103109190612629565b611c4b565b005b34801561032357600080fd5b5061032c611cc1565b60405161033991906123f5565b60405180910390f35b34801561034e57600080fd5b5061036960048036038101906103649190612410565b611cc9565b60405161037691906123f5565b60405180910390f35b34801561038b57600080fd5b506103a660048036038101906103a19190612656565b611d03565b005b3480156103b457600080fd5b506103cf60048036038101906103ca9190612410565b611e11565b6040516103dc91906123f5565b60405180910390f35b3480156103f157600080fd5b506103fa611e5d565b60405161040791906123f5565b60405180910390f35b34801561041c57600080fd5b5061043760048036038101906104329190612656565b611e63565b60405161044491906123f5565b60405180910390f35b34801561045957600080fd5b50610462611e7b565b60405161046f91906123f5565b60405180910390f35b34801561048457600080fd5b5061049f600480360381019061049a9190612410565b611e81565b6040516104ac91906123f5565b60405180910390f35b3480156104c157600080fd5b506104dc60048036038101906104d79190612410565b611f24565b6040516104e991906123f5565b60405180910390f35b3480156104fe57600080fd5b5061051960048036038101906105149190612410565b611f57565b005b34801561052757600080fd5b50610530612037565b60405161053d91906123f5565b60405180910390f35b6000806064838561055791906126b2565b610561919061273b565b90508091505092915050565b806000600260008381526020019081526020016000206009015414156105c8576040517f08c379a00000000000000000000000000000000000000000000000000000000081526004016105bf906127c9565b60405180910390fd5b6000600860003373ffffffffffffffffffffffffffffffffffffffff1673ffffffffffffffffffffffffffffffffffffffff168152602001908152602001600020600001549050600354831115610654576040517f08c379a000000000000000000000000000000000000000000000000000000000815260040161064b90612835565b60405180910390fd5b6000811415610698576040517f08c379a000000000000000000000000000000000000000000000000000000000815260040161068f906128a1565b60405180910390fd5b804710156106db576040517f08c379a00000000000000000000000000000000000000000000000000000000081526004016106d29061290d565b60405180910390fd5b6000600860003373ffffffffffffffffffffffffffffffffffffffff1673ffffffffffffffffffffffffffffffffffffffff168152602001908152602001600020600001819055506001600260008581526020019081526020016000206009015414156107f45760003373ffffffffffffffffffffffffffffffffffffffff16826040516107689061295e565b60006040518083038185875af1925050503d80600081146107a5576040519150601f19603f3d011682016040523d82523d6000602084013e6107aa565b606091505b50509050806107ee576040517f08c379a00000000000000000000000000000000000000000000000000000000081526004016107e5906129bf565b60405180910390fd5b5061091c565b600280600085815260200190815260200160002060090154141561091b5760006002600085815260200190815260200160002060080160009054906101000a900473ffffffffffffffffffffffffffffffffffffffff1690508073ffffffffffffffffffffffffffffffffffffffff1663a9059cbb33846040518363ffffffff1660e01b81526004016108889291906129df565b602060405180830381600087803b1580156108a257600080fd5b505af11580156108b6573d6000803e3d6000fd5b505050506040513d601f19601f820116820180604052508101906108da9190612a1d565b610919576040517f08c379a000000000000000000000000000000000000000000000000000000000815260040161091090612a96565b60405180910390fd5b505b5b505050565b600060019054906101000a900473ffffffffffffffffffffffffffffffffffffffff1673ffffffffffffffffffffffffffffffffffffffff163373ffffffffffffffffffffffffffffffffffffffff161461097b57600080fd5b6005548110156109c0576040517f08c379a00000000000000000000000000000000000000000000000000000000081526004016109b790612b28565b60405180910390fd5b806007819055507f0b26d58d207871fa7b6481a3e958baf2fc3693e42739e543a1b5cde6c8a7f3166007546040516109f891906123f5565b60405180910390a150565b60065481565b60008054906101000a900460ff1615610a57576040517f08c379a0000000000000000000000000000000000000000000000000000000008152600401610a4e90612b94565b60405180910390fd5b42861015610a63574295505b600554851015610aa8576040517f08c379a0000000000000000000000000000000000000000000000000000000008152600401610a9f90612c00565b60405180910390fd5b600754851115610aed576040517f08c379a0000000000000000000000000000000000000000000000000000000008152600401610ae490612c6c565b60405180910390fd5b60006201518086610afe91906126b2565b42610b099190612c8c565b905086811015610b4e576040517f08c379a0000000000000000000000000000000000000000000000000000000008152600401610b4590612d2e565b60405180910390fd5b6032851015610b92576040517f08c379a0000000000000000000000000000000000000000000000000000000008152600401610b8990612d9a565b60405180910390fd5b6064851115610bd6576040517f08c379a0000000000000000000000000000000000000000000000000000000008152600401610bcd90612e2c565b60405180910390fd5b6000600460008473ffffffffffffffffffffffffffffffffffffffff1673ffffffffffffffffffffffffffffffffffffffff1681526020019081526020016000205414610c58576040517f08c379a0000000000000000000000000000000000000000000000000000000008152600401610c4f90612ebe565b60405180910390fd5b600654831015610c9d576040517f08c379a0000000000000000000000000000000000000000000000000000000008152600401610c9490612f2a565b60405180910390fd5b6000610ca884611cc9565b905080341015610ced576040517f08c379a0000000000000000000000000000000000000000000000000000000008152600401610ce490612f96565b60405180910390fd5b6001851015610d31576040517f08c379a0000000000000000000000000000000000000000000000000000000008152600401610d2890613002565b60405180910390fd5b670de0b6b3a7640000851115610d7c576040517f08c379a0000000000000000000000000000000000000000000000000000000008152600401610d7390613094565b60405180910390fd5b6000610d888588610546565b9050600160036000828254610d9d9190612c8c565b92505081905550600354600460008673ffffffffffffffffffffffffffffffffffffffff1673ffffffffffffffffffffffffffffffffffffffff168152602001908152602001600020819055506040518061016001604052808a81526020018481526020018881526020018281526020018681526020018681526020018781526020013373ffffffffffffffffffffffffffffffffffffffff1681526020018573ffffffffffffffffffffffffffffffffffffffff1681526020016000151581526020016000815250600260006003548152602001908152602001600020600082015181600001556020820151816001015560408201518160020155606082015181600301556080820151816004015560a0820151816005015560c0820151816006015560e08201518160070160006101000a81548173ffffffffffffffffffffffffffffffffffffffff021916908373ffffffffffffffffffffffffffffffffffffffff1602179055506101008201518160080160006101000a81548173ffffffffffffffffffffffffffffffffffffffff021916908373ffffffffffffffffffffffffffffffffffffffff1602179055506101208201518160080160146101000a81548160ff0219169083151502179055506101408201518160090155905050600084905060128173ffffffffffffffffffffffffffffffffffffffff1663313ce5676040518163ffffffff1660e01b815260040160206040518083038186803b158015610fcc57600080fd5b505afa158015610fe0573d6000803e3d6000fd5b505050506040513d601f19601f8201168201806040525081019061100491906130ed565b60ff1614611047576040517f08c379a000000000000000000000000000000000000000000000000000000000815260040161103e9061318c565b60405180910390fd5b60008173ffffffffffffffffffffffffffffffffffffffff166370a08231336040518263ffffffff1660e01b815260040161108291906131ac565b60206040518083038186803b15801561109a57600080fd5b505afa1580156110ae573d6000803e3d6000fd5b505050506040513d601f19601f820116820180604052508101906110d291906131dc565b905086811015611117576040517f08c379a000000000000000000000000000000000000000000000000000000000815260040161110e9061327b565b60405180910390fd5b868273ffffffffffffffffffffffffffffffffffffffff1663dd62ed3e33306040518363ffffffff1660e01b815260040161115392919061329b565b60206040518083038186803b15801561116b57600080fd5b505afa15801561117f573d6000803e3d6000fd5b505050506040513d601f19601f820116820180604052508101906111a391906131dc565b10156111e4576040517f08c379a00000000000000000000000000000000000000000000000000000000081526004016111db90613310565b60405180910390fd5b8173ffffffffffffffffffffffffffffffffffffffff166323b872dd33308a6040518463ffffffff1660e01b815260040161122193929190613330565b602060405180830381600087803b15801561123b57600080fd5b505af115801561124f573d6000803e3d6000fd5b505050506040513d601f19601f820116820180604052508101906112739190612a1d565b6112b2576040517f08c379a00000000000000000000000000000000000000000000000000000000081526004016112a9906133b3565b60405180910390fd5b7ff349a5561a5b5b67c42c6d238c581ea38682ff0909602bc11356e94e231c872d8b8b8b8b8b8b6040516112eb969594939291906133d3565b60405180910390a15050505050505050505050565b600060019054906101000a900473ffffffffffffffffffffffffffffffffffffffff1673ffffffffffffffffffffffffffffffffffffffff163373ffffffffffffffffffffffffffffffffffffffff161461135a57600080fd5b60075481111561139f576040517f08c379a0000000000000000000000000000000000000000000000000000000008152600401611396906134a6565b60405180910390fd5b806005819055507f42cbadd085735291b6a01da1498f497e5d86a74f8927dace693bf71c0606cbf66005546040516113d791906123f5565b60405180910390a150565b60026020528060005260406000206000915090508060000154908060010154908060020154908060030154908060040154908060050154908060060154908060070160009054906101000a900473ffffffffffffffffffffffffffffffffffffffff16908060080160009054906101000a900473ffffffffffffffffffffffffffffffffffffffff16908060080160149054906101000a900460ff1690806009015490508b565b6003548111156114ce576040517f08c379a00000000000000000000000000000000000000000000000000000000081526004016114c590612835565b60405180910390fd5b600015156002600083815260200190815260200160002060080160149054906101000a900460ff16151514611538576040517f08c379a000000000000000000000000000000000000000000000000000000000815260040161152f90613512565b60405180910390fd5b600080600260008481526020019081526020016000206005015460026000858152602001908152602001600020600401546115739190613532565b90506002600084815260200190815260200160002060030154811061159b57600191506115a0565b600091505b6000600260008581526020019081526020016000206001015442106115c857600190506115cd565b600090505b8061166657821561162657600060026000868152602001908152602001600020600501541415611605576116008461203d565b611621565b6002806000868152602001908152602001600020600901819055505b611661565b6040517f08c379a0000000000000000000000000000000000000000000000000000000008152600401611658906135b2565b60405180910390fd5b611692565b80156116915782156116805761167b8461203d565b611690565b8261168f5761168e846121c3565b5b5b5b5b50505050565b600060019054906101000a900473ffffffffffffffffffffffffffffffffffffffff1673ffffffffffffffffffffffffffffffffffffffff163373ffffffffffffffffffffffffffffffffffffffff16146116f257600080fd5b60008111611735576040517f08c379a000000000000000000000000000000000000000000000000000000000815260040161172c9061361e565b60405180910390fd5b60648110611778576040517f08c379a000000000000000000000000000000000000000000000000000000000815260040161176f9061368a565b60405180910390fd5b8060018190555050565b60008054906101000a900460ff16156117d0576040517f08c379a00000000000000000000000000000000000000000000000000000000081526004016117c790612b94565b60405180910390fd5b6002600082815260200190815260200160002060070160009054906101000a900473ffffffffffffffffffffffffffffffffffffffff1673ffffffffffffffffffffffffffffffffffffffff163373ffffffffffffffffffffffffffffffffffffffff161415611875576040517f08c379a000000000000000000000000000000000000000000000000000000000815260040161186c9061371c565b60405180910390fd5b6003548111156118ba576040517f08c379a00000000000000000000000000000000000000000000000000000000081526004016118b190612835565b60405180910390fd5b60026000828152602001908152602001600020600001544211611912576040517f08c379a000000000000000000000000000000000000000000000000000000000815260040161190990613788565b60405180910390fd5b600260008281526020019081526020016000206001015442111561196b576040517f08c379a0000000000000000000000000000000000000000000000000000000008152600401611962906137f4565b60405180910390fd5b60006002600083815260200190815260200160002060050154116119c4576040517f08c379a00000000000000000000000000000000000000000000000000000000081526004016119bb90613860565b60405180910390fd5b600060026000838152602001908152602001600020600601549050600081670de0b6b3a76400006119f5919061273b565b905080341015611a3a576040517f08c379a0000000000000000000000000000000000000000000000000000000008152600401611a31906138f2565b60405180910390fd5b60008234611a4891906126b2565b90506000670de0b6b3a764000082611a60919061273b565b90508060026000878152602001908152602001600020600501541015611abb576040517f08c379a0000000000000000000000000000000000000000000000000000000008152600401611ab29061395e565b60405180910390fd5b806002600087815260200190815260200160002060050154611add9190613532565b60026000878152602001908152602001600020600501819055506000600860003373ffffffffffffffffffffffffffffffffffffffff1673ffffffffffffffffffffffffffffffffffffffff16815260200190815260200160002060000154905060008282611b4c9190612c8c565b90506040518060400160405280828152602001600260008a815260200190815260200160002060080160009054906101000a900473ffffffffffffffffffffffffffffffffffffffff1673ffffffffffffffffffffffffffffffffffffffff16815250600860003373ffffffffffffffffffffffffffffffffffffffff1673ffffffffffffffffffffffffffffffffffffffff1681526020019081526020016000206000820151816000015560208201518160010160006101000a81548173ffffffffffffffffffffffffffffffffffffffff021916908373ffffffffffffffffffffffffffffffffffffffff16021790555090505050505050505050565b600060019054906101000a900473ffffffffffffffffffffffffffffffffffffffff1673ffffffffffffffffffffffffffffffffffffffff163373ffffffffffffffffffffffffffffffffffffffff1614611ca557600080fd5b806000806101000a81548160ff02191690831515021790555050565b600042905090565b600080606460015484611cdc91906126b2565b611ce6919061273b565b9050662386f26fc1000081611cfb91906126b2565b915050919050565b600060019054906101000a900473ffffffffffffffffffffffffffffffffffffffff1673ffffffffffffffffffffffffffffffffffffffff163373ffffffffffffffffffffffffffffffffffffffff1614611d5d57600080fd5b600073ffffffffffffffffffffffffffffffffffffffff168173ffffffffffffffffffffffffffffffffffffffff161415611dcd576040517f08c379a0000000000000000000000000000000000000000000000000000000008152600401611dc4906139ca565b60405180910390fd5b80600060016101000a81548173ffffffffffffffffffffffffffffffffffffffff021916908373ffffffffffffffffffffffffffffffffffffffff16021790555050565b60008060015490506000662386f26fc100009050600060648386611e3591906126b2565b611e3f919061273b565b905060008282611e4f91906126b2565b905080945050505050919050565b60075481565b60046020528060005260406000206000915090505481565b60035481565b600080600260008481526020019081526020016000206005015490506000811415611ee1576040517f08c379a0000000000000000000000000000000000000000000000000000000008152600401611ed890613a36565b60405180910390fd5b60006002600085815260200190815260200160002060060154670de0b6b3a7640000611f0d919061273b565b90508082611f1b91906126b2565b92505050919050565b60006002600083815260200190815260200160002060060154670de0b6b3a7640000611f50919061273b565b9050919050565b600060019054906101000a900473ffffffffffffffffffffffffffffffffffffffff1673ffffffffffffffffffffffffffffffffffffffff163373ffffffffffffffffffffffffffffffffffffffff1614611fb157600080fd5b60008111611ff4576040517f08c379a0000000000000000000000000000000000000000000000000000000008152600401611feb90613aa2565b60405180910390fd5b806006819055507f328db17120caa4c283f2086572f767f14d471acf104900d1ee3a2ad85f184d1a60065460405161202c91906123f5565b60405180910390a150565b60055481565b60016002600083815260200190815260200160002060080160146101000a81548160ff02191690831515021790555060028060008381526020019081526020016000206009018190555060006002600083815260200190815260200160002060060154670de0b6b3a76400006120b3919061273b565b905060008160026000858152602001908152602001600020600401546120d991906126b2565b905060006002600085815260200190815260200160002060070160009054906101000a900473ffffffffffffffffffffffffffffffffffffffff1673ffffffffffffffffffffffffffffffffffffffff16826040516121379061295e565b60006040518083038185875af1925050503d8060008114612174576040519150601f19603f3d011682016040523d82523d6000602084013e612179565b606091505b50509050806121bd576040517f08c379a00000000000000000000000000000000000000000000000000000000081526004016121b4906129bf565b60405180910390fd5b50505050565b60016002600083815260200190815260200160002060080160146101000a81548160ff0219169083151502179055506001600260008381526020019081526020016000206009018190555060006002600083815260200190815260200160002060080160009054906101000a900473ffffffffffffffffffffffffffffffffffffffff1690506000600260008481526020019081526020016000206004015490508173ffffffffffffffffffffffffffffffffffffffff1663a9059cbb6002600086815260200190815260200160002060070160009054906101000a900473ffffffffffffffffffffffffffffffffffffffff16836040518363ffffffff1660e01b81526004016122d59291906129df565b602060405180830381600087803b1580156122ef57600080fd5b505af1158015612303573d6000803e3d6000fd5b505050506040513d601f19601f820116820180604052508101906123279190612a1d565b612366576040517f08c379a000000000000000000000000000000000000000000000000000000000815260040161235d90613b0e565b60405180910390fd5b505050565b600080fd5b6000819050919050565b61238381612370565b811461238e57600080fd5b50565b6000813590506123a08161237a565b92915050565b600080604083850312156123bd576123bc61236b565b5b60006123cb85828601612391565b92505060206123dc85828601612391565b9150509250929050565b6123ef81612370565b82525050565b600060208201905061240a60008301846123e6565b92915050565b6000602082840312156124265761242561236b565b5b600061243484828501612391565b91505092915050565b600073ffffffffffffffffffffffffffffffffffffffff82169050919050565b60006124688261243d565b9050919050565b6124788161245d565b811461248357600080fd5b50565b6000813590506124958161246f565b92915050565b60008060008060008060c087890312156124b8576124b761236b565b5b60006124c689828a01612391565b96505060206124d789828a01612391565b95505060406124e889828a01612391565b94505060606124f989828a01612391565b935050608061250a89828a01612391565b92505060a061251b89828a01612486565b9150509295509295509295565b6125318161245d565b82525050565b60008115159050919050565b61254c81612537565b82525050565b600061016082019050612568600083018e6123e6565b612575602083018d6123e6565b612582604083018c6123e6565b61258f606083018b6123e6565b61259c608083018a6123e6565b6125a960a08301896123e6565b6125b660c08301886123e6565b6125c360e0830187612528565b6125d1610100830186612528565b6125df610120830185612543565b6125ed6101408301846123e6565b9c9b505050505050505050505050565b61260681612537565b811461261157600080fd5b50565b600081359050612623816125fd565b92915050565b60006020828403121561263f5761263e61236b565b5b600061264d84828501612614565b91505092915050565b60006020828403121561266c5761266b61236b565b5b600061267a84828501612486565b91505092915050565b7f4e487b7100000000000000000000000000000000000000000000000000000000600052601160045260246000fd5b60006126bd82612370565b91506126c883612370565b9250817fffffffffffffffffffffffffffffffffffffffffffffffffffffffffffffffff048311821515161561270157612700612683565b5b828202905092915050565b7f4e487b7100000000000000000000000000000000000000000000000000000000600052601260045260246000fd5b600061274682612370565b915061275183612370565b9250826127615761276061270c565b5b828204905092915050565b600082825260208201905092915050565b7f726566756e642074797065206e6f742073657420796574210000000000000000600082015250565b60006127b360188361276c565b91506127be8261277d565b602082019050919050565b600060208201905081810360008301526127e2816127a6565b9050919050565b7f496e76616c6964206c61756e6368706164496400000000000000000000000000600082015250565b600061281f60138361276c565b915061282a826127e9565b602082019050919050565b6000602082019050818103600083015261284e81612812565b9050919050565b7f6e6f7468696e6720746f20776974686472617700000000000000000000000000600082015250565b600061288b60138361276c565b915061289682612855565b602082019050919050565b600060208201905081810360008301526128ba8161287e565b9050919050565b7f6e6f7420656e6f7567682062616c616e636520746f2077697468647261770000600082015250565b60006128f7601e8361276c565b9150612902826128c1565b602082019050919050565b60006020820190508181036000830152612926816128ea565b9050919050565b600081905092915050565b50565b600061294860008361292d565b915061295382612938565b600082019050919050565b60006129698261293b565b9150819050919050565b7f4661696c656420746f2073656e64204574686572000000000000000000000000600082015250565b60006129a960148361276c565b91506129b482612973565b602082019050919050565b600060208201905081810360008301526129d88161299c565b9050919050565b60006040820190506129f46000830185612528565b612a0160208301846123e6565b9392505050565b600081519050612a17816125fd565b92915050565b600060208284031215612a3357612a3261236b565b5b6000612a4184828501612a08565b91505092915050565b7f756e61626c6520746f2073656e64206d6f6e6579000000000000000000000000600082015250565b6000612a8060148361276c565b9150612a8b82612a4a565b602082019050919050565b60006020820190508181036000830152612aaf81612a73565b9050919050565b7f537570706c696564206461797320697320736d616c6c6572207468616e206d6960008201527f6e696d756d206e756d626572206f662064617973000000000000000000000000602082015250565b6000612b1260348361276c565b9150612b1d82612ab6565b604082019050919050565b60006020820190508181036000830152612b4181612b05565b9050919050565b7f436f6e7472616374206973206c6f636b65642062792061646d696e0000000000600082015250565b6000612b7e601b8361276c565b9150612b8982612b48565b602082019050919050565b60006020820190508181036000830152612bad81612b71565b9050919050565b7f746f6f2073686f72740000000000000000000000000000000000000000000000600082015250565b6000612bea60098361276c565b9150612bf582612bb4565b602082019050919050565b60006020820190508181036000830152612c1981612bdd565b9050919050565b7f57686f6f70732c2063616e27742062652074686174206c6f6e67000000000000600082015250565b6000612c56601a8361276c565b9150612c6182612c20565b602082019050919050565b60006020820190508181036000830152612c8581612c49565b9050919050565b6000612c9782612370565b9150612ca283612370565b9250827fffffffffffffffffffffffffffffffffffffffffffffffffffffffffffffffff03821115612cd757612cd6612683565b5b828201905092915050565b7f736f6d657468696e67206973207265616c6c792077726f6e6720686572650000600082015250565b6000612d18601e8361276c565b9150612d2382612ce2565b602082019050919050565b60006020820190508181036000830152612d4781612d0b565b9050919050565b7f4d757374206265206f7665722035302520616363657074616e63650000000000600082015250565b6000612d84601b8361276c565b9150612d8f82612d4e565b602082019050919050565b60006020820190508181036000830152612db381612d77565b9050919050565b7f4d757374206265206c657373207468616e203130302520616363657074616e6360008201527f6500000000000000000000000000000000000000000000000000000000000000602082015250565b6000612e1660218361276c565b9150612e2182612dba565b604082019050919050565b60006020820190508181036000830152612e4581612e09565b9050919050565b7f54686973206163636f756e742068617320616e206578697374696e67206c617560008201527f6e63687061640000000000000000000000000000000000000000000000000000602082015250565b6000612ea860268361276c565b9150612eb382612e4c565b604082019050919050565b60006020820190508181036000830152612ed781612e9b565b9050919050565b7f4e656564206d6f726520746f6b656e7320746f2070726f636573730000000000600082015250565b6000612f14601b8361276c565b9150612f1f82612ede565b602082019050919050565b60006020820190508181036000830152612f4381612f07565b9050919050565b7f4e6f7420656e6f75676820666565732070616964000000000000000000000000600082015250565b6000612f8060148361276c565b9150612f8b82612f4a565b602082019050919050565b60006020820190508181036000830152612faf81612f73565b9050919050565b7f6d617820312065746865722070657220746f6b656e0000000000000000000000600082015250565b6000612fec60158361276c565b9150612ff782612fb6565b602082019050919050565b6000602082019050818103600083015261301b81612fdf565b9050919050565b7f796f75206578636565646564206d696e696d756d205f7072696365506572546f60008201527f6b656e0000000000000000000000000000000000000000000000000000000000602082015250565b600061307e60238361276c565b915061308982613022565b604082019050919050565b600060208201905081810360008301526130ad81613071565b9050919050565b600060ff82169050919050565b6130ca816130b4565b81146130d557600080fd5b50565b6000815190506130e7816130c1565b92915050565b6000602082840312156131035761310261236b565b5b6000613111848285016130d8565b91505092915050565b7f5765206f6e6c792061636365707420313820646563696d616c7320746f6b656e60008201527f7300000000000000000000000000000000000000000000000000000000000000602082015250565b600061317660218361276c565b91506131818261311a565b604082019050919050565b600060208201905081810360008301526131a581613169565b9050919050565b60006020820190506131c16000830184612528565b92915050565b6000815190506131d68161237a565b92915050565b6000602082840312156131f2576131f161236b565b5b6000613200848285016131c7565b91505092915050565b7f4e6f7420656e6f7567682066756e647320696e2073656e6465722062616c616e60008201527f6365210000000000000000000000000000000000000000000000000000000000602082015250565b600061326560238361276c565b915061327082613209565b604082019050919050565b6000602082019050818103600083015261329481613258565b9050919050565b60006040820190506132b06000830185612528565b6132bd6020830184612528565b9392505050565b7f496e737566696369656e7420616c6c6f77616e63650000000000000000000000600082015250565b60006132fa60158361276c565b9150613305826132c4565b602082019050919050565b60006020820190508181036000830152613329816132ed565b9050919050565b60006060820190506133456000830186612528565b6133526020830185612528565b61335f60408301846123e6565b949350505050565b7f5472616e73666572206661696c65640000000000000000000000000000000000600082015250565b600061339d600f8361276c565b91506133a882613367565b602082019050919050565b600060208201905081810360008301526133cc81613390565b9050919050565b600060c0820190506133e860008301896123e6565b6133f560208301886123e6565b61340260408301876123e6565b61340f60608301866123e6565b61341c60808301856123e6565b61342960a0830184612528565b979650505050505050565b7f537570706c696564206461797320697320626967676572207468616e206d617860008201527f696d756d206e756d626572206f66206461797300000000000000000000000000602082015250565b600061349060338361276c565b915061349b82613434565b604082019050919050565b600060208201905081810360008301526134bf81613483565b9050919050565b7f54686973206c61756e636870616420686173206265656e20736574746c656400600082015250565b60006134fc601f8361276c565b9150613507826134c6565b602082019050919050565b6000602082019050818103600083015261352b816134ef565b9050919050565b600061353d82612370565b915061354883612370565b92508282101561355b5761355a612683565b5b828203905092915050565b7f4d696c6573746f6e65206e6f7420616368696576656420796574210000000000600082015250565b600061359c601b8361276c565b91506135a782613566565b602082019050919050565b600060208201905081810360008301526135cb8161358f565b9050919050565b7f466565206d757374206265206c6172676572207468616e203025000000000000600082015250565b6000613608601a8361276c565b9150613613826135d2565b602082019050919050565b60006020820190508181036000830152613637816135fb565b9050919050565b7f466565206d757374206265206c6f776572207468616e20313030250000000000600082015250565b6000613674601b8361276c565b915061367f8261363e565b602082019050919050565b600060208201905081810360008301526136a381613667565b9050919050565b7f646576656c6f706572732063616e6e6f7420627579207468656972206f776e2060008201527f746f6b656e000000000000000000000000000000000000000000000000000000602082015250565b600061370660258361276c565b9150613711826136aa565b604082019050919050565b60006020820190508181036000830152613735816136f9565b9050919050565b7f686176656e277420737461727465642079657400000000000000000000000000600082015250565b600061377260138361276c565b915061377d8261373c565b602082019050919050565b600060208201905081810360008301526137a181613765565b9050919050565b7f697420616c726561647920656e64656400000000000000000000000000000000600082015250565b60006137de60108361276c565b91506137e9826137a8565b602082019050919050565b6000602082019050818103600083015261380d816137d1565b9050919050565b7f4e6f20746f6b656e73206c656674000000000000000000000000000000000000600082015250565b600061384a600e8361276c565b915061385582613814565b602082019050919050565b600060208201905081810360008301526138798161383d565b9050919050565b7f53656e742066756e6473206e6f7420656e6f75676820746f2062757920746f6b60008201527f656e732100000000000000000000000000000000000000000000000000000000602082015250565b60006138dc60248361276c565b91506138e782613880565b604082019050919050565b6000602082019050818103600083015261390b816138cf565b9050919050565b7f4e6f7420656e6f75676820746f6b656e7320746f206275792100000000000000600082015250565b600061394860198361276c565b915061395382613912565b602082019050919050565b600060208201905081810360008301526139778161393b565b9050919050565b7f63616e6e6f742073657420746f206e756c6c2061646472657373000000000000600082015250565b60006139b4601a8361276c565b91506139bf8261397e565b602082019050919050565b600060208201905081810360008301526139e3816139a7565b9050919050565b7f4e6f20746f6b656e73206c65667420746f206275792100000000000000000000600082015250565b6000613a2060168361276c565b9150613a2b826139ea565b602082019050919050565b60006020820190508181036000830152613a4f81613a13565b9050919050565b7f43616e6e6f742073657420617320300000000000000000000000000000000000600082015250565b6000613a8c600f8361276c565b9150613a9782613a56565b602082019050919050565b60006020820190508181036000830152613abb81613a7f565b9050919050565b7f756e61626c6520746f2073656e642066756e647320746f206465762100000000600082015250565b6000613af8601c8361276c565b9150613b0382613ac2565b602082019050919050565b60006020820190508181036000830152613b2781613aeb565b905091905056fea2646970667358221220f0b8a3a9a481bd6e454b620ef8a790d045a456b7ba89e90b2db7457277ebbdd864736f6c63430008090033",
  "immutableReferences": {},
  "source": "// SPDX-License-Identifier: MIT\npragma solidity ^0.8.9;\n\nimport \"@openzeppelin/contracts/token/ERC20/ERC20.sol\"; //we use https://docs.openzeppelin.com/contracts/4.x/api/token/erc20#ERC20 to get decimals()\n\ncontract LaunchPad {\n\n    //Admin variables\n    bool isLocked; //lock contract in case shit happens\n    address owner; //owner of this contract\n    uint fee = 1; //fee is 1% by default\n\n    //Launchpad variables\n    struct LaunchPadInformation {\n        uint startTimeStamp;\n        uint endTimeStamp;\n        uint acceptancePercentage;\n        uint milestone;\n        uint originalAmountofTokens; //original deposit 1000?\n        uint totalTokens; //1000 - 100 = 900\n        uint pricePerToken;\n        address sender;\n        address tokenAddress;\n        bool paid;\n        uint creditType; //0: Unset, 1: ETH, 2: Token\n    }\n    mapping(uint => LaunchPadInformation) public launchpads;\n    uint public totalLaunchpads = 0;\n    mapping(address => uint) public launchedTokens;\n    uint public minNumberofDays = 10;\n    uint public minimumTokens = 1000;\n    uint public maxNumberofDays = 60;\n\n    struct CreditPerLaunchPad {\n        uint credits;\n        address tokenAddress;\n    }\n\n    mapping(address => CreditPerLaunchPad) userCredits; //user bid money, save it here\n\n\n    //MODIFIERS \n\n    modifier onlyOwner() {\n        require(msg.sender == owner);\n        _;\n    }\n\n    modifier isLock() {\n        require(!isLocked, \"Contract is locked by admin\");\n        _;\n    }\n\n    modifier checkWithdrawType(uint _launchpadId) {\n        require(launchpads[_launchpadId].creditType != 0, \"refund type not set yet!\");\n        _;\n    }\n\n    //event\n\n    event DepositToken(uint256 _startTime, uint256 _numOfDays, uint _acceptedPercentage, uint _pricePerToken, uint _totalTokens, address _tokenAddress);\n    event changeMaxDays(uint _numOfDays);\n    event changeMinDays(uint _numOfDays);\n    event changeTokens(uint _minimumTokens);\n\n    //CONSTRUCTOR\n\n    constructor(bool _isLocked) {\n        owner = msg.sender;\n        isLocked = _isLocked;\n    }\n\n    /// DEVELOPER DEPOSIT\n\n    function launchMyToken(uint256 _startTime, uint256 _numOfDays, uint _acceptedPercentage, uint _pricePerToken, uint _totalTokens, address _tokenAddress) public payable isLock {\n\n        // @front-end should handle the conversion from date to Unix timestamp\n        // @front-end need to handle price decimal conversion, eg. 1000 = 0.001 ETH\n        // @front-end need to handle approval https://ethereum.stackexchange.com/a/112191\n\n        //verify time logic\n        if (_startTime < block.timestamp){\n            //default start now unless specified otherwise\n            _startTime = block.timestamp;\n        }\n        require(_numOfDays >= minNumberofDays, \"too short\");\n        require(_numOfDays <= maxNumberofDays, \"Whoops, can't be that long\");\n        uint _endTimeStamp = block.timestamp + (_numOfDays * 1 days);\n        require(_endTimeStamp >= _startTime, \"something is really wrong here\");\n\n        //verify percentage rate\n        require(_acceptedPercentage >= 50, \"Must be over 50% acceptance\");\n        require(_acceptedPercentage <= 100, \"Must be less than 100% acceptance\");\n\n        //verify existing launchpad for specifc token address\n        require(launchedTokens[_tokenAddress] == 0, \"This account has an existing launchpad\");\n\n        //verify minimum tokens\n        require(_totalTokens >= minimumTokens, \"Need more tokens to process\");\n\n        //verify fees\n        uint protocolFee = calculateFee(_totalTokens);\n        require(msg.value >= protocolFee, \"Not enough fees paid\");\n\n        //verify _pricePerToken, limit 1 to 10**18, hence we can only accept 18 decimals contract\n        require(_pricePerToken >= 1, \"max 1 ether per token\");\n        require(_pricePerToken <= 1 ether, \"you exceeded minimum _pricePerToken\");\n\n        //calculate required acceptance tokens\n        uint milestoneRequired = calculateAcceptanceRate(_totalTokens, _acceptedPercentage);\n\n        //increment lauchpad id and update values\n        totalLaunchpads += 1;\n        launchedTokens[_tokenAddress] = totalLaunchpads;\n\n        launchpads[totalLaunchpads] = LaunchPadInformation(_startTime, _endTimeStamp, _acceptedPercentage, milestoneRequired, _totalTokens, _totalTokens, _pricePerToken, msg.sender, _tokenAddress, false, 0);\n\n        // fund contract with developer custom ERC20 token\n        ERC20 customToken = ERC20(_tokenAddress);\n        require(customToken.decimals() == 18, \"We only accept 18 decimals tokens\");\n        uint balanceOfUser = customToken.balanceOf(msg.sender);\n        require(balanceOfUser >= _totalTokens, \"Not enough funds in sender balance!\");\n        require(customToken.allowance(msg.sender, address(this)) >= _totalTokens, \"Insuficient allowance\");\n        require(customToken.transferFrom(msg.sender, address(this), _totalTokens), \"Transfer failed\");\n\n        emit DepositToken(_startTime, _numOfDays, _acceptedPercentage, _pricePerToken, _totalTokens, _tokenAddress);\n    }\n\n    //will remove in production\n    function whatTimeNow() public view returns(uint) {\n        return block.timestamp;\n    }\n\n    /// USER OPERATIONS\n    function buyLaunchPadToken(uint _launchpadId) public payable isLock {\n        require(msg.sender != launchpads[_launchpadId].sender, \"developers cannot buy their own token\");\n\n        //check launchpad stuff\n        require(_launchpadId <= totalLaunchpads, \"Invalid launchpadId\");\n        require(block.timestamp > launchpads[_launchpadId].startTimeStamp, \"haven't started yet\");\n        require(block.timestamp <= launchpads[_launchpadId].endTimeStamp, \"it already ended\");\n        require(launchpads[_launchpadId].totalTokens > 0, \"No tokens left\");\n\n        //calculation price stuffs\n        uint launchpadPricePerToken = launchpads[_launchpadId].pricePerToken;\n        uint minimumFunds = 1 ether / launchpadPricePerToken;\n        require(msg.value >= minimumFunds, \"Sent funds not enough to buy tokens!\");\n        uint amountToBuy = msg.value * launchpadPricePerToken;\n        uint tokensToBuy = amountToBuy / (10 ** 18);\n\n        //instead of revert, we can buy highest available and return funds to user\n        require(launchpads[_launchpadId].totalTokens >= tokensToBuy, \"Not enough tokens to buy!\");\n\n        launchpads[_launchpadId].totalTokens = launchpads[_launchpadId].totalTokens - tokensToBuy;\n\n        //increment credit\n        uint oldCredit = userCredits[msg.sender].credits;\n        uint newCredit = oldCredit + tokensToBuy;\n        userCredits[msg.sender] = CreditPerLaunchPad(newCredit, launchpads[_launchpadId].tokenAddress);\n    }\n\n    /// AFTER SALES\n    function settleLaunchPad(uint _launchpadId) public {\n\n        //developers and user run this to take funds\n        require(_launchpadId <= totalLaunchpads, \"Invalid launchpadId\");\n        require(launchpads[_launchpadId].paid == false, \"This launchpad has been settled\");\n\n        //calculate acceptance percentage\n        bool mileStoneAchieved;\n        uint tokensBought = launchpads[_launchpadId].originalAmountofTokens - launchpads[_launchpadId].totalTokens;\n        if (tokensBought >= launchpads[_launchpadId].milestone) {\n            mileStoneAchieved = true;\n        } else {\n            mileStoneAchieved = false;\n        }\n\n        //check launchpad end\n        bool isLaunchPadEnd;\n        if (block.timestamp >= launchpads[_launchpadId].endTimeStamp) {\n            isLaunchPadEnd = true;\n        } else {\n            isLaunchPadEnd = false;\n        }\n\n        //pre launchpad ending time\n        if (!isLaunchPadEnd) {\n            //code would enter this block if launchpad is too popular, ie. tokens are all bought before ending time\n            //user can call this function to start withdraw tokens before ending time, under condition that milestone is achieved\n\n            if (mileStoneAchieved) {\n                //if the tokens are so popular that everyone bought it before ending time, we will close it\n                if (launchpads[_launchpadId].totalTokens == 0) {\n                    successLaunchPad(_launchpadId);\n\n                } else {\n                    //there are still tokens left, so we allow user withdraw first because milestone is achieved\n                    launchpads[_launchpadId].creditType = 2;\n                }\n\n            } else {\n                //if milestone is not achieved yet\n                revert(\"Milestone not achieved yet!\");\n            }\n\n        } else if (isLaunchPadEnd) {\n            //post launchpad ending time\n            //only two possibilites, accepted or not\n\n            if (mileStoneAchieved) {\n                //if milestone achieved\n                successLaunchPad(_launchpadId);\n\n            } else if (!mileStoneAchieved) {\n                //if no one buy their token :(\n                failLaunchPad(_launchpadId);\n            }\n        }\n\n    }\n\n    function successLaunchPad(uint _launchpadId) internal {\n        //set funds paid to true\n        launchpads[_launchpadId].paid = true;\n\n        //allow user withdraw token\n        launchpads[_launchpadId].creditType = 2;\n\n        //calculate ETH amount to be sent\n        uint tokenInEth = 1 ether / launchpads[_launchpadId].pricePerToken;\n        uint amount = launchpads[_launchpadId].originalAmountofTokens * tokenInEth;\n\n        //send ETH to dev\n        (bool sent, ) = launchpads[_launchpadId].sender.call{value: amount}(\"\");\n        require(sent, \"Failed to send Ether\");\n    }\n\n    function failLaunchPad(uint _launchpadId) internal {\n        //set funds paid to true\n        launchpads[_launchpadId].paid = true;\n\n        //allow user withdraw eth\n        launchpads[_launchpadId].creditType = 1;\n\n        //calculate token to be sent\n        ERC20 customToken = ERC20(launchpads[_launchpadId].tokenAddress);\n        uint amount = launchpads[_launchpadId].originalAmountofTokens;\n\n        //send token to dev\n        require(customToken.transfer(launchpads[_launchpadId].sender, amount), \"unable to send funds to dev!\");\n    }\n\n    function withdrawCredits(uint _launchPadId) public checkWithdrawType(_launchPadId) {\n        //NOTE: all verifications are done in settleLaunchPad, hence a modifier to prevent bad stuff happen\n        // get launchpads address from struct\n        uint amount = userCredits[msg.sender].credits;\n\n        require(_launchPadId <= totalLaunchpads, \"Invalid launchpadId\");\n        require(amount != 0, \"nothing to withdraw\");\n        require(address(this).balance >= amount, \"not enough balance to withdraw\");\n\n        userCredits[msg.sender].credits = 0;\n\n        if (launchpads[_launchPadId].creditType == 1){\n            //user withdraw ETH\n            (bool sent, ) = msg.sender.call {value: amount}(\"\");\n            require(sent, \"Failed to send Ether\");\n        } else if ((launchpads[_launchPadId].creditType == 2)){\n            //user withdraw token\n            ERC20 customToken = ERC20(launchpads[_launchPadId].tokenAddress);\n            require(customToken.transfer(msg.sender, amount), \"unable to send money\");\n        }   \n    }\n    \n    //ADMIN OPERATIONS\n    function changeMaxNumOfDays(uint _numOfDays) public onlyOwner {\n        require(_numOfDays >= minNumberofDays, \"Supplied days is smaller than minimum number of days\");\n        maxNumberofDays = _numOfDays;\n\n        emit changeMaxDays(maxNumberofDays);\n    }\n    \n    function changeMinNumOfDays(uint _numOfDays) public onlyOwner {\n        require(_numOfDays <= maxNumberofDays, \"Supplied days is bigger than maximum number of days\");\n        minNumberofDays = _numOfDays;\n\n        emit changeMinDays(minNumberofDays);\n    }\n    \n    function changeMinimumTokens(uint _minimumTokens) public onlyOwner {\n        require(_minimumTokens > 0, \"Cannot set as 0\");\n        minimumTokens = _minimumTokens;\n        \n        emit changeTokens(minimumTokens);\n    }\n\n    function lockContract(bool _isLocked) public onlyOwner {\n        isLocked = _isLocked;\n    }\n\n    function changeFee(uint _fee) public onlyOwner {\n        //check fee rate range from 0%-100%\n        require(_fee > 0, \"Fee must be larger than 0%\");\n        require(_fee < 100, \"Fee must be lower than 100%\");\n        fee = _fee;\n    }\n\n    function changeOwner(address _newOwner) public onlyOwner {\n        require(_newOwner != address(0), \"cannot set to null address\");\n        //TODO: add timelock\n        owner = _newOwner;\n    }\n\n    //add admin remove launchpads todo\n\n    function retrievePriceForToken(uint _launchPadId) public view returns (uint) {\n        // return ETH price for one token \n        // get price per token for supplied _launchPadId\n        return 1 ether / launchpads[_launchPadId].pricePerToken;\n    }\n\n    // get max buy value for available tokens\n    function getMaxBuyValueForToken(uint _launchPadId) public view returns (uint) {\n        uint tokensLeft = launchpads[_launchPadId].totalTokens;\n        require(tokensLeft != 0, \"No tokens left to buy!\");\n        uint pricePerToken = 1 ether / launchpads[_launchPadId].pricePerToken;\n        return tokensLeft * pricePerToken;\n    }\n\n    /// Helper functions\n    function calculateFee(uint _totalTokens) public view returns(uint) {\n        uint totalFee = (_totalTokens * fee) / 100; //multiply before divide\n        return totalFee * 10 ** 16; // refer to README for calculation\n    }\n\n    function calculateAcceptanceRate(uint _totalTokens, uint _acceptedRate) public pure returns(uint) {\n        uint milestone = (_totalTokens * _acceptedRate) / 100;\n        return milestone;\n    }\n\n     function estimateProtocolFee(uint _totalTokens) public view returns (uint) {\n        // Formula: totalTokens * protocolFeePercentage * ethUnit\n        uint _protocolFeePercentage = fee; // 1%\n        uint _ethUnit = 10 ** 16; // 0.001 ETH\n        uint feePercentage = (_totalTokens * _protocolFeePercentage) / 100; \n        uint feeToPaid = feePercentage * _ethUnit;\n        return feeToPaid;\n    }\n\n}\n",
  "sourcePath": "/home/miao/Downloads/solidity/blockchain-assignment/contracts/LaunchPad.sol",
  "compiler": {
    "name": "solc",
    "version": "0.8.9+commit.e5eed63a.Emscripten.clang"
  },
  "schemaVersion": "3.3.2",
  "updatedAt": "2021-12-03T04:07:43.827Z",
  "networkType": "ethereum",
  "devdoc": {
    "kind": "dev",
    "methods": {},
    "version": 1
  },
  "userdoc": {
    "kind": "user",
    "methods": {
      "buyLaunchPadToken(uint256)": {
        "notice": "USER OPERATIONS"
      },
      "calculateFee(uint256)": {
        "notice": "Helper functions"
      },
      "launchMyToken(uint256,uint256,uint256,uint256,uint256,address)": {
        "notice": "DEVELOPER DEPOSIT"
      },
      "settleLaunchPad(uint256)": {
        "notice": "AFTER SALES"
      }
    },
    "version": 1
  }
}