{
  "contractName": "LaunchPad",
  "abi": [
    {
      "inputs": [
        {
          "internalType": "bool",
          "name": "_isLocked",
          "type": "bool"
        }
      ],
      "stateMutability": "nonpayable",
      "type": "constructor"
    },
    {
      "anonymous": false,
      "inputs": [
        {
          "indexed": false,
          "internalType": "uint256",
          "name": "_startTime",
          "type": "uint256"
        },
        {
          "indexed": false,
          "internalType": "uint256",
          "name": "_numOfDays",
          "type": "uint256"
        },
        {
          "indexed": false,
          "internalType": "uint256",
          "name": "_acceptedPercentage",
          "type": "uint256"
        },
        {
          "indexed": false,
          "internalType": "uint256",
          "name": "_pricePerToken",
          "type": "uint256"
        },
        {
          "indexed": false,
          "internalType": "uint256",
          "name": "_totalTokens",
          "type": "uint256"
        },
        {
          "indexed": false,
          "internalType": "address",
          "name": "_tokenAddress",
          "type": "address"
        }
      ],
      "name": "DepositToken",
      "type": "event"
    },
    {
      "anonymous": false,
      "inputs": [
        {
          "indexed": false,
          "internalType": "uint256",
          "name": "_fee",
          "type": "uint256"
        }
      ],
      "name": "changeFeeRate",
      "type": "event"
    },
    {
      "anonymous": false,
      "inputs": [
        {
          "indexed": false,
          "internalType": "uint256",
          "name": "_numOfDays",
          "type": "uint256"
        }
      ],
      "name": "changeMaxDays",
      "type": "event"
    },
    {
      "anonymous": false,
      "inputs": [
        {
          "indexed": false,
          "internalType": "uint256",
          "name": "_numOfDays",
          "type": "uint256"
        }
      ],
      "name": "changeMinDays",
      "type": "event"
    },
    {
      "anonymous": false,
      "inputs": [
        {
          "indexed": false,
          "internalType": "address",
          "name": "_newOwner",
          "type": "address"
        }
      ],
      "name": "changeOwnerAddress",
      "type": "event"
    },
    {
      "anonymous": false,
      "inputs": [
        {
          "indexed": false,
          "internalType": "uint256",
          "name": "_minimumTokens",
          "type": "uint256"
        }
      ],
      "name": "changeTokens",
      "type": "event"
    },
    {
      "anonymous": false,
      "inputs": [
        {
          "indexed": false,
          "internalType": "uint256",
          "name": "amount",
          "type": "uint256"
        }
      ],
      "name": "failedLaunchPad",
      "type": "event"
    },
    {
      "anonymous": false,
      "inputs": [
        {
          "indexed": false,
          "internalType": "uint256",
          "name": "_launchPadId",
          "type": "uint256"
        }
      ],
      "name": "launchPadRemoved",
      "type": "event"
    },
    {
      "anonymous": false,
      "inputs": [
        {
          "indexed": false,
          "internalType": "bool",
          "name": "isLocked",
          "type": "bool"
        }
      ],
      "name": "lock",
      "type": "event"
    },
    {
      "anonymous": false,
      "inputs": [
        {
          "indexed": false,
          "internalType": "uint256",
          "name": "developerProfit",
          "type": "uint256"
        }
      ],
      "name": "succeedLaunchpad",
      "type": "event"
    },
    {
      "inputs": [],
      "name": "fee",
      "outputs": [
        {
          "internalType": "uint256",
          "name": "",
          "type": "uint256"
        }
      ],
      "stateMutability": "view",
      "type": "function",
      "constant": true
    },
    {
      "inputs": [],
      "name": "isLocked",
      "outputs": [
        {
          "internalType": "bool",
          "name": "",
          "type": "bool"
        }
      ],
      "stateMutability": "view",
      "type": "function",
      "constant": true
    },
    {
      "inputs": [
        {
          "internalType": "address",
          "name": "",
          "type": "address"
        }
      ],
      "name": "launchedTokens",
      "outputs": [
        {
          "internalType": "uint256",
          "name": "",
          "type": "uint256"
        }
      ],
      "stateMutability": "view",
      "type": "function",
      "constant": true
    },
    {
      "inputs": [
        {
          "internalType": "uint256",
          "name": "",
          "type": "uint256"
        }
      ],
      "name": "launchpads",
      "outputs": [
        {
          "internalType": "uint256",
          "name": "startTimeStamp",
          "type": "uint256"
        },
        {
          "internalType": "uint256",
          "name": "endTimeStamp",
          "type": "uint256"
        },
        {
          "internalType": "uint256",
          "name": "acceptancePercentage",
          "type": "uint256"
        },
        {
          "internalType": "uint256",
          "name": "milestone",
          "type": "uint256"
        },
        {
          "internalType": "uint256",
          "name": "originalAmountofTokens",
          "type": "uint256"
        },
        {
          "internalType": "uint256",
          "name": "totalTokens",
          "type": "uint256"
        },
        {
          "internalType": "uint256",
          "name": "pricePerToken",
          "type": "uint256"
        },
        {
          "internalType": "address",
          "name": "sender",
          "type": "address"
        },
        {
          "internalType": "address",
          "name": "tokenAddress",
          "type": "address"
        },
        {
          "internalType": "bool",
          "name": "paid",
          "type": "bool"
        },
        {
          "internalType": "uint256",
          "name": "creditType",
          "type": "uint256"
        }
      ],
      "stateMutability": "view",
      "type": "function",
      "constant": true
    },
    {
      "inputs": [],
      "name": "maxNumberofDays",
      "outputs": [
        {
          "internalType": "uint256",
          "name": "",
          "type": "uint256"
        }
      ],
      "stateMutability": "view",
      "type": "function",
      "constant": true
    },
    {
      "inputs": [],
      "name": "minNumberofDays",
      "outputs": [
        {
          "internalType": "uint256",
          "name": "",
          "type": "uint256"
        }
      ],
      "stateMutability": "view",
      "type": "function",
      "constant": true
    },
    {
      "inputs": [],
      "name": "minimumTokens",
      "outputs": [
        {
          "internalType": "uint256",
          "name": "",
          "type": "uint256"
        }
      ],
      "stateMutability": "view",
      "type": "function",
      "constant": true
    },
    {
      "inputs": [],
      "name": "owner",
      "outputs": [
        {
          "internalType": "address",
          "name": "",
          "type": "address"
        }
      ],
      "stateMutability": "view",
      "type": "function",
      "constant": true
    },
    {
      "inputs": [],
      "name": "totalLaunchpads",
      "outputs": [
        {
          "internalType": "uint256",
          "name": "",
          "type": "uint256"
        }
      ],
      "stateMutability": "view",
      "type": "function",
      "constant": true
    },
    {
      "inputs": [
        {
          "internalType": "address",
          "name": "",
          "type": "address"
        }
      ],
      "name": "userCredits",
      "outputs": [
        {
          "internalType": "uint256",
          "name": "credits",
          "type": "uint256"
        },
        {
          "internalType": "address",
          "name": "tokenAddress",
          "type": "address"
        },
        {
          "internalType": "uint256",
          "name": "weiSent",
          "type": "uint256"
        }
      ],
      "stateMutability": "view",
      "type": "function",
      "constant": true
    },
    {
      "inputs": [
        {
          "internalType": "uint256",
          "name": "_startTime",
          "type": "uint256"
        },
        {
          "internalType": "uint256",
          "name": "_numOfDays",
          "type": "uint256"
        },
        {
          "internalType": "uint256",
          "name": "_acceptedPercentage",
          "type": "uint256"
        },
        {
          "internalType": "uint256",
          "name": "_pricePerToken",
          "type": "uint256"
        },
        {
          "internalType": "uint256",
          "name": "_totalTokens",
          "type": "uint256"
        },
        {
          "internalType": "address",
          "name": "_tokenAddress",
          "type": "address"
        }
      ],
      "name": "launchMyToken",
      "outputs": [],
      "stateMutability": "payable",
      "type": "function",
      "payable": true
    },
    {
      "inputs": [
        {
          "internalType": "uint256",
          "name": "_launchpadId",
          "type": "uint256"
        }
      ],
      "name": "buyLaunchPadToken",
      "outputs": [],
      "stateMutability": "payable",
      "type": "function",
      "payable": true
    },
    {
      "inputs": [
        {
          "internalType": "uint256",
          "name": "_launchpadId",
          "type": "uint256"
        }
      ],
      "name": "settleLaunchPad",
      "outputs": [],
      "stateMutability": "nonpayable",
      "type": "function"
    },
    {
      "inputs": [
        {
          "internalType": "uint256",
          "name": "_launchPadId",
          "type": "uint256"
        }
      ],
      "name": "withdrawCredits",
      "outputs": [],
      "stateMutability": "nonpayable",
      "type": "function"
    },
    {
      "inputs": [
        {
          "internalType": "uint256",
          "name": "_numOfDays",
          "type": "uint256"
        }
      ],
      "name": "changeMaxNumOfDays",
      "outputs": [],
      "stateMutability": "nonpayable",
      "type": "function"
    },
    {
      "inputs": [
        {
          "internalType": "uint256",
          "name": "_numOfDays",
          "type": "uint256"
        }
      ],
      "name": "changeMinNumOfDays",
      "outputs": [],
      "stateMutability": "nonpayable",
      "type": "function"
    },
    {
      "inputs": [
        {
          "internalType": "uint256",
          "name": "_minimumTokens",
          "type": "uint256"
        }
      ],
      "name": "changeMinimumTokens",
      "outputs": [],
      "stateMutability": "nonpayable",
      "type": "function"
    },
    {
      "inputs": [
        {
          "internalType": "bool",
          "name": "_isLocked",
          "type": "bool"
        }
      ],
      "name": "lockContract",
      "outputs": [],
      "stateMutability": "nonpayable",
      "type": "function"
    },
    {
      "inputs": [
        {
          "internalType": "uint256",
          "name": "_fee",
          "type": "uint256"
        }
      ],
      "name": "changeFee",
      "outputs": [],
      "stateMutability": "nonpayable",
      "type": "function"
    },
    {
      "inputs": [
        {
          "internalType": "address",
          "name": "_newOwner",
          "type": "address"
        }
      ],
      "name": "changeOwner",
      "outputs": [],
      "stateMutability": "nonpayable",
      "type": "function"
    },
    {
      "inputs": [
        {
          "internalType": "uint256",
          "name": "_launchpadId",
          "type": "uint256"
        }
      ],
      "name": "removeLaunchPad",
      "outputs": [],
      "stateMutability": "nonpayable",
      "type": "function"
    },
    {
      "inputs": [
        {
          "internalType": "uint256",
          "name": "_launchpadId",
          "type": "uint256"
        }
      ],
      "name": "retrieveAdditionalTokens",
      "outputs": [],
      "stateMutability": "nonpayable",
      "type": "function"
    },
    {
      "inputs": [
        {
          "internalType": "uint256",
          "name": "_launchPadId",
          "type": "uint256"
        }
      ],
      "name": "retrievePriceForToken",
      "outputs": [
        {
          "internalType": "uint256",
          "name": "",
          "type": "uint256"
        }
      ],
      "stateMutability": "view",
      "type": "function",
      "constant": true
    },
    {
      "inputs": [
        {
          "internalType": "uint256",
          "name": "_launchPadId",
          "type": "uint256"
        }
      ],
      "name": "getMaxBuyValueForToken",
      "outputs": [
        {
          "internalType": "uint256",
          "name": "",
          "type": "uint256"
        }
      ],
      "stateMutability": "view",
      "type": "function",
      "constant": true
    },
    {
      "inputs": [
        {
          "internalType": "uint256",
          "name": "_totalTokens",
          "type": "uint256"
        }
      ],
      "name": "calculateFee",
      "outputs": [
        {
          "internalType": "uint256",
          "name": "",
          "type": "uint256"
        }
      ],
      "stateMutability": "view",
      "type": "function",
      "constant": true
    },
    {
      "inputs": [
        {
          "internalType": "uint256",
          "name": "_totalTokens",
          "type": "uint256"
        },
        {
          "internalType": "uint256",
          "name": "_acceptedRate",
          "type": "uint256"
        }
      ],
      "name": "calculateAcceptanceRate",
      "outputs": [
        {
          "internalType": "uint256",
          "name": "",
          "type": "uint256"
        }
      ],
      "stateMutability": "pure",
      "type": "function",
      "constant": true
    },
    {
      "inputs": [
        {
          "internalType": "uint256",
          "name": "_totalTokens",
          "type": "uint256"
        }
      ],
      "name": "estimateProtocolFee",
      "outputs": [
        {
          "internalType": "uint256",
          "name": "",
          "type": "uint256"
        }
      ],
      "stateMutability": "view",
      "type": "function",
      "constant": true
    }
  ],
  "bytecode": "0x6080604052600180556000600355600a6005556103e8600655603c6007553480156200002a57600080fd5b50604051620049c0380380620049c08339818101604052810190620000509190620000f3565b33600060016101000a81548173ffffffffffffffffffffffffffffffffffffffff021916908373ffffffffffffffffffffffffffffffffffffffff160217905550806000806101000a81548160ff0219169083151502179055505062000125565b600080fd5b60008115159050919050565b620000cd81620000b6565b8114620000d957600080fd5b50565b600081519050620000ed81620000c2565b92915050565b6000602082840312156200010c576200010b620000b1565b5b60006200011c84828501620000dc565b91505092915050565b61488b80620001356000396000f3fe60806040526004361061019c5760003560e01c80638da5cb5b116100ec578063c06ca1dd1161008a578063d84244da11610064578063d84244da146105d8578063ddca3f4314610615578063e8b90cc614610640578063fa5a7361146106695761019c565b8063c06ca1dd14610547578063c3bad48414610572578063cfc895cb1461059b5761019c565b8063a6f9dae1116100c6578063a6f9dae114610479578063aebc47f3146104a2578063bc96bc27146104df578063bfeab6e51461050a5761019c565b80638da5cb5b146103e657806399a5d74714610411578063a4e2d6341461044e5761019c565b80635bbfdb0c116101595780636a1db1bf116101335780636a1db1bf1461034f5780636c1e4fb614610378578063897cceee146103945780638b05128c146103bd5761019c565b80635bbfdb0c146102b65780635be5f0bc146102df578063677ef683146103265761019c565b8063025302c8146101a157806309ed1782146101de57806320babb921461020757806321ecdd32146102465780634056f8a81461026f5780634f3180451461029a575b600080fd5b3480156101ad57600080fd5b506101c860048036038101906101c39190612e5f565b610694565b6040516101d59190612eae565b60405180910390f35b3480156101ea57600080fd5b5061020560048036038101906102009190612ec9565b6106bb565b005b34801561021357600080fd5b5061022e60048036038101906102299190612f54565b610af9565b60405161023d93929190612f90565b60405180910390f35b34801561025257600080fd5b5061026d60048036038101906102689190612ec9565b610b43565b005b34801561027b57600080fd5b50610284610c5b565b6040516102919190612eae565b60405180910390f35b6102b460048036038101906102af9190612fc7565b610c61565b005b3480156102c257600080fd5b506102dd60048036038101906102d89190612ec9565b611558565b005b3480156102eb57600080fd5b5061030660048036038101906103019190612ec9565b611670565b60405161031d9b9a9998979695949392919061306f565b60405180910390f35b34801561033257600080fd5b5061034d60048036038101906103489190612ec9565b611717565b005b34801561035b57600080fd5b5061037660048036038101906103719190612ec9565b611926565b005b610392600480360381019061038d9190612ec9565b611a7f565b005b3480156103a057600080fd5b506103bb60048036038101906103b69190613146565b611fb2565b005b3480156103c957600080fd5b506103e460048036038101906103df9190612ec9565b612095565b005b3480156103f257600080fd5b506103fb612408565b6040516104089190613173565b60405180910390f35b34801561041d57600080fd5b5061043860048036038101906104339190612ec9565b61242e565b6040516104459190612eae565b60405180910390f35b34801561045a57600080fd5b50610463612468565b604051610470919061318e565b60405180910390f35b34801561048557600080fd5b506104a0600480360381019061049b9190612f54565b612479565b005b3480156104ae57600080fd5b506104c960048036038101906104c49190612ec9565b612616565b6040516104d69190612eae565b60405180910390f35b3480156104eb57600080fd5b506104f4612662565b6040516105019190612eae565b60405180910390f35b34801561051657600080fd5b50610531600480360381019061052c9190612f54565b612668565b60405161053e9190612eae565b60405180910390f35b34801561055357600080fd5b5061055c612680565b6040516105699190612eae565b60405180910390f35b34801561057e57600080fd5b5061059960048036038101906105949190612ec9565b612686565b005b3480156105a757600080fd5b506105c260048036038101906105bd9190612ec9565b612821565b6040516105cf9190612eae565b60405180910390f35b3480156105e457600080fd5b506105ff60048036038101906105fa9190612ec9565b6128c4565b60405161060c9190612eae565b60405180910390f35b34801561062157600080fd5b5061062a6128f7565b6040516106379190612eae565b60405180910390f35b34801561064c57600080fd5b5061066760048036038101906106629190612ec9565b6128fd565b005b34801561067557600080fd5b5061067e612a13565b60405161068b9190612eae565b60405180910390f35b600080606483856106a591906131d8565b6106af9190613261565b90508091505092915050565b80600060026000838152602001908152602001600020600901541415610716576040517f08c379a000000000000000000000000000000000000000000000000000000000815260040161070d906132ef565b60405180910390fd5b6000600860003373ffffffffffffffffffffffffffffffffffffffff1673ffffffffffffffffffffffffffffffffffffffff1681526020019081526020016000206000015490506003548311156107a2576040517f08c379a00000000000000000000000000000000000000000000000000000000081526004016107999061335b565b60405180910390fd5b60008114156107e6576040517f08c379a00000000000000000000000000000000000000000000000000000000081526004016107dd906133c7565b60405180910390fd5b80471015610829576040517f08c379a000000000000000000000000000000000000000000000000000000000815260040161082090613433565b60405180910390fd5b6000600860003373ffffffffffffffffffffffffffffffffffffffff1673ffffffffffffffffffffffffffffffffffffffff168152602001908152602001600020600001819055506000600860003373ffffffffffffffffffffffffffffffffffffffff1673ffffffffffffffffffffffffffffffffffffffff168152602001908152602001600020600201819055506001600260008581526020019081526020016000206009015414156109cc5760003373ffffffffffffffffffffffffffffffffffffffff16600860003373ffffffffffffffffffffffffffffffffffffffff1673ffffffffffffffffffffffffffffffffffffffff1681526020019081526020016000206002015460405161094090613484565b60006040518083038185875af1925050503d806000811461097d576040519150601f19603f3d011682016040523d82523d6000602084013e610982565b606091505b50509050806109c6576040517f08c379a00000000000000000000000000000000000000000000000000000000081526004016109bd906134e5565b60405180910390fd5b50610af4565b6002806000858152602001908152602001600020600901541415610af35760006002600085815260200190815260200160002060080160009054906101000a900473ffffffffffffffffffffffffffffffffffffffff1690508073ffffffffffffffffffffffffffffffffffffffff1663a9059cbb33846040518363ffffffff1660e01b8152600401610a60929190613505565b602060405180830381600087803b158015610a7a57600080fd5b505af1158015610a8e573d6000803e3d6000fd5b505050506040513d601f19601f82011682018060405250810190610ab29190613543565b610af1576040517f08c379a0000000000000000000000000000000000000000000000000000000008152600401610ae8906135bc565b60405180910390fd5b505b5b505050565b60086020528060005260406000206000915090508060000154908060010160009054906101000a900473ffffffffffffffffffffffffffffffffffffffff16908060020154905083565b600060019054906101000a900473ffffffffffffffffffffffffffffffffffffffff1673ffffffffffffffffffffffffffffffffffffffff163373ffffffffffffffffffffffffffffffffffffffff1614610bd3576040517f08c379a0000000000000000000000000000000000000000000000000000000008152600401610bca90613628565b60405180910390fd5b600554811015610c18576040517f08c379a0000000000000000000000000000000000000000000000000000000008152600401610c0f906136ba565b60405180910390fd5b806007819055507f0b26d58d207871fa7b6481a3e958baf2fc3693e42739e543a1b5cde6c8a7f316600754604051610c509190612eae565b60405180910390a150565b60065481565b60008054906101000a900460ff1615610caf576040517f08c379a0000000000000000000000000000000000000000000000000000000008152600401610ca690613726565b60405180910390fd5b42861015610cbb574295505b600554851015610d00576040517f08c379a0000000000000000000000000000000000000000000000000000000008152600401610cf790613792565b60405180910390fd5b600754851115610d45576040517f08c379a0000000000000000000000000000000000000000000000000000000008152600401610d3c906137fe565b60405180910390fd5b60006201518086610d5691906131d8565b42610d61919061381e565b905086811015610da6576040517f08c379a0000000000000000000000000000000000000000000000000000000008152600401610d9d906138c0565b60405180910390fd5b6032851015610dea576040517f08c379a0000000000000000000000000000000000000000000000000000000008152600401610de19061392c565b60405180910390fd5b6064851115610e2e576040517f08c379a0000000000000000000000000000000000000000000000000000000008152600401610e25906139be565b60405180910390fd5b600654831015610e73576040517f08c379a0000000000000000000000000000000000000000000000000000000008152600401610e6a90613a2a565b60405180910390fd5b6000610e7e8461242e565b905080341015610ec3576040517f08c379a0000000000000000000000000000000000000000000000000000000008152600401610eba90613a96565b60405180910390fd5b6001851015610f07576040517f08c379a0000000000000000000000000000000000000000000000000000000008152600401610efe90613b02565b60405180910390fd5b670de0b6b3a7640000851115610f52576040517f08c379a0000000000000000000000000000000000000000000000000000000008152600401610f4990613b94565b60405180910390fd5b6000600460008573ffffffffffffffffffffffffffffffffffffffff1673ffffffffffffffffffffffffffffffffffffffff1681526020019081526020016000205414610fd4576040517f08c379a0000000000000000000000000000000000000000000000000000000008152600401610fcb90613c26565b60405180910390fd5b6000610fe08588610694565b9050600160036000828254610ff5919061381e565b92505081905550600354600460008673ffffffffffffffffffffffffffffffffffffffff1673ffffffffffffffffffffffffffffffffffffffff168152602001908152602001600020819055506040518061016001604052808a81526020018481526020018881526020018281526020018681526020018681526020018781526020013373ffffffffffffffffffffffffffffffffffffffff1681526020018573ffffffffffffffffffffffffffffffffffffffff1681526020016000151581526020016000815250600260006003548152602001908152602001600020600082015181600001556020820151816001015560408201518160020155606082015181600301556080820151816004015560a0820151816005015560c0820151816006015560e08201518160070160006101000a81548173ffffffffffffffffffffffffffffffffffffffff021916908373ffffffffffffffffffffffffffffffffffffffff1602179055506101008201518160080160006101000a81548173ffffffffffffffffffffffffffffffffffffffff021916908373ffffffffffffffffffffffffffffffffffffffff1602179055506101208201518160080160146101000a81548160ff0219169083151502179055506101408201518160090155905050600084905060128173ffffffffffffffffffffffffffffffffffffffff1663313ce5676040518163ffffffff1660e01b815260040160206040518083038186803b15801561122457600080fd5b505afa158015611238573d6000803e3d6000fd5b505050506040513d601f19601f8201168201806040525081019061125c9190613c7f565b60ff161461129f576040517f08c379a000000000000000000000000000000000000000000000000000000000815260040161129690613d1e565b60405180910390fd5b60008173ffffffffffffffffffffffffffffffffffffffff166370a08231336040518263ffffffff1660e01b81526004016112da9190613173565b60206040518083038186803b1580156112f257600080fd5b505afa158015611306573d6000803e3d6000fd5b505050506040513d601f19601f8201168201806040525081019061132a9190613d53565b90508681101561136f576040517f08c379a000000000000000000000000000000000000000000000000000000000815260040161136690613df2565b60405180910390fd5b868273ffffffffffffffffffffffffffffffffffffffff1663dd62ed3e33306040518363ffffffff1660e01b81526004016113ab929190613e12565b60206040518083038186803b1580156113c357600080fd5b505afa1580156113d7573d6000803e3d6000fd5b505050506040513d601f19601f820116820180604052508101906113fb9190613d53565b101561143c576040517f08c379a000000000000000000000000000000000000000000000000000000000815260040161143390613e87565b60405180910390fd5b8173ffffffffffffffffffffffffffffffffffffffff166323b872dd33308a6040518463ffffffff1660e01b815260040161147993929190613ea7565b602060405180830381600087803b15801561149357600080fd5b505af11580156114a7573d6000803e3d6000fd5b505050506040513d601f19601f820116820180604052508101906114cb9190613543565b61150a576040517f08c379a000000000000000000000000000000000000000000000000000000000815260040161150190613f2a565b60405180910390fd5b7ff349a5561a5b5b67c42c6d238c581ea38682ff0909602bc11356e94e231c872d8b8b8b8b8b8b60405161154396959493929190613f4a565b60405180910390a15050505050505050505050565b600060019054906101000a900473ffffffffffffffffffffffffffffffffffffffff1673ffffffffffffffffffffffffffffffffffffffff163373ffffffffffffffffffffffffffffffffffffffff16146115e8576040517f08c379a00000000000000000000000000000000000000000000000000000000081526004016115df90613628565b60405180910390fd5b60075481111561162d576040517f08c379a00000000000000000000000000000000000000000000000000000000081526004016116249061401d565b60405180910390fd5b806005819055507f42cbadd085735291b6a01da1498f497e5d86a74f8927dace693bf71c0606cbf66005546040516116659190612eae565b60405180910390a150565b60026020528060005260406000206000915090508060000154908060010154908060020154908060030154908060040154908060050154908060060154908060070160009054906101000a900473ffffffffffffffffffffffffffffffffffffffff16908060080160009054906101000a900473ffffffffffffffffffffffffffffffffffffffff16908060080160149054906101000a900460ff1690806009015490508b565b60035481111561175c576040517f08c379a00000000000000000000000000000000000000000000000000000000081526004016117539061335b565b60405180910390fd5b600015156002600083815260200190815260200160002060080160149054906101000a900460ff161515146117c6576040517f08c379a00000000000000000000000000000000000000000000000000000000081526004016117bd90614089565b60405180910390fd5b6000806002600084815260200190815260200160002060050154600260008581526020019081526020016000206004015461180191906140a9565b905060026000848152602001908152602001600020600301548110611829576001915061182e565b600091505b600060026000858152602001908152602001600020600101544210611856576001905061185b565b600090505b806118f45782156118b4576000600260008681526020019081526020016000206005015414156118935761188e84612a19565b6118af565b6002806000868152602001908152602001600020600901819055505b6118ef565b6040517f08c379a00000000000000000000000000000000000000000000000000000000081526004016118e690614129565b60405180910390fd5b611920565b801561191f57821561190e5761190984612a19565b61191e565b8261191d5761191c84612c45565b5b5b5b5b50505050565b600060019054906101000a900473ffffffffffffffffffffffffffffffffffffffff1673ffffffffffffffffffffffffffffffffffffffff163373ffffffffffffffffffffffffffffffffffffffff16146119b6576040517f08c379a00000000000000000000000000000000000000000000000000000000081526004016119ad90613628565b60405180910390fd5b600081116119f9576040517f08c379a00000000000000000000000000000000000000000000000000000000081526004016119f090614195565b60405180910390fd5b60648110611a3c576040517f08c379a0000000000000000000000000000000000000000000000000000000008152600401611a3390614201565b60405180910390fd5b806001819055507faffca932ebd399ff715901235e07c03dbdc715c86ca349b8ebb694998571341c600154604051611a749190612eae565b60405180910390a150565b60008054906101000a900460ff1615611acd576040517f08c379a0000000000000000000000000000000000000000000000000000000008152600401611ac490613726565b60405180910390fd5b6002600082815260200190815260200160002060070160009054906101000a900473ffffffffffffffffffffffffffffffffffffffff1673ffffffffffffffffffffffffffffffffffffffff163373ffffffffffffffffffffffffffffffffffffffff161415611b72576040517f08c379a0000000000000000000000000000000000000000000000000000000008152600401611b6990614293565b60405180910390fd5b600354811115611bb7576040517f08c379a0000000000000000000000000000000000000000000000000000000008152600401611bae9061335b565b60405180910390fd5b6002600082815260200190815260200160002060000154421015611c10576040517f08c379a0000000000000000000000000000000000000000000000000000000008152600401611c07906142ff565b60405180910390fd5b6002600082815260200190815260200160002060010154421115611c69576040517f08c379a0000000000000000000000000000000000000000000000000000000008152600401611c609061436b565b60405180910390fd5b6000600260008381526020019081526020016000206005015411611cc2576040517f08c379a0000000000000000000000000000000000000000000000000000000008152600401611cb9906143d7565b60405180910390fd5b600060026000838152602001908152602001600020600601549050600081670de0b6b3a7640000611cf39190613261565b905080341015611d38576040517f08c379a0000000000000000000000000000000000000000000000000000000008152600401611d2f90614469565b60405180910390fd5b60008234611d4691906131d8565b90506000670de0b6b3a764000082611d5e9190613261565b90508060026000878152602001908152602001600020600501541015611db9576040517f08c379a0000000000000000000000000000000000000000000000000000000008152600401611db0906144d5565b60405180910390fd5b806002600087815260200190815260200160002060050154611ddb91906140a9565b60026000878152602001908152602001600020600501819055506000600860003373ffffffffffffffffffffffffffffffffffffffff1673ffffffffffffffffffffffffffffffffffffffff16815260200190815260200160002060000154905060008282611e4a919061381e565b90506000600860003373ffffffffffffffffffffffffffffffffffffffff1673ffffffffffffffffffffffffffffffffffffffff16815260200190815260200160002060020154905060003482611ea1919061381e565b90506040518060600160405280848152602001600260008c815260200190815260200160002060080160009054906101000a900473ffffffffffffffffffffffffffffffffffffffff1673ffffffffffffffffffffffffffffffffffffffff16815260200182815250600860003373ffffffffffffffffffffffffffffffffffffffff1673ffffffffffffffffffffffffffffffffffffffff1681526020019081526020016000206000820151816000015560208201518160010160006101000a81548173ffffffffffffffffffffffffffffffffffffffff021916908373ffffffffffffffffffffffffffffffffffffffff16021790555060408201518160020155905050505050505050505050565b600060019054906101000a900473ffffffffffffffffffffffffffffffffffffffff1673ffffffffffffffffffffffffffffffffffffffff163373ffffffffffffffffffffffffffffffffffffffff1614612042576040517f08c379a000000000000000000000000000000000000000000000000000000000815260040161203990613628565b60405180910390fd5b806000806101000a81548160ff0219169083151502179055507f0dd0a042e1630703eda5eb9a0edf61941c243230fc3c6900f0c5db3b0129ed2a8160405161208a919061318e565b60405180910390a150565b600060019054906101000a900473ffffffffffffffffffffffffffffffffffffffff1673ffffffffffffffffffffffffffffffffffffffff163373ffffffffffffffffffffffffffffffffffffffff1614612125576040517f08c379a000000000000000000000000000000000000000000000000000000000815260040161211c90613628565b60405180910390fd5b6002600082815260200190815260200160002060080160149054906101000a900460ff16612188576040517f08c379a000000000000000000000000000000000000000000000000000000000815260040161217f90614541565b60405180910390fd5b60006002600083815260200190815260200160002060080160009054906101000a900473ffffffffffffffffffffffffffffffffffffffff16905060008173ffffffffffffffffffffffffffffffffffffffff166370a08231306040518263ffffffff1660e01b81526004016121fe9190613173565b60206040518083038186803b15801561221657600080fd5b505afa15801561222a573d6000803e3d6000fd5b505050506040513d601f19601f8201168201806040525081019061224e9190613d53565b1161228e576040517f08c379a0000000000000000000000000000000000000000000000000000000008152600401612285906145ad565b60405180910390fd5b8073ffffffffffffffffffffffffffffffffffffffff1663a9059cbb600060019054906101000a900473ffffffffffffffffffffffffffffffffffffffff168373ffffffffffffffffffffffffffffffffffffffff166370a08231306040518263ffffffff1660e01b81526004016123069190613173565b60206040518083038186803b15801561231e57600080fd5b505afa158015612332573d6000803e3d6000fd5b505050506040513d601f19601f820116820180604052508101906123569190613d53565b6040518363ffffffff1660e01b8152600401612373929190613505565b602060405180830381600087803b15801561238d57600080fd5b505af11580156123a1573d6000803e3d6000fd5b505050506040513d601f19601f820116820180604052508101906123c59190613543565b612404576040517f08c379a00000000000000000000000000000000000000000000000000000000081526004016123fb90614619565b60405180910390fd5b5050565b600060019054906101000a900473ffffffffffffffffffffffffffffffffffffffff1681565b60008060646001548461244191906131d8565b61244b9190613261565b9050662386f26fc100008161246091906131d8565b915050919050565b60008054906101000a900460ff1681565b600060019054906101000a900473ffffffffffffffffffffffffffffffffffffffff1673ffffffffffffffffffffffffffffffffffffffff163373ffffffffffffffffffffffffffffffffffffffff1614612509576040517f08c379a000000000000000000000000000000000000000000000000000000000815260040161250090613628565b60405180910390fd5b600073ffffffffffffffffffffffffffffffffffffffff168173ffffffffffffffffffffffffffffffffffffffff161415612579576040517f08c379a000000000000000000000000000000000000000000000000000000000815260040161257090614685565b60405180910390fd5b80600060016101000a81548173ffffffffffffffffffffffffffffffffffffffff021916908373ffffffffffffffffffffffffffffffffffffffff1602179055507f85eac05f03faa5c47ec6eadf66d704601022485dce8f555a7a1263394c956eb8600060019054906101000a900473ffffffffffffffffffffffffffffffffffffffff1660405161260b9190613173565b60405180910390a150565b60008060015490506000662386f26fc10000905060006064838661263a91906131d8565b6126449190613261565b90506000828261265491906131d8565b905080945050505050919050565b60075481565b60046020528060005260406000206000915090505481565b60035481565b600060019054906101000a900473ffffffffffffffffffffffffffffffffffffffff1673ffffffffffffffffffffffffffffffffffffffff163373ffffffffffffffffffffffffffffffffffffffff1614612716576040517f08c379a000000000000000000000000000000000000000000000000000000000815260040161270d90613628565b60405180910390fd5b600015156002600083815260200190815260200160002060080160149054906101000a900460ff16151514612780576040517f08c379a0000000000000000000000000000000000000000000000000000000008152600401612777906146f1565b60405180910390fd5b6000600260008381526020019081526020016000206005018190555060016002600083815260200190815260200160002060080160146101000a81548160ff021916908315150217905550600160026000838152602001908152602001600020600901819055507fa5e9be804d90d20ba29edac3b8a9b54e7e35903a2a53db746e2ecfe824917fde816040516128169190612eae565b60405180910390a150565b600080600260008481526020019081526020016000206005015490506000811415612881576040517f08c379a00000000000000000000000000000000000000000000000000000000081526004016128789061475d565b60405180910390fd5b60006002600085815260200190815260200160002060060154670de0b6b3a76400006128ad9190613261565b905080826128bb91906131d8565b92505050919050565b60006002600083815260200190815260200160002060060154670de0b6b3a76400006128f09190613261565b9050919050565b60015481565b600060019054906101000a900473ffffffffffffffffffffffffffffffffffffffff1673ffffffffffffffffffffffffffffffffffffffff163373ffffffffffffffffffffffffffffffffffffffff161461298d576040517f08c379a000000000000000000000000000000000000000000000000000000000815260040161298490613628565b60405180910390fd5b600081116129d0576040517f08c379a00000000000000000000000000000000000000000000000000000000081526004016129c7906147c9565b60405180910390fd5b806006819055507f328db17120caa4c283f2086572f767f14d471acf104900d1ee3a2ad85f184d1a600654604051612a089190612eae565b60405180910390a150565b60055481565b60016002600083815260200190815260200160002060080160146101000a81548160ff02191690831515021790555060028060008381526020019081526020016000206009018190555060006002600083815260200190815260200160002060060154670de0b6b3a7640000612a8f9190613261565b905060008060026000858152602001908152602001600020600501541115612b0157600060026000858152602001908152602001600020600501546002600086815260200190815260200160002060040154612aeb91906140a9565b90508281612af991906131d8565b915050612b26565b816002600085815260200190815260200160002060040154612b2391906131d8565b90505b60006002600085815260200190815260200160002060070160009054906101000a900473ffffffffffffffffffffffffffffffffffffffff1673ffffffffffffffffffffffffffffffffffffffff1682604051612b8290613484565b60006040518083038185875af1925050503d8060008114612bbf576040519150601f19603f3d011682016040523d82523d6000602084013e612bc4565b606091505b5050905080612c08576040517f08c379a0000000000000000000000000000000000000000000000000000000008152600401612bff90614835565b60405180910390fd5b7fa2f987465605050caa2fa2eb7b6d8fdacd08377a37adaaa4533c734b81dded6c82604051612c379190612eae565b60405180910390a150505050565b60016002600083815260200190815260200160002060080160146101000a81548160ff0219169083151502179055506001600260008381526020019081526020016000206009018190555060006002600083815260200190815260200160002060080160009054906101000a900473ffffffffffffffffffffffffffffffffffffffff1690506000600260008481526020019081526020016000206004015490508173ffffffffffffffffffffffffffffffffffffffff1663a9059cbb6002600086815260200190815260200160002060070160009054906101000a900473ffffffffffffffffffffffffffffffffffffffff16836040518363ffffffff1660e01b8152600401612d57929190613505565b602060405180830381600087803b158015612d7157600080fd5b505af1158015612d85573d6000803e3d6000fd5b505050506040513d601f19601f82011682018060405250810190612da99190613543565b612de8576040517f08c379a0000000000000000000000000000000000000000000000000000000008152600401612ddf90614619565b60405180910390fd5b7f3e6804e9f1e2b17ff6c81fd18402f24ead42afd0634fb8abe3459da7d53baa6f81604051612e179190612eae565b60405180910390a1505050565b600080fd5b6000819050919050565b612e3c81612e29565b8114612e4757600080fd5b50565b600081359050612e5981612e33565b92915050565b60008060408385031215612e7657612e75612e24565b5b6000612e8485828601612e4a565b9250506020612e9585828601612e4a565b9150509250929050565b612ea881612e29565b82525050565b6000602082019050612ec36000830184612e9f565b92915050565b600060208284031215612edf57612ede612e24565b5b6000612eed84828501612e4a565b91505092915050565b600073ffffffffffffffffffffffffffffffffffffffff82169050919050565b6000612f2182612ef6565b9050919050565b612f3181612f16565b8114612f3c57600080fd5b50565b600081359050612f4e81612f28565b92915050565b600060208284031215612f6a57612f69612e24565b5b6000612f7884828501612f3f565b91505092915050565b612f8a81612f16565b82525050565b6000606082019050612fa56000830186612e9f565b612fb26020830185612f81565b612fbf6040830184612e9f565b949350505050565b60008060008060008060c08789031215612fe457612fe3612e24565b5b6000612ff289828a01612e4a565b965050602061300389828a01612e4a565b955050604061301489828a01612e4a565b945050606061302589828a01612e4a565b935050608061303689828a01612e4a565b92505060a061304789828a01612f3f565b9150509295509295509295565b60008115159050919050565b61306981613054565b82525050565b600061016082019050613085600083018e612e9f565b613092602083018d612e9f565b61309f604083018c612e9f565b6130ac606083018b612e9f565b6130b9608083018a612e9f565b6130c660a0830189612e9f565b6130d360c0830188612e9f565b6130e060e0830187612f81565b6130ee610100830186612f81565b6130fc610120830185613060565b61310a610140830184612e9f565b9c9b505050505050505050505050565b61312381613054565b811461312e57600080fd5b50565b6000813590506131408161311a565b92915050565b60006020828403121561315c5761315b612e24565b5b600061316a84828501613131565b91505092915050565b60006020820190506131886000830184612f81565b92915050565b60006020820190506131a36000830184613060565b92915050565b7f4e487b7100000000000000000000000000000000000000000000000000000000600052601160045260246000fd5b60006131e382612e29565b91506131ee83612e29565b9250817fffffffffffffffffffffffffffffffffffffffffffffffffffffffffffffffff0483118215151615613227576132266131a9565b5b828202905092915050565b7f4e487b7100000000000000000000000000000000000000000000000000000000600052601260045260246000fd5b600061326c82612e29565b915061327783612e29565b92508261328757613286613232565b5b828204905092915050565b600082825260208201905092915050565b7f726566756e642074797065206e6f742073657420796574210000000000000000600082015250565b60006132d9601883613292565b91506132e4826132a3565b602082019050919050565b60006020820190508181036000830152613308816132cc565b9050919050565b7f496e76616c6964206c61756e6368706164496400000000000000000000000000600082015250565b6000613345601383613292565b91506133508261330f565b602082019050919050565b6000602082019050818103600083015261337481613338565b9050919050565b7f6e6f7468696e6720746f20776974686472617700000000000000000000000000600082015250565b60006133b1601383613292565b91506133bc8261337b565b602082019050919050565b600060208201905081810360008301526133e0816133a4565b9050919050565b7f6e6f7420656e6f7567682062616c616e636520746f2077697468647261770000600082015250565b600061341d601e83613292565b9150613428826133e7565b602082019050919050565b6000602082019050818103600083015261344c81613410565b9050919050565b600081905092915050565b50565b600061346e600083613453565b91506134798261345e565b600082019050919050565b600061348f82613461565b9150819050919050565b7f4661696c656420746f2073656e64204574686572000000000000000000000000600082015250565b60006134cf601483613292565b91506134da82613499565b602082019050919050565b600060208201905081810360008301526134fe816134c2565b9050919050565b600060408201905061351a6000830185612f81565b6135276020830184612e9f565b9392505050565b60008151905061353d8161311a565b92915050565b60006020828403121561355957613558612e24565b5b60006135678482850161352e565b91505092915050565b7f756e61626c6520746f2073656e64206d6f6e6579000000000000000000000000600082015250565b60006135a6601483613292565b91506135b182613570565b602082019050919050565b600060208201905081810360008301526135d581613599565b9050919050565b7f4f6e6c79206f776e65722063616e206578656375746500000000000000000000600082015250565b6000613612601683613292565b915061361d826135dc565b602082019050919050565b6000602082019050818103600083015261364181613605565b9050919050565b7f537570706c696564206461797320697320736d616c6c6572207468616e206d6960008201527f6e696d756d206e756d626572206f662064617973000000000000000000000000602082015250565b60006136a4603483613292565b91506136af82613648565b604082019050919050565b600060208201905081810360008301526136d381613697565b9050919050565b7f436f6e7472616374206973206c6f636b65642062792061646d696e0000000000600082015250565b6000613710601b83613292565b915061371b826136da565b602082019050919050565b6000602082019050818103600083015261373f81613703565b9050919050565b7f746f6f2073686f72740000000000000000000000000000000000000000000000600082015250565b600061377c600983613292565b915061378782613746565b602082019050919050565b600060208201905081810360008301526137ab8161376f565b9050919050565b7f57686f6f70732c2063616e27742062652074686174206c6f6e67000000000000600082015250565b60006137e8601a83613292565b91506137f3826137b2565b602082019050919050565b60006020820190508181036000830152613817816137db565b9050919050565b600061382982612e29565b915061383483612e29565b9250827fffffffffffffffffffffffffffffffffffffffffffffffffffffffffffffffff03821115613869576138686131a9565b5b828201905092915050565b7f736f6d657468696e67206973207265616c6c792077726f6e6720686572650000600082015250565b60006138aa601e83613292565b91506138b582613874565b602082019050919050565b600060208201905081810360008301526138d98161389d565b9050919050565b7f4d757374206265206f7665722035302520616363657074616e63650000000000600082015250565b6000613916601b83613292565b9150613921826138e0565b602082019050919050565b6000602082019050818103600083015261394581613909565b9050919050565b7f4d757374206265206c657373207468616e203130302520616363657074616e6360008201527f6500000000000000000000000000000000000000000000000000000000000000602082015250565b60006139a8602183613292565b91506139b38261394c565b604082019050919050565b600060208201905081810360008301526139d78161399b565b9050919050565b7f4e656564206d6f726520746f6b656e7320746f2070726f636573730000000000600082015250565b6000613a14601b83613292565b9150613a1f826139de565b602082019050919050565b60006020820190508181036000830152613a4381613a07565b9050919050565b7f4e6f7420656e6f75676820666565732070616964000000000000000000000000600082015250565b6000613a80601483613292565b9150613a8b82613a4a565b602082019050919050565b60006020820190508181036000830152613aaf81613a73565b9050919050565b7f6d617820312065746865722070657220746f6b656e0000000000000000000000600082015250565b6000613aec601583613292565b9150613af782613ab6565b602082019050919050565b60006020820190508181036000830152613b1b81613adf565b9050919050565b7f796f75206578636565646564206d696e696d756d205f7072696365506572546f60008201527f6b656e0000000000000000000000000000000000000000000000000000000000602082015250565b6000613b7e602383613292565b9150613b8982613b22565b604082019050919050565b60006020820190508181036000830152613bad81613b71565b9050919050565b7f54686973206163636f756e742068617320616e206578697374696e67206c617560008201527f6e63687061640000000000000000000000000000000000000000000000000000602082015250565b6000613c10602683613292565b9150613c1b82613bb4565b604082019050919050565b60006020820190508181036000830152613c3f81613c03565b9050919050565b600060ff82169050919050565b613c5c81613c46565b8114613c6757600080fd5b50565b600081519050613c7981613c53565b92915050565b600060208284031215613c9557613c94612e24565b5b6000613ca384828501613c6a565b91505092915050565b7f5765206f6e6c792061636365707420313820646563696d616c7320746f6b656e60008201527f7300000000000000000000000000000000000000000000000000000000000000602082015250565b6000613d08602183613292565b9150613d1382613cac565b604082019050919050565b60006020820190508181036000830152613d3781613cfb565b9050919050565b600081519050613d4d81612e33565b92915050565b600060208284031215613d6957613d68612e24565b5b6000613d7784828501613d3e565b91505092915050565b7f4e6f7420656e6f7567682066756e647320696e2073656e6465722062616c616e60008201527f6365210000000000000000000000000000000000000000000000000000000000602082015250565b6000613ddc602383613292565b9150613de782613d80565b604082019050919050565b60006020820190508181036000830152613e0b81613dcf565b9050919050565b6000604082019050613e276000830185612f81565b613e346020830184612f81565b9392505050565b7f496e737566696369656e7420616c6c6f77616e63650000000000000000000000600082015250565b6000613e71601583613292565b9150613e7c82613e3b565b602082019050919050565b60006020820190508181036000830152613ea081613e64565b9050919050565b6000606082019050613ebc6000830186612f81565b613ec96020830185612f81565b613ed66040830184612e9f565b949350505050565b7f5472616e73666572206661696c65640000000000000000000000000000000000600082015250565b6000613f14600f83613292565b9150613f1f82613ede565b602082019050919050565b60006020820190508181036000830152613f4381613f07565b9050919050565b600060c082019050613f5f6000830189612e9f565b613f6c6020830188612e9f565b613f796040830187612e9f565b613f866060830186612e9f565b613f936080830185612e9f565b613fa060a0830184612f81565b979650505050505050565b7f537570706c696564206461797320697320626967676572207468616e206d617860008201527f696d756d206e756d626572206f66206461797300000000000000000000000000602082015250565b6000614007603383613292565b915061401282613fab565b604082019050919050565b6000602082019050818103600083015261403681613ffa565b9050919050565b7f54686973206c61756e636870616420686173206265656e20736574746c656400600082015250565b6000614073601f83613292565b915061407e8261403d565b602082019050919050565b600060208201905081810360008301526140a281614066565b9050919050565b60006140b482612e29565b91506140bf83612e29565b9250828210156140d2576140d16131a9565b5b828203905092915050565b7f4d696c6573746f6e65206e6f7420616368696576656420796574210000000000600082015250565b6000614113601b83613292565b915061411e826140dd565b602082019050919050565b6000602082019050818103600083015261414281614106565b9050919050565b7f466565206d757374206265206c6172676572207468616e203025000000000000600082015250565b600061417f601a83613292565b915061418a82614149565b602082019050919050565b600060208201905081810360008301526141ae81614172565b9050919050565b7f466565206d757374206265206c6f776572207468616e20313030250000000000600082015250565b60006141eb601b83613292565b91506141f6826141b5565b602082019050919050565b6000602082019050818103600083015261421a816141de565b9050919050565b7f646576656c6f706572732063616e6e6f7420627579207468656972206f776e2060008201527f746f6b656e000000000000000000000000000000000000000000000000000000602082015250565b600061427d602583613292565b915061428882614221565b604082019050919050565b600060208201905081810360008301526142ac81614270565b9050919050565b7f686176656e277420737461727420796574000000000000000000000000000000600082015250565b60006142e9601183613292565b91506142f4826142b3565b602082019050919050565b60006020820190508181036000830152614318816142dc565b9050919050565b7f697420616c726561647920656e64656400000000000000000000000000000000600082015250565b6000614355601083613292565b91506143608261431f565b602082019050919050565b6000602082019050818103600083015261438481614348565b9050919050565b7f4e6f20746f6b656e73206c656674000000000000000000000000000000000000600082015250565b60006143c1600e83613292565b91506143cc8261438b565b602082019050919050565b600060208201905081810360008301526143f0816143b4565b9050919050565b7f53656e742066756e6473206e6f7420656e6f75676820746f2062757920746f6b60008201527f656e732100000000000000000000000000000000000000000000000000000000602082015250565b6000614453602483613292565b915061445e826143f7565b604082019050919050565b6000602082019050818103600083015261448281614446565b9050919050565b7f4e6f7420656e6f75676820746f6b656e7320746f206275792100000000000000600082015250565b60006144bf601983613292565b91506144ca82614489565b602082019050919050565b600060208201905081810360008301526144ee816144b2565b9050919050565b7f646576656c6f706572206e6f7420706169642079657421000000000000000000600082015250565b600061452b601783613292565b9150614536826144f5565b602082019050919050565b6000602082019050818103600083015261455a8161451e565b9050919050565b7f4e6f20746f6b656e7320746f2077697468647261772100000000000000000000600082015250565b6000614597601683613292565b91506145a282614561565b602082019050919050565b600060208201905081810360008301526145c68161458a565b9050919050565b7f756e61626c6520746f2073656e642066756e647320746f206465762100000000600082015250565b6000614603601c83613292565b915061460e826145cd565b602082019050919050565b60006020820190508181036000830152614632816145f6565b9050919050565b7f63616e6e6f742073657420746f206e756c6c2061646472657373000000000000600082015250565b600061466f601a83613292565b915061467a82614639565b602082019050919050565b6000602082019050818103600083015261469e81614662565b9050919050565b7f746f6f206c617465000000000000000000000000000000000000000000000000600082015250565b60006146db600883613292565b91506146e6826146a5565b602082019050919050565b6000602082019050818103600083015261470a816146ce565b9050919050565b7f4e6f20746f6b656e73206c65667420746f206275792100000000000000000000600082015250565b6000614747601683613292565b915061475282614711565b602082019050919050565b600060208201905081810360008301526147768161473a565b9050919050565b7f43616e6e6f742073657420617320300000000000000000000000000000000000600082015250565b60006147b3600f83613292565b91506147be8261477d565b602082019050919050565b600060208201905081810360008301526147e2816147a6565b9050919050565b7f4661696c20746f2073656e642065746865720000000000000000000000000000600082015250565b600061481f601283613292565b915061482a826147e9565b602082019050919050565b6000602082019050818103600083015261484e81614812565b905091905056fea2646970667358221220b60fef8c5bb8f3ca305c89cace03f931e471d19f35e836062737d0df0dd415b964736f6c63430008090033",
  "immutableReferences": {},
  "source": "// SPDX-License-Identifier: MIT\npragma solidity ^0.8.9;\n\nimport \"@openzeppelin/contracts/token/ERC20/ERC20.sol\"; //we use https://docs.openzeppelin.com/contracts/4.x/api/token/erc20#ERC20 to get decimals()\n\ncontract LaunchPad {\n\n    // Admin operation variables\n    bool public isLocked; //lock contract to prevent new launchpad \n    address public owner; //owner of this contract\n    uint public fee = 1; //fee is 1% by default\n\n    //Launchpad variables\n    struct LaunchPadInformation {\n        uint startTimeStamp; //start time of launchpad\n        uint endTimeStamp; //end time of launchpad\n        uint acceptancePercentage; //required percentage for launchpad to valid, eg. 60%\n        uint milestone; //tokens needed accordingly to acceptancePercentage\n        uint originalAmountofTokens; //original amount of tokens, act as a preserve\n        uint totalTokens; //totaltokens of ERC20 token, will decrease per user buy\n        uint pricePerToken; //price per token, eg. 1000 = 0.001 ETH\n        address sender; //developer address, used to send funds or refund\n        address tokenAddress; //ERC20 token address\n        bool paid;//boolean to indicate whether we paid the developer or not\n        uint creditType; //refund amount for users; 0: Unset, 1: ETH, 2: Token\n    }\n    mapping(uint => LaunchPadInformation) public launchpads; //total launchpads in existence\n    uint public totalLaunchpads = 0;\n    mapping(address => uint) public launchedTokens;\n    uint public minNumberofDays = 10;\n    uint public minimumTokens = 1000;\n    uint public maxNumberofDays = 60;\n\n    struct CreditPerLaunchPad {\n        uint credits;\n        address tokenAddress;\n        uint weiSent;\n    }\n\n    mapping(address => CreditPerLaunchPad) public userCredits; //user credit to withdraw\n\n\n    //MODIFIERS \n\n    modifier onlyOwner() {\n        //prevents unauthorized access\n        require(msg.sender == owner, \"Only owner can execute\");\n        _;\n    }\n\n    modifier isLock() {\n        //lock contract to prevent new launchpad\n        require(!isLocked, \"Contract is locked by admin\");\n        _;\n    }\n\n    modifier checkWithdrawType(uint _launchpadId) {\n        //dynamic modifier to ensure whether user can get their money/tokens \n        require(launchpads[_launchpadId].creditType != 0, \"refund type not set yet!\");\n        _;\n    }\n\n    //event\n\n    event DepositToken(uint256 _startTime, uint256 _numOfDays, uint _acceptedPercentage, uint _pricePerToken, uint _totalTokens, address _tokenAddress);\n    event changeMaxDays(uint _numOfDays);\n    event changeMinDays(uint _numOfDays);\n    event changeTokens(uint _minimumTokens);\n    event lock(bool isLocked);\n    event changeFeeRate(uint _fee);\n    event changeOwnerAddress(address _newOwner);\n    event succeedLaunchpad(uint developerProfit);\n    event failedLaunchPad(uint amount);\n    event launchPadRemoved(uint _launchPadId);\n\n    //CONSTRUCTOR\n\n    constructor(bool _isLocked) {\n        owner = msg.sender;\n        isLocked = _isLocked;\n    }\n\n    /// DEVELOPER DEPOSIT\n\n    function launchMyToken(uint256 _startTime, uint256 _numOfDays, uint _acceptedPercentage, uint _pricePerToken, uint _totalTokens, address _tokenAddress) public payable isLock {\n\n        // @front-end should handle the conversion from date to Unix timestamp\n        // @front-end need to handle price decimal conversion, eg. 1000 = 0.001 ETH\n        // @front-end need to handle approval https://ethereum.stackexchange.com/a/112191\n\n        //verify time logic\n        if (_startTime < block.timestamp){\n            //default start now unless specified otherwise\n            _startTime = block.timestamp;\n        }\n        require(_numOfDays >= minNumberofDays, \"too short\");\n        require(_numOfDays <= maxNumberofDays, \"Whoops, can't be that long\");\n        uint _endTimeStamp = block.timestamp + (_numOfDays * 1 days);\n        require(_endTimeStamp >= _startTime, \"something is really wrong here\");\n\n        //verify percentage rate\n        require(_acceptedPercentage >= 50, \"Must be over 50% acceptance\");\n        require(_acceptedPercentage <= 100, \"Must be less than 100% acceptance\");\n\n        //verify minimum tokens\n        require(_totalTokens >= minimumTokens, \"Need more tokens to process\");\n\n        //verify fees\n        uint protocolFee = calculateFee(_totalTokens);\n        require(msg.value >= protocolFee, \"Not enough fees paid\");\n\n        //verify _pricePerToken, limit 1 to 10**18, hence we can only accept 18 decimals contract\n        require(_pricePerToken >= 1, \"max 1 ether per token\");\n        require(_pricePerToken <= 1 ether, \"you exceeded minimum _pricePerToken\");\n\n        //verify existing launchpad for specifc token address\n        require(launchedTokens[_tokenAddress] == 0, \"This account has an existing launchpad\");\n\n        //calculate required acceptance tokens\n        uint milestoneRequired = calculateAcceptanceRate(_totalTokens, _acceptedPercentage);\n\n        //increment lauchpad id and update values\n        totalLaunchpads += 1;\n        launchedTokens[_tokenAddress] = totalLaunchpads;\n\n        launchpads[totalLaunchpads] = LaunchPadInformation(_startTime, _endTimeStamp, _acceptedPercentage, milestoneRequired, _totalTokens, _totalTokens, _pricePerToken, msg.sender, _tokenAddress, false, 0);\n\n        // fund contract with developer custom ERC20 token\n        ERC20 customToken = ERC20(_tokenAddress);\n        require(customToken.decimals() == 18, \"We only accept 18 decimals tokens\");\n        uint balanceOfUser = customToken.balanceOf(msg.sender);\n        require(balanceOfUser >= _totalTokens, \"Not enough funds in sender balance!\");\n        require(customToken.allowance(msg.sender, address(this)) >= _totalTokens, \"Insuficient allowance\");\n        require(customToken.transferFrom(msg.sender, address(this), _totalTokens), \"Transfer failed\");\n\n        emit DepositToken(_startTime, _numOfDays, _acceptedPercentage, _pricePerToken, _totalTokens, _tokenAddress);\n    }\n\n    /// USER OPERATIONS\n    function buyLaunchPadToken(uint _launchpadId) public payable isLock {\n        require(msg.sender != launchpads[_launchpadId].sender, \"developers cannot buy their own token\");\n\n        //check launchpad stuff\n        require(_launchpadId <= totalLaunchpads, \"Invalid launchpadId\");\n        require(block.timestamp >= launchpads[_launchpadId].startTimeStamp, \"haven't start yet\");\n        require(block.timestamp <= launchpads[_launchpadId].endTimeStamp, \"it already ended\");\n        require(launchpads[_launchpadId].totalTokens > 0, \"No tokens left\");\n\n        //calculation price stuffs\n        uint launchpadPricePerToken = launchpads[_launchpadId].pricePerToken;\n        uint minimumFunds = 1 ether / launchpadPricePerToken;\n        require(msg.value >= minimumFunds, \"Sent funds not enough to buy tokens!\");\n        uint amountToBuy = msg.value * launchpadPricePerToken;\n        uint tokensToBuy = amountToBuy / (10 ** 18);\n\n        //in case user sent too much funds to buy all tokens\n        require(launchpads[_launchpadId].totalTokens >= tokensToBuy, \"Not enough tokens to buy!\");\n\n        launchpads[_launchpadId].totalTokens = launchpads[_launchpadId].totalTokens - tokensToBuy;\n\n        //increment credit\n        uint oldCredit = userCredits[msg.sender].credits;\n        uint newCredit = oldCredit + tokensToBuy;\n\n        //increment wei sent\n        uint oldweiSent = userCredits[msg.sender].weiSent;\n        uint _weiSent = oldweiSent + msg.value;\n\n        userCredits[msg.sender] = CreditPerLaunchPad(newCredit, launchpads[_launchpadId].tokenAddress, _weiSent);\n    }\n\n    /// AFTER SALES\n    function settleLaunchPad(uint _launchpadId) public {\n\n        //developers and user run this to take funds\n        require(_launchpadId <= totalLaunchpads, \"Invalid launchpadId\");\n        require(launchpads[_launchpadId].paid == false, \"This launchpad has been settled\");\n\n        //calculate acceptance percentage\n        bool mileStoneAchieved;\n        uint tokensBought = launchpads[_launchpadId].originalAmountofTokens - launchpads[_launchpadId].totalTokens;\n        if (tokensBought >= launchpads[_launchpadId].milestone) {\n            mileStoneAchieved = true;\n        } else {\n            mileStoneAchieved = false;\n        }\n\n        //check launchpad end\n        bool isLaunchPadEnd;\n        if (block.timestamp >= launchpads[_launchpadId].endTimeStamp) {\n            isLaunchPadEnd = true;\n        } else {\n            isLaunchPadEnd = false;\n        }\n\n        //pre launchpad ending time\n        if (!isLaunchPadEnd) {\n            //code would enter this block if launchpad is too popular, ie. tokens are all bought before ending time\n            //user can call this function to start withdraw tokens before ending time, under condition that milestone is achieved\n\n            if (mileStoneAchieved) {\n                //if the tokens are so popular that everyone bought it before ending time, we will close it\n                if (launchpads[_launchpadId].totalTokens == 0) {\n                    successLaunchPad(_launchpadId);\n\n                } else {\n                    //there are still tokens left, so we allow user withdraw first because milestone is achieved\n                    launchpads[_launchpadId].creditType = 2;\n                }\n\n            } else {\n                //if milestone is not achieved yet\n                revert(\"Milestone not achieved yet!\");\n            }\n\n        } else if (isLaunchPadEnd) {\n            //post launchpad ending time\n            //only two possibilites, accepted or not\n\n            if (mileStoneAchieved) {\n                //if milestone achieved\n                successLaunchPad(_launchpadId);\n\n            } else if (!mileStoneAchieved) {\n                //if no one buy their token :(\n                failLaunchPad(_launchpadId);\n            }\n        }\n\n    }\n\n    function successLaunchPad(uint _launchpadId) internal {\n        //set funds paid to true\n        launchpads[_launchpadId].paid = true;\n\n        //allow user withdraw token\n        launchpads[_launchpadId].creditType = 2;\n\n        //calculate ETH amount to be sent\n        uint tokenInEth = 1 ether / launchpads[_launchpadId].pricePerToken;\n\n        uint amount;\n\n        \n        if (launchpads[_launchpadId].totalTokens > 0){\n\n            //milestone achieved but not all tokens are bought\n            uint tokensBought = launchpads[_launchpadId].originalAmountofTokens - launchpads[_launchpadId].totalTokens;\n            amount = tokensBought * tokenInEth; //unbought tokens are left in contract\n\n        } else {\n\n            //no tokens left\n             amount = launchpads[_launchpadId].originalAmountofTokens * tokenInEth;\n\n        }\n\n        //send ETH to dev\n        (bool sent, ) = launchpads[_launchpadId].sender.call{value: amount}(\"\");\n        require(sent, \"Fail to send ether\");\n\n        emit succeedLaunchpad(amount);\n    }\n\n    function failLaunchPad(uint _launchpadId) internal {\n        //set funds paid to true\n        launchpads[_launchpadId].paid = true;\n\n        //allow user withdraw eth\n        launchpads[_launchpadId].creditType = 1;\n\n        //calculate token to be sent\n        ERC20 customToken = ERC20(launchpads[_launchpadId].tokenAddress);\n        uint amount = launchpads[_launchpadId].originalAmountofTokens;\n\n        //send token to dev\n        require(customToken.transfer(launchpads[_launchpadId].sender, amount), \"unable to send funds to dev!\");\n        \n        emit failedLaunchPad(amount);\n    }\n\n    function withdrawCredits(uint _launchPadId) public checkWithdrawType(_launchPadId) {\n        //NOTE: all verifications are done in settleLaunchPad, hence a modifier to prevent bad stuff happen\n        // get launchpads address from struct\n        uint amount = userCredits[msg.sender].credits;\n\n        require(_launchPadId <= totalLaunchpads, \"Invalid launchpadId\");\n        require(amount != 0, \"nothing to withdraw\");\n        require(address(this).balance >= amount, \"not enough balance to withdraw\");\n\n        userCredits[msg.sender].credits = 0;\n        userCredits[msg.sender].weiSent = 0;\n\n        if (launchpads[_launchPadId].creditType == 1){\n\n            //user withdraw ETH\n            (bool sent, ) = msg.sender.call {value: userCredits[msg.sender].weiSent}(\"\");\n            require(sent, \"Failed to send Ether\");\n\n        } else if ((launchpads[_launchPadId].creditType == 2)){\n\n            //user withdraw token\n            ERC20 customToken = ERC20(launchpads[_launchPadId].tokenAddress);\n            require(customToken.transfer(msg.sender, amount), \"unable to send money\");\n\n        }   \n    }\n    \n    //ADMIN OPERATIONS\n    function changeMaxNumOfDays(uint _numOfDays) public onlyOwner {\n        require(_numOfDays >= minNumberofDays, \"Supplied days is smaller than minimum number of days\");\n        maxNumberofDays = _numOfDays;\n\n        emit changeMaxDays(maxNumberofDays);\n    }\n    \n    function changeMinNumOfDays(uint _numOfDays) public onlyOwner {\n        require(_numOfDays <= maxNumberofDays, \"Supplied days is bigger than maximum number of days\");\n        minNumberofDays = _numOfDays;\n\n        emit changeMinDays(minNumberofDays);\n    }\n    \n    function changeMinimumTokens(uint _minimumTokens) public onlyOwner {\n        require(_minimumTokens > 0, \"Cannot set as 0\");\n        minimumTokens = _minimumTokens;\n        \n        emit changeTokens(minimumTokens);\n    }\n\n    function lockContract(bool _isLocked) public onlyOwner {\n        isLocked = _isLocked;\n        emit lock(_isLocked);\n    }\n\n    function changeFee(uint _fee) public onlyOwner {\n        //check fee rate range from 0%-100%\n        require(_fee > 0, \"Fee must be larger than 0%\");\n        require(_fee < 100, \"Fee must be lower than 100%\");\n        fee = _fee;\n        emit changeFeeRate(fee);\n    }\n\n    function changeOwner(address _newOwner) public onlyOwner {\n        require(_newOwner != address(0), \"cannot set to null address\");\n        owner = _newOwner;\n        emit changeOwnerAddress(owner);\n    }\n\n    //in case we find any malicious tokens in launchpad, we can prevent user from buying it\n    function removeLaunchPad(uint _launchpadId) public onlyOwner {\n        require(launchpads[_launchpadId].paid == false, \"too late\");\n        //intentionally jam the tokens so user cannot purchase\n        launchpads[_launchpadId].totalTokens = 0;\n        //set to paid to developer even we did not, reminder: developer is malicious\n        launchpads[_launchpadId].paid = true;\n        //allow user to withdraw their ETH\n        launchpads[_launchpadId].creditType = 1;\n        emit launchPadRemoved(_launchpadId);\n    }\n\n    //milestone achieved, paid developer, tokens are left in contract, hence we withdraw it\n    function retrieveAdditionalTokens(uint _launchpadId) public onlyOwner {\n        require(launchpads[_launchpadId].paid, \"developer not paid yet!\");\n        //if the developer is paid, we can safely withdraw additional tokens\n        ERC20 customToken = ERC20(launchpads[_launchpadId].tokenAddress);\n        //verify there are tokens to withdraw\n        require(customToken.balanceOf(address(this)) > 0, \"No tokens to withdraw!\");\n        //transfer to contract owner\n        require(customToken.transfer(owner, customToken.balanceOf(address(this))), \"unable to send funds to dev!\");\n    }\n    \n    function retrievePriceForToken(uint _launchPadId) public view returns (uint) {\n        // return ETH price for one token \n        // get price per token for supplied _launchPadId\n        return 1 ether / launchpads[_launchPadId].pricePerToken;\n    }\n\n    // get max buy value for available tokens\n    function getMaxBuyValueForToken(uint _launchPadId) public view returns (uint) {\n        uint tokensLeft = launchpads[_launchPadId].totalTokens;\n        require(tokensLeft != 0, \"No tokens left to buy!\");\n        uint pricePerToken = 1 ether / launchpads[_launchPadId].pricePerToken;\n        return tokensLeft * pricePerToken;\n    }\n\n    /// Helper functions\n    function calculateFee(uint _totalTokens) public view returns(uint) {\n        uint totalFee = (_totalTokens * fee) / 100; //multiply before divide\n        return totalFee * 10 ** 16; // refer to README for calculation\n    }\n\n    function calculateAcceptanceRate(uint _totalTokens, uint _acceptedRate) public pure returns(uint) {\n        uint milestone = (_totalTokens * _acceptedRate) / 100;\n        return milestone;\n    }\n\n     function estimateProtocolFee(uint _totalTokens) public view returns (uint) {\n        // Formula: totalTokens * protocolFeePercentage * ethUnit\n        uint _protocolFeePercentage = fee; // 1%\n        uint _ethUnit = 10 ** 16; // 0.001 ETH\n        uint feePercentage = (_totalTokens * _protocolFeePercentage) / 100; \n        uint feeToPaid = feePercentage * _ethUnit;\n        return feeToPaid;\n    }\n\n}\n",
  "sourcePath": "/home/miao/Downloads/solidity/blockchain-assignment/contracts/LaunchPad.sol",
  "compiler": {
    "name": "solc",
    "version": "0.8.9+commit.e5eed63a.Emscripten.clang"
  },
  "schemaVersion": "3.3.2",
  "updatedAt": "2021-12-09T07:39:02.289Z",
  "networkType": "ethereum",
  "devdoc": {
    "kind": "dev",
    "methods": {},
    "version": 1
  },
  "userdoc": {
    "kind": "user",
    "methods": {
      "buyLaunchPadToken(uint256)": {
        "notice": "USER OPERATIONS"
      },
      "calculateFee(uint256)": {
        "notice": "Helper functions"
      },
      "launchMyToken(uint256,uint256,uint256,uint256,uint256,address)": {
        "notice": "DEVELOPER DEPOSIT"
      },
      "settleLaunchPad(uint256)": {
        "notice": "AFTER SALES"
      }
    },
    "version": 1
  }
}