{
  "contractName": "LaunchPad",
  "abi": [
    {
      "inputs": [
        {
          "internalType": "bool",
          "name": "_isLocked",
          "type": "bool"
        }
      ],
      "stateMutability": "nonpayable",
      "type": "constructor"
    },
    {
      "inputs": [
        {
          "internalType": "uint256",
          "name": "",
          "type": "uint256"
        }
      ],
      "name": "launchpads",
      "outputs": [
        {
          "internalType": "uint256",
          "name": "startTimeStamp",
          "type": "uint256"
        },
        {
          "internalType": "uint256",
          "name": "endTimeStamp",
          "type": "uint256"
        },
        {
          "internalType": "uint256",
          "name": "acceptancePercentage",
          "type": "uint256"
        },
        {
          "internalType": "uint256",
          "name": "totalTokens",
          "type": "uint256"
        },
        {
          "internalType": "address",
          "name": "sender",
          "type": "address"
        }
      ],
      "stateMutability": "view",
      "type": "function"
    },
    {
      "inputs": [],
      "name": "totalLaunchpads",
      "outputs": [
        {
          "internalType": "uint256",
          "name": "",
          "type": "uint256"
        }
      ],
      "stateMutability": "view",
      "type": "function"
    },
    {
      "inputs": [
        {
          "internalType": "uint256",
          "name": "_startTime",
          "type": "uint256"
        },
        {
          "internalType": "uint256",
          "name": "_numOfDays",
          "type": "uint256"
        },
        {
          "internalType": "uint256",
          "name": "_acceptedPercentage",
          "type": "uint256"
        },
        {
          "internalType": "uint256",
          "name": "_totalTokens",
          "type": "uint256"
        }
      ],
      "name": "launchMyToken",
      "outputs": [],
      "stateMutability": "payable",
      "type": "function"
    },
    {
      "inputs": [
        {
          "internalType": "uint256",
          "name": "_launchPadId",
          "type": "uint256"
        }
      ],
      "name": "getLaunchPadInformation",
      "outputs": [
        {
          "internalType": "address",
          "name": "",
          "type": "address"
        }
      ],
      "stateMutability": "view",
      "type": "function"
    },
    {
      "inputs": [],
      "name": "whatTimeNow",
      "outputs": [
        {
          "internalType": "uint256",
          "name": "",
          "type": "uint256"
        }
      ],
      "stateMutability": "view",
      "type": "function"
    },
    {
      "inputs": [
        {
          "internalType": "uint256",
          "name": "_launchpadId",
          "type": "uint256"
        }
      ],
      "name": "buyLaunchPadToken",
      "outputs": [],
      "stateMutability": "payable",
      "type": "function"
    },
    {
      "inputs": [],
      "name": "settleLaunchPad",
      "outputs": [],
      "stateMutability": "nonpayable",
      "type": "function"
    },
    {
      "inputs": [],
      "name": "withdrawCredits",
      "outputs": [],
      "stateMutability": "nonpayable",
      "type": "function"
    },
    {
      "inputs": [
        {
          "internalType": "uint256",
          "name": "_numOfDays",
          "type": "uint256"
        }
      ],
      "name": "changeMaxNumOfDays",
      "outputs": [],
      "stateMutability": "nonpayable",
      "type": "function"
    },
    {
      "inputs": [
        {
          "internalType": "uint256",
          "name": "_numOfDays",
          "type": "uint256"
        }
      ],
      "name": "changeMinNumOfDays",
      "outputs": [],
      "stateMutability": "nonpayable",
      "type": "function"
    },
    {
      "inputs": [
        {
          "internalType": "uint256",
          "name": "_minimumTokens",
          "type": "uint256"
        }
      ],
      "name": "changeMinimumTokens",
      "outputs": [],
      "stateMutability": "nonpayable",
      "type": "function"
    },
    {
      "inputs": [
        {
          "internalType": "bool",
          "name": "_isLocked",
          "type": "bool"
        }
      ],
      "name": "lockContract",
      "outputs": [],
      "stateMutability": "nonpayable",
      "type": "function"
    },
    {
      "inputs": [
        {
          "internalType": "uint256",
          "name": "_fee",
          "type": "uint256"
        }
      ],
      "name": "changeFee",
      "outputs": [],
      "stateMutability": "nonpayable",
      "type": "function"
    },
    {
      "inputs": [
        {
          "internalType": "address",
          "name": "_newOwner",
          "type": "address"
        }
      ],
      "name": "changeOwner",
      "outputs": [],
      "stateMutability": "nonpayable",
      "type": "function"
    }
  ],
  "bytecode": "0x608060405260056001556000600355600a6004556103e8600555603c6006553480156200002b57600080fd5b5060405162001b8538038062001b858339818101604052810190620000519190620000f4565b33600060016101000a81548173ffffffffffffffffffffffffffffffffffffffff021916908373ffffffffffffffffffffffffffffffffffffffff160217905550806000806101000a81548160ff0219169083151502179055505062000126565b600080fd5b60008115159050919050565b620000ce81620000b7565b8114620000da57600080fd5b50565b600081519050620000ee81620000c3565b92915050565b6000602082840312156200010d576200010c620000b2565b5b60006200011d84828501620000dd565b91505092915050565b611a4f80620001366000396000f3fe6080604052600436106100dd5760003560e01c8063897cceee1161007f578063ab87e74711610059578063ab87e7471461026a578063c06ca1dd14610281578063e8b90cc6146102ac578063f3193884146102d5576100dd565b8063897cceee146101ed57806393d4b1ca14610216578063a6f9dae114610241576100dd565b80635be5f0bc116100bb5780635be5f0bc146101505780636a1db1bf146101915780636c1e4fb6146101ba578063717f6dfb146101d6576100dd565b806321ecdd32146100e25780634f81d0d31461010b5780635bbfdb0c14610127575b600080fd5b3480156100ee57600080fd5b5061010960048036038101906101049190610f40565b610312565b005b61012560048036038101906101209190610f6d565b610376565b005b34801561013357600080fd5b5061014e60048036038101906101499190610f40565b6106e8565b005b34801561015c57600080fd5b5061017760048036038101906101729190610f40565b61074c565b604051610188959493929190611024565b60405180910390f35b34801561019d57600080fd5b506101b860048036038101906101b39190610f40565b6107a2565b005b6101d460048036038101906101cf9190610f40565b61088c565b005b3480156101e257600080fd5b506101eb610b08565b005b3480156101f957600080fd5b50610214600480360381019061020f91906110af565b610caa565b005b34801561022257600080fd5b5061022b610d20565b60405161023891906110dc565b60405180910390f35b34801561024d57600080fd5b5061026860048036038101906102639190611123565b610d28565b005b34801561027657600080fd5b5061027f610dc6565b005b34801561028d57600080fd5b50610296610e16565b6040516102a391906110dc565b60405180910390f35b3480156102b857600080fd5b506102d360048036038101906102ce9190610f40565b610e1c565b005b3480156102e157600080fd5b506102fc60048036038101906102f79190610f40565b610e80565b6040516103099190611150565b60405180910390f35b600060019054906101000a900473ffffffffffffffffffffffffffffffffffffffff1673ffffffffffffffffffffffffffffffffffffffff163373ffffffffffffffffffffffffffffffffffffffff161461036c57600080fd5b8060068190555050565b60008054906101000a900460ff16156103c4576040517f08c379a00000000000000000000000000000000000000000000000000000000081526004016103bb906111c8565b60405180910390fd5b428411610406576040517f08c379a00000000000000000000000000000000000000000000000000000000081526004016103fd90611234565b60405180910390fd5b60045483111561044b576040517f08c379a0000000000000000000000000000000000000000000000000000000008152600401610442906112a0565b60405180910390fd5b600454831015610490576040517f08c379a00000000000000000000000000000000000000000000000000000000081526004016104879061130c565b60405180910390fd5b6006548311156104d5576040517f08c379a00000000000000000000000000000000000000000000000000000000081526004016104cc906112a0565b60405180910390fd5b6032821015610519576040517f08c379a000000000000000000000000000000000000000000000000000000000815260040161051090611378565b60405180910390fd5b606482111561055d576040517f08c379a00000000000000000000000000000000000000000000000000000000081526004016105549061140a565b60405180910390fd5b6005548110156105a2576040517f08c379a000000000000000000000000000000000000000000000000000000000815260040161059990611476565b60405180910390fd5b600062015180846105b391906114c5565b426105be919061151f565b905084811015610603576040517f08c379a00000000000000000000000000000000000000000000000000000000081526004016105fa906115c1565b60405180910390fd5b600160036000828254610616919061151f565b925050819055506040518060a001604052808681526020018281526020018481526020018381526020013373ffffffffffffffffffffffffffffffffffffffff168152506002600060035481526020019081526020016000206000820151816000015560208201518160010155604082015181600201556060820151816003015560808201518160040160006101000a81548173ffffffffffffffffffffffffffffffffffffffff021916908373ffffffffffffffffffffffffffffffffffffffff1602179055509050505050505050565b600060019054906101000a900473ffffffffffffffffffffffffffffffffffffffff1673ffffffffffffffffffffffffffffffffffffffff163373ffffffffffffffffffffffffffffffffffffffff161461074257600080fd5b8060048190555050565b60026020528060005260406000206000915090508060000154908060010154908060020154908060030154908060040160009054906101000a900473ffffffffffffffffffffffffffffffffffffffff16905085565b600060019054906101000a900473ffffffffffffffffffffffffffffffffffffffff1673ffffffffffffffffffffffffffffffffffffffff163373ffffffffffffffffffffffffffffffffffffffff16146107fc57600080fd5b6000811161083f576040517f08c379a00000000000000000000000000000000000000000000000000000000081526004016108369061162d565b60405180910390fd5b60648110610882576040517f08c379a000000000000000000000000000000000000000000000000000000000815260040161087990611699565b60405180910390fd5b8060018190555050565b60008054906101000a900460ff16156108da576040517f08c379a00000000000000000000000000000000000000000000000000000000081526004016108d1906111c8565b60405180910390fd5b60035481111561091f576040517f08c379a000000000000000000000000000000000000000000000000000000000815260040161091690611705565b60405180910390fd5b60026000828152602001908152602001600020600001544211610977576040517f08c379a000000000000000000000000000000000000000000000000000000000815260040161096e90611771565b60405180910390fd5b60026000828152602001908152602001600020600101544211156109d0576040517f08c379a00000000000000000000000000000000000000000000000000000000081526004016109c7906117dd565b60405180910390fd5b60003411610a13576040517f08c379a0000000000000000000000000000000000000000000000000000000008152600401610a0a90611849565b60405180910390fd5b606434600760003373ffffffffffffffffffffffffffffffffffffffff1673ffffffffffffffffffffffffffffffffffffffff1681526020019081526020016000206000828254610a64919061151f565b92505081905511610aca5734600760003373ffffffffffffffffffffffffffffffffffffffff1673ffffffffffffffffffffffffffffffffffffffff1681526020019081526020016000206000828254610abe919061151f565b92505081905550610b05565b6040517f08c379a0000000000000000000000000000000000000000000000000000000008152600401610afc906118db565b60405180910390fd5b50565b60008054906101000a900460ff1615610b56576040517f08c379a0000000000000000000000000000000000000000000000000000000008152600401610b4d906111c8565b60405180910390fd5b6000600760003373ffffffffffffffffffffffffffffffffffffffff1673ffffffffffffffffffffffffffffffffffffffff1681526020019081526020016000205490506000811415610ba857600080fd5b80471015610bb557600080fd5b6000600760003373ffffffffffffffffffffffffffffffffffffffff1673ffffffffffffffffffffffffffffffffffffffff1681526020019081526020016000208190555060003373ffffffffffffffffffffffffffffffffffffffff1682604051610c209061192c565b60006040518083038185875af1925050503d8060008114610c5d576040519150601f19603f3d011682016040523d82523d6000602084013e610c62565b606091505b5050905080610ca6576040517f08c379a0000000000000000000000000000000000000000000000000000000008152600401610c9d9061198d565b60405180910390fd5b5050565b600060019054906101000a900473ffffffffffffffffffffffffffffffffffffffff1673ffffffffffffffffffffffffffffffffffffffff163373ffffffffffffffffffffffffffffffffffffffff1614610d0457600080fd5b806000806101000a81548160ff02191690831515021790555050565b600042905090565b600060019054906101000a900473ffffffffffffffffffffffffffffffffffffffff1673ffffffffffffffffffffffffffffffffffffffff163373ffffffffffffffffffffffffffffffffffffffff1614610d8257600080fd5b80600060016101000a81548173ffffffffffffffffffffffffffffffffffffffff021916908373ffffffffffffffffffffffffffffffffffffffff16021790555050565b60008054906101000a900460ff1615610e14576040517f08c379a0000000000000000000000000000000000000000000000000000000008152600401610e0b906111c8565b60405180910390fd5b565b60035481565b600060019054906101000a900473ffffffffffffffffffffffffffffffffffffffff1673ffffffffffffffffffffffffffffffffffffffff163373ffffffffffffffffffffffffffffffffffffffff1614610e7657600080fd5b8060058190555050565b6000816003541115610ec7576040517f08c379a0000000000000000000000000000000000000000000000000000000008152600401610ebe906119f9565b60405180910390fd5b6002600083815260200190815260200160002060040160009054906101000a900473ffffffffffffffffffffffffffffffffffffffff169050919050565b600080fd5b6000819050919050565b610f1d81610f0a565b8114610f2857600080fd5b50565b600081359050610f3a81610f14565b92915050565b600060208284031215610f5657610f55610f05565b5b6000610f6484828501610f2b565b91505092915050565b60008060008060808587031215610f8757610f86610f05565b5b6000610f9587828801610f2b565b9450506020610fa687828801610f2b565b9350506040610fb787828801610f2b565b9250506060610fc887828801610f2b565b91505092959194509250565b610fdd81610f0a565b82525050565b600073ffffffffffffffffffffffffffffffffffffffff82169050919050565b600061100e82610fe3565b9050919050565b61101e81611003565b82525050565b600060a0820190506110396000830188610fd4565b6110466020830187610fd4565b6110536040830186610fd4565b6110606060830185610fd4565b61106d6080830184611015565b9695505050505050565b60008115159050919050565b61108c81611077565b811461109757600080fd5b50565b6000813590506110a981611083565b92915050565b6000602082840312156110c5576110c4610f05565b5b60006110d38482850161109a565b91505092915050565b60006020820190506110f16000830184610fd4565b92915050565b61110081611003565b811461110b57600080fd5b50565b60008135905061111d816110f7565b92915050565b60006020828403121561113957611138610f05565b5b60006111478482850161110e565b91505092915050565b60006020820190506111656000830184611015565b92915050565b600082825260208201905092915050565b7f436f6e7472616374206973206c6f636b65642062792061646d696e0000000000600082015250565b60006111b2601b8361116b565b91506111bd8261117c565b602082019050919050565b600060208201905081810360008301526111e1816111a5565b9050919050565b7f43616e6e6f7420737461727420696e2070617374206461746500000000000000600082015250565b600061121e60198361116b565b9150611229826111e8565b602082019050919050565b6000602082019050818103600083015261124d81611211565b9050919050565b7f57686f6f70732c2063616e27742062652074686174206c6f6e67000000000000600082015250565b600061128a601a8361116b565b915061129582611254565b602082019050919050565b600060208201905081810360008301526112b98161127d565b9050919050565b7f746f6f2073686f72740000000000000000000000000000000000000000000000600082015250565b60006112f660098361116b565b9150611301826112c0565b602082019050919050565b60006020820190508181036000830152611325816112e9565b9050919050565b7f4d757374206265206f7665722035302520616363657074616e63650000000000600082015250565b6000611362601b8361116b565b915061136d8261132c565b602082019050919050565b6000602082019050818103600083015261139181611355565b9050919050565b7f4d757374206265206c657373207468616e203130302520616363657074616e6360008201527f6500000000000000000000000000000000000000000000000000000000000000602082015250565b60006113f460218361116b565b91506113ff82611398565b604082019050919050565b60006020820190508181036000830152611423816113e7565b9050919050565b7f4e656564206d6f726520746f6b656e7320746f2070726f636573730000000000600082015250565b6000611460601b8361116b565b915061146b8261142a565b602082019050919050565b6000602082019050818103600083015261148f81611453565b9050919050565b7f4e487b7100000000000000000000000000000000000000000000000000000000600052601160045260246000fd5b60006114d082610f0a565b91506114db83610f0a565b9250817fffffffffffffffffffffffffffffffffffffffffffffffffffffffffffffffff048311821515161561151457611513611496565b5b828202905092915050565b600061152a82610f0a565b915061153583610f0a565b9250827fffffffffffffffffffffffffffffffffffffffffffffffffffffffffffffffff0382111561156a57611569611496565b5b828201905092915050565b7f736f6d657468696e67206973207265616c6c792077726f6e6720686572650000600082015250565b60006115ab601e8361116b565b91506115b682611575565b602082019050919050565b600060208201905081810360008301526115da8161159e565b9050919050565b7f466565206d757374206265206c6172676572207468616e203025000000000000600082015250565b6000611617601a8361116b565b9150611622826115e1565b602082019050919050565b600060208201905081810360008301526116468161160a565b9050919050565b7f466565206d757374206265206c6f776572207468616e20313030250000000000600082015250565b6000611683601b8361116b565b915061168e8261164d565b602082019050919050565b600060208201905081810360008301526116b281611676565b9050919050565b7f496e76616c6964206c61756e6368706164496400000000000000000000000000600082015250565b60006116ef60138361116b565b91506116fa826116b9565b602082019050919050565b6000602082019050818103600083015261171e816116e2565b9050919050565b7f686176656e277420737461727465642079657400000000000000000000000000600082015250565b600061175b60138361116b565b915061176682611725565b602082019050919050565b6000602082019050818103600083015261178a8161174e565b9050919050565b7f697420616c726561647920656e64656400000000000000000000000000000000600082015250565b60006117c760108361116b565b91506117d282611791565b602082019050919050565b600060208201905081810360008301526117f6816117ba565b9050919050565b7f73656e64206d6f6e657920706c73000000000000000000000000000000000000600082015250565b6000611833600e8361116b565b915061183e826117fd565b602082019050919050565b6000602082019050818103600083015261186281611826565b9050919050565b7f596f7520657863656564656420746865206d6178696d756d206269642077686960008201527f6368206973203130302045544800000000000000000000000000000000000000602082015250565b60006118c5602d8361116b565b91506118d082611869565b604082019050919050565b600060208201905081810360008301526118f4816118b8565b9050919050565b600081905092915050565b50565b60006119166000836118fb565b915061192182611906565b600082019050919050565b600061193782611909565b9150819050919050565b7f4661696c656420746f2073656e64204574686572000000000000000000000000600082015250565b600061197760148361116b565b915061198282611941565b602082019050919050565b600060208201905081810360008301526119a68161196a565b9050919050565b7f74686174206e6f20657869737400000000000000000000000000000000000000600082015250565b60006119e3600d8361116b565b91506119ee826119ad565b602082019050919050565b60006020820190508181036000830152611a12816119d6565b905091905056fea26469706673582212200254b5ccc52a402ceb4d7deefd610d13ad19f1cc7a036ec8ffe4a2a6b42d735964736f6c63430008090033",
  "immutableReferences": {},
  "source": "// SPDX-License-Identifier: GPL-3.0\n\n/*\n1. Developer deposit tokens (Lee Min) \n- Handle max capacity\n- Handle time to start and end\n- tokens leave in contract\n- Percentage of acceptance (eg. 60%)\n\n2. User participate in crowdsale\n-  Record user purchase in credits\n- Check if sale already started and ended already\n- Only accept ETH\n- User purchase per limit\n\n3. After sales\n- check percentage, if not satisfy send tokens back to developer \n- pull over push method to let user withdraw\n- refund left crypto to developer (if have)\n\n4. Admin\n- withdraw all funds\n- lock contract \n- update admin (timelock?)\n\nTodo: \n- Fee calculations\n- Events should be emitted\n- Public getters\n- Price per token\n- Test cases to make sure everything works as expected\n- 10000000000000000000 fucking decimals\n- Map credit to multiple launchpad id\n\nDesign UI (Yuan Jie)\n*/\n\npragma solidity ^0.8.9;\n\ncontract LaunchPad {\n\n    //Admin variables\n    bool isLocked; //lock contract in case shit happens\n    address owner; //owner of this contract\n    uint fee = 5; //fee is 5% by default\n\n    //Launchpad variables\n    struct LaunchPadInformation {\n        uint startTimeStamp;\n        uint endTimeStamp;\n        uint acceptancePercentage;\n        uint totalTokens;\n        address sender;\n    }\n    mapping (uint => LaunchPadInformation) public launchpads;\n    uint public totalLaunchpads = 0;\n    uint minNumberofDays = 10;\n    uint minimumTokens = 1000;\n    uint maxNumberofDays = 60; \n    \n\n    mapping(address => uint) credits; //user bid money, save it here\n\n\n    //MODIFIERS \n\n    modifier onlyOwner() {\n        require(msg.sender == owner);\n        _;\n    }\n\n    modifier isLock() {\n        require(!isLocked, \"Contract is locked by admin\");\n        _;\n    }\n\n    //CONSTRUCTOR\n\n    constructor (bool _isLocked){\n        owner = msg.sender;\n        isLocked = _isLocked;\n    }\n\n    //DEVELOPER DEPOSIT\n    //TODO: should we use Unix timestamp? Or number of days?\n    function launchMyToken(uint256 _startTime, uint256 _numOfDays, uint _acceptedPercentage, uint _totalTokens) public payable isLock {\n\n        //would be cleaner if put into internal function\n        require(_startTime > block.timestamp, \"Cannot start in past date\"); //front-end should handle the conversion from date to Unix timestamp\n        require(_numOfDays <= minNumberofDays, \"Whoops, can't be that long\");\n        require(_numOfDays >= minNumberofDays, \"too short\"); \n        require(_numOfDays <= maxNumberofDays, \"Whoops, can't be that long\");\n        require(_acceptedPercentage >= 50, \"Must be over 50% acceptance\");\n        require(_acceptedPercentage <= 100, \"Must be less than 100% acceptance\");\n\n        //TODO: check for duplicate msg.sender, how?\n        //require(launchpads[msg.sender].endTimeStamp == 0, \"This account has an existing bid\");\n\n        //msg.value represents eth, we cannot do this, needs to change in future\n        //TODO: handle unlimited approval, transfer funds to this contract\n        //https://ethereum.stackexchange.com/questions/110972/how-to-transfer-erc20-tokens-to-a-contract-on-a-function-call\n        require(_totalTokens >= minimumTokens, \"Need more tokens to process\");\n\n        uint _endTimeStamp = block.timestamp + (_numOfDays * 1 days);\n        require(_endTimeStamp >= _startTime, \"something is really wrong here\");\n\n               \n        //if someone have a better idea lmk\n        //https://programtheblockchain.com/posts/2018/01/12/writing-a-contract-that-handles-time/\n        //see if you want handle time in Unix timestamp, or use days like start after 2 days then end in 30 days\n\n        //TODO: calculate fee based on fee = msg.value\n        //TODO: formula? \n\n        //increment lauchpad id\n        totalLaunchpads += 1;\n\n        //We assume msg.sender is developer, if it's not we are fucked up\n        launchpads[totalLaunchpads] = LaunchPadInformation(_startTime, _endTimeStamp, _acceptedPercentage, _totalTokens, msg.sender);\n \n    }\n\n    function getLaunchPadInformation(uint _launchPadId) public view returns (address) {\n        require(totalLaunchpads <= _launchPadId, \"that no exist\");\n        return launchpads[_launchPadId].sender;\n    }\n\n    //will remove in production\n    function whatTimeNow() public view returns (uint) {\n        return block.timestamp;\n    }\n\n    //USER OPERATIONS\n    function buyLaunchPadToken(uint _launchpadId) public payable isLock {\n        //check launchpadId stuff\n        require(_launchpadId <= totalLaunchpads, \"Invalid launchpadId\");\n        require(block.timestamp > launchpads[_launchpadId].startTimeStamp, \"haven't started yet\");\n        require(block.timestamp <= launchpads[_launchpadId].endTimeStamp, \"it already ended\");\n\n        //check msg.value to determine bid amount\n        require(msg.value > 0 ether, \"send money pls\");\n\n        //only allow maximum 100 eth per user\n        if ((credits[msg.sender] += msg.value) <= 100){\n            credits[msg.sender] += msg.value;\n        } else {\n            revert(\"You exceeded the maximum bid which is 100 ETH\");\n        }\n    }\n\n    //AFTER SALES\n    function settleLaunchPad() public isLock {\n        //check percentage\n        //\n        //if not enough percentage\n        //1. send all funds to developer\n        //2. allow user to withdraw ether\n\n        //if enough percentage\n        //1. send rest of tokens back to developer\n        //2. user withdraw erc20 token\n        //3. send ether to developer\n    }\n\n    //TODO: must be modified\n    function withdrawCredits() public isLock {\n        //check if launchpad is over end date\n\n        uint amount = credits[msg.sender];\n\n        require(amount != 0);\n        require(address(this).balance >= amount);\n\n        credits[msg.sender] = 0;\n\n        (bool sent, ) = msg.sender.call{value: amount}(\"\");\n        require(sent, \"Failed to send Ether\");\n    }\n\n    //ADMIN OPERATIONS\n    function changeMaxNumOfDays(uint _numOfDays) public onlyOwner {\n        maxNumberofDays = _numOfDays;\n        //emit event\n    }\n\n    function changeMinNumOfDays(uint _numOfDays) public onlyOwner {\n        minNumberofDays = _numOfDays;\n        //emit event\n    }\n\n    function changeMinimumTokens(uint _minimumTokens) public onlyOwner {\n        minimumTokens = _minimumTokens;\n        //emit event\n    }\n\n    function lockContract(bool _isLocked) public onlyOwner {\n        isLocked = _isLocked;\n    }\n\n    function changeFee(uint _fee) public onlyOwner {\n        //check fee rate range from 0%-100%\n        require(_fee > 0, \"Fee must be larger than 0%\");\n        require(_fee < 100, \"Fee must be lower than 100%\");\n        fee = _fee;\n    }\n\n    function changeOwner(address _newOwner) public onlyOwner {\n        //TODO: some checking to verify address\n        //TODO: add timelock\n        owner = _newOwner;\n    }\n\n}",
  "sourcePath": "/home/miao/Downloads/solidity/blockchain-assignment/contracts/Launchpad.sol",
  "compiler": {
    "name": "solc",
    "version": "0.8.9+commit.e5eed63a.Emscripten.clang"
  },
  "schemaVersion": "3.3.2",
  "updatedAt": "2021-11-26T04:25:41.496Z",
  "devdoc": {
    "kind": "dev",
    "methods": {},
    "version": 1
  },
  "userdoc": {
    "kind": "user",
    "methods": {},
    "version": 1
  }
}