{
  "contractName": "LaunchPad",
  "abi": [
    {
      "inputs": [
        {
          "internalType": "bool",
          "name": "_isLocked",
          "type": "bool"
        }
      ],
      "stateMutability": "nonpayable",
      "type": "constructor"
    },
    {
      "anonymous": false,
      "inputs": [
        {
          "indexed": false,
          "internalType": "uint256",
          "name": "_startTime",
          "type": "uint256"
        },
        {
          "indexed": false,
          "internalType": "uint256",
          "name": "_numOfDays",
          "type": "uint256"
        },
        {
          "indexed": false,
          "internalType": "uint256",
          "name": "_acceptedPercentage",
          "type": "uint256"
        },
        {
          "indexed": false,
          "internalType": "uint256",
          "name": "_pricePerToken",
          "type": "uint256"
        },
        {
          "indexed": false,
          "internalType": "uint256",
          "name": "_totalTokens",
          "type": "uint256"
        },
        {
          "indexed": false,
          "internalType": "address",
          "name": "_tokenAddress",
          "type": "address"
        }
      ],
      "name": "DepositToken",
      "type": "event"
    },
    {
      "anonymous": false,
      "inputs": [
        {
          "indexed": false,
          "internalType": "uint256",
          "name": "_numOfDays",
          "type": "uint256"
        }
      ],
      "name": "changeMaxDays",
      "type": "event"
    },
    {
      "anonymous": false,
      "inputs": [
        {
          "indexed": false,
          "internalType": "uint256",
          "name": "_numOfDays",
          "type": "uint256"
        }
      ],
      "name": "changeMinDays",
      "type": "event"
    },
    {
      "anonymous": false,
      "inputs": [
        {
          "indexed": false,
          "internalType": "uint256",
          "name": "_minimumTokens",
          "type": "uint256"
        }
      ],
      "name": "changeTokens",
      "type": "event"
    },
    {
      "anonymous": false,
      "inputs": [
        {
          "indexed": false,
          "internalType": "uint256",
          "name": "developerProfit",
          "type": "uint256"
        }
      ],
      "name": "succeedLaunchpad",
      "type": "event"
    },
    {
      "inputs": [],
      "name": "fee",
      "outputs": [
        {
          "internalType": "uint256",
          "name": "",
          "type": "uint256"
        }
      ],
      "stateMutability": "view",
      "type": "function"
    },
    {
      "inputs": [],
      "name": "isLocked",
      "outputs": [
        {
          "internalType": "bool",
          "name": "",
          "type": "bool"
        }
      ],
      "stateMutability": "view",
      "type": "function"
    },
    {
      "inputs": [
        {
          "internalType": "address",
          "name": "",
          "type": "address"
        }
      ],
      "name": "launchedTokens",
      "outputs": [
        {
          "internalType": "uint256",
          "name": "",
          "type": "uint256"
        }
      ],
      "stateMutability": "view",
      "type": "function"
    },
    {
      "inputs": [
        {
          "internalType": "uint256",
          "name": "",
          "type": "uint256"
        }
      ],
      "name": "launchpads",
      "outputs": [
        {
          "internalType": "uint256",
          "name": "startTimeStamp",
          "type": "uint256"
        },
        {
          "internalType": "uint256",
          "name": "endTimeStamp",
          "type": "uint256"
        },
        {
          "internalType": "uint256",
          "name": "acceptancePercentage",
          "type": "uint256"
        },
        {
          "internalType": "uint256",
          "name": "milestone",
          "type": "uint256"
        },
        {
          "internalType": "uint256",
          "name": "originalAmountofTokens",
          "type": "uint256"
        },
        {
          "internalType": "uint256",
          "name": "totalTokens",
          "type": "uint256"
        },
        {
          "internalType": "uint256",
          "name": "pricePerToken",
          "type": "uint256"
        },
        {
          "internalType": "address",
          "name": "sender",
          "type": "address"
        },
        {
          "internalType": "address",
          "name": "tokenAddress",
          "type": "address"
        },
        {
          "internalType": "bool",
          "name": "paid",
          "type": "bool"
        },
        {
          "internalType": "uint256",
          "name": "creditType",
          "type": "uint256"
        }
      ],
      "stateMutability": "view",
      "type": "function"
    },
    {
      "inputs": [],
      "name": "maxNumberofDays",
      "outputs": [
        {
          "internalType": "uint256",
          "name": "",
          "type": "uint256"
        }
      ],
      "stateMutability": "view",
      "type": "function"
    },
    {
      "inputs": [],
      "name": "minNumberofDays",
      "outputs": [
        {
          "internalType": "uint256",
          "name": "",
          "type": "uint256"
        }
      ],
      "stateMutability": "view",
      "type": "function"
    },
    {
      "inputs": [],
      "name": "minimumTokens",
      "outputs": [
        {
          "internalType": "uint256",
          "name": "",
          "type": "uint256"
        }
      ],
      "stateMutability": "view",
      "type": "function"
    },
    {
      "inputs": [],
      "name": "owner",
      "outputs": [
        {
          "internalType": "address",
          "name": "",
          "type": "address"
        }
      ],
      "stateMutability": "view",
      "type": "function"
    },
    {
      "inputs": [],
      "name": "totalLaunchpads",
      "outputs": [
        {
          "internalType": "uint256",
          "name": "",
          "type": "uint256"
        }
      ],
      "stateMutability": "view",
      "type": "function"
    },
    {
      "inputs": [
        {
          "internalType": "address",
          "name": "",
          "type": "address"
        }
      ],
      "name": "userCredits",
      "outputs": [
        {
          "internalType": "uint256",
          "name": "credits",
          "type": "uint256"
        },
        {
          "internalType": "address",
          "name": "tokenAddress",
          "type": "address"
        }
      ],
      "stateMutability": "view",
      "type": "function"
    },
    {
      "inputs": [
        {
          "internalType": "uint256",
          "name": "_startTime",
          "type": "uint256"
        },
        {
          "internalType": "uint256",
          "name": "_numOfDays",
          "type": "uint256"
        },
        {
          "internalType": "uint256",
          "name": "_acceptedPercentage",
          "type": "uint256"
        },
        {
          "internalType": "uint256",
          "name": "_pricePerToken",
          "type": "uint256"
        },
        {
          "internalType": "uint256",
          "name": "_totalTokens",
          "type": "uint256"
        },
        {
          "internalType": "address",
          "name": "_tokenAddress",
          "type": "address"
        }
      ],
      "name": "launchMyToken",
      "outputs": [],
      "stateMutability": "payable",
      "type": "function"
    },
    {
      "inputs": [
        {
          "internalType": "uint256",
          "name": "_launchpadId",
          "type": "uint256"
        }
      ],
      "name": "buyLaunchPadToken",
      "outputs": [],
      "stateMutability": "payable",
      "type": "function"
    },
    {
      "inputs": [
        {
          "internalType": "uint256",
          "name": "_launchpadId",
          "type": "uint256"
        }
      ],
      "name": "settleLaunchPad",
      "outputs": [],
      "stateMutability": "nonpayable",
      "type": "function"
    },
    {
      "inputs": [
        {
          "internalType": "uint256",
          "name": "_launchPadId",
          "type": "uint256"
        }
      ],
      "name": "withdrawCredits",
      "outputs": [],
      "stateMutability": "nonpayable",
      "type": "function"
    },
    {
      "inputs": [
        {
          "internalType": "uint256",
          "name": "_numOfDays",
          "type": "uint256"
        }
      ],
      "name": "changeMaxNumOfDays",
      "outputs": [],
      "stateMutability": "nonpayable",
      "type": "function"
    },
    {
      "inputs": [
        {
          "internalType": "uint256",
          "name": "_numOfDays",
          "type": "uint256"
        }
      ],
      "name": "changeMinNumOfDays",
      "outputs": [],
      "stateMutability": "nonpayable",
      "type": "function"
    },
    {
      "inputs": [
        {
          "internalType": "uint256",
          "name": "_minimumTokens",
          "type": "uint256"
        }
      ],
      "name": "changeMinimumTokens",
      "outputs": [],
      "stateMutability": "nonpayable",
      "type": "function"
    },
    {
      "inputs": [
        {
          "internalType": "bool",
          "name": "_isLocked",
          "type": "bool"
        }
      ],
      "name": "lockContract",
      "outputs": [],
      "stateMutability": "nonpayable",
      "type": "function"
    },
    {
      "inputs": [
        {
          "internalType": "uint256",
          "name": "_fee",
          "type": "uint256"
        }
      ],
      "name": "changeFee",
      "outputs": [],
      "stateMutability": "nonpayable",
      "type": "function"
    },
    {
      "inputs": [
        {
          "internalType": "address",
          "name": "_newOwner",
          "type": "address"
        }
      ],
      "name": "changeOwner",
      "outputs": [],
      "stateMutability": "nonpayable",
      "type": "function"
    },
    {
      "inputs": [
        {
          "internalType": "uint256",
          "name": "_launchPadId",
          "type": "uint256"
        }
      ],
      "name": "retrievePriceForToken",
      "outputs": [
        {
          "internalType": "uint256",
          "name": "",
          "type": "uint256"
        }
      ],
      "stateMutability": "view",
      "type": "function"
    },
    {
      "inputs": [
        {
          "internalType": "uint256",
          "name": "_launchPadId",
          "type": "uint256"
        }
      ],
      "name": "getMaxBuyValueForToken",
      "outputs": [
        {
          "internalType": "uint256",
          "name": "",
          "type": "uint256"
        }
      ],
      "stateMutability": "view",
      "type": "function"
    },
    {
      "inputs": [
        {
          "internalType": "uint256",
          "name": "_totalTokens",
          "type": "uint256"
        }
      ],
      "name": "calculateFee",
      "outputs": [
        {
          "internalType": "uint256",
          "name": "",
          "type": "uint256"
        }
      ],
      "stateMutability": "view",
      "type": "function"
    },
    {
      "inputs": [
        {
          "internalType": "uint256",
          "name": "_totalTokens",
          "type": "uint256"
        },
        {
          "internalType": "uint256",
          "name": "_acceptedRate",
          "type": "uint256"
        }
      ],
      "name": "calculateAcceptanceRate",
      "outputs": [
        {
          "internalType": "uint256",
          "name": "",
          "type": "uint256"
        }
      ],
      "stateMutability": "pure",
      "type": "function"
    },
    {
      "inputs": [
        {
          "internalType": "uint256",
          "name": "_totalTokens",
          "type": "uint256"
        }
      ],
      "name": "estimateProtocolFee",
      "outputs": [
        {
          "internalType": "uint256",
          "name": "",
          "type": "uint256"
        }
      ],
      "stateMutability": "view",
      "type": "function"
    }
  ],
  "bytecode": "0x6080604052600180556000600355600a6005556103e8600655603c6007553480156200002a57600080fd5b5060405162004003380380620040038339818101604052810190620000509190620000f3565b33600060016101000a81548173ffffffffffffffffffffffffffffffffffffffff021916908373ffffffffffffffffffffffffffffffffffffffff160217905550806000806101000a81548160ff0219169083151502179055505062000125565b600080fd5b60008115159050919050565b620000cd81620000b6565b8114620000d957600080fd5b50565b600081519050620000ed81620000c2565b92915050565b6000602082840312156200010c576200010b620000b1565b5b60006200011c84828501620000dc565b91505092915050565b613ece80620001356000396000f3fe6080604052600436106101665760003560e01c80638da5cb5b116100d1578063bfeab6e51161008a578063d84244da11610064578063d84244da1461054f578063ddca3f431461058c578063e8b90cc6146105b7578063fa5a7361146105e057610166565b8063bfeab6e5146104aa578063c06ca1dd146104e7578063cfc895cb1461051257610166565b80638da5cb5b1461038657806399a5d747146103b1578063a4e2d634146103ee578063a6f9dae114610419578063aebc47f314610442578063bc96bc271461047f57610166565b80635bbfdb0c116101235780635bbfdb0c1461027f5780635be5f0bc146102a8578063677ef683146102ef5780636a1db1bf146103185780636c1e4fb614610341578063897cceee1461035d57610166565b8063025302c81461016b57806309ed1782146101a857806320babb92146101d157806321ecdd321461020f5780634056f8a8146102385780634f31804514610263575b600080fd5b34801561017757600080fd5b50610192600480360381019061018d9190612660565b61060b565b60405161019f91906126af565b60405180910390f35b3480156101b457600080fd5b506101cf60048036038101906101ca91906126ca565b610632565b005b3480156101dd57600080fd5b506101f860048036038101906101f39190612755565b6109e6565b604051610206929190612791565b60405180910390f35b34801561021b57600080fd5b50610236600480360381019061023191906126ca565b610a2a565b005b34801561024457600080fd5b5061024d610b42565b60405161025a91906126af565b60405180910390f35b61027d600480360381019061027891906127ba565b610b48565b005b34801561028b57600080fd5b506102a660048036038101906102a191906126ca565b61143f565b005b3480156102b457600080fd5b506102cf60048036038101906102ca91906126ca565b611557565b6040516102e69b9a99989796959493929190612862565b60405180910390f35b3480156102fb57600080fd5b50610316600480360381019061031191906126ca565b6115fe565b005b34801561032457600080fd5b5061033f600480360381019061033a91906126ca565b61180d565b005b61035b600480360381019061035691906126ca565b61192d565b005b34801561036957600080fd5b50610384600480360381019061037f9190612939565b611df7565b005b34801561039257600080fd5b5061039b611ea3565b6040516103a89190612966565b60405180910390f35b3480156103bd57600080fd5b506103d860048036038101906103d391906126ca565b611ec9565b6040516103e591906126af565b60405180910390f35b3480156103fa57600080fd5b50610403611f03565b6040516104109190612981565b60405180910390f35b34801561042557600080fd5b50610440600480360381019061043b9190612755565b611f14565b005b34801561044e57600080fd5b50610469600480360381019061046491906126ca565b612058565b60405161047691906126af565b60405180910390f35b34801561048b57600080fd5b506104946120a4565b6040516104a191906126af565b60405180910390f35b3480156104b657600080fd5b506104d160048036038101906104cc9190612755565b6120aa565b6040516104de91906126af565b60405180910390f35b3480156104f357600080fd5b506104fc6120c2565b60405161050991906126af565b60405180910390f35b34801561051e57600080fd5b50610539600480360381019061053491906126ca565b6120c8565b60405161054691906126af565b60405180910390f35b34801561055b57600080fd5b50610576600480360381019061057191906126ca565b61216b565b60405161058391906126af565b60405180910390f35b34801561059857600080fd5b506105a161219e565b6040516105ae91906126af565b60405180910390f35b3480156105c357600080fd5b506105de60048036038101906105d991906126ca565b6121a4565b005b3480156105ec57600080fd5b506105f56122ba565b60405161060291906126af565b60405180910390f35b6000806064838561061c91906129cb565b6106269190612a54565b90508091505092915050565b8060006002600083815260200190815260200160002060090154141561068d576040517f08c379a000000000000000000000000000000000000000000000000000000000815260040161068490612ae2565b60405180910390fd5b6000600860003373ffffffffffffffffffffffffffffffffffffffff1673ffffffffffffffffffffffffffffffffffffffff168152602001908152602001600020600001549050600354831115610719576040517f08c379a000000000000000000000000000000000000000000000000000000000815260040161071090612b4e565b60405180910390fd5b600081141561075d576040517f08c379a000000000000000000000000000000000000000000000000000000000815260040161075490612bba565b60405180910390fd5b804710156107a0576040517f08c379a000000000000000000000000000000000000000000000000000000000815260040161079790612c26565b60405180910390fd5b6000600860003373ffffffffffffffffffffffffffffffffffffffff1673ffffffffffffffffffffffffffffffffffffffff168152602001908152602001600020600001819055506001600260008581526020019081526020016000206009015414156108b95760003373ffffffffffffffffffffffffffffffffffffffff168260405161082d90612c77565b60006040518083038185875af1925050503d806000811461086a576040519150601f19603f3d011682016040523d82523d6000602084013e61086f565b606091505b50509050806108b3576040517f08c379a00000000000000000000000000000000000000000000000000000000081526004016108aa90612cd8565b60405180910390fd5b506109e1565b60028060008581526020019081526020016000206009015414156109e05760006002600085815260200190815260200160002060080160009054906101000a900473ffffffffffffffffffffffffffffffffffffffff1690508073ffffffffffffffffffffffffffffffffffffffff1663a9059cbb33846040518363ffffffff1660e01b815260040161094d929190612cf8565b602060405180830381600087803b15801561096757600080fd5b505af115801561097b573d6000803e3d6000fd5b505050506040513d601f19601f8201168201806040525081019061099f9190612d36565b6109de576040517f08c379a00000000000000000000000000000000000000000000000000000000081526004016109d590612daf565b60405180910390fd5b505b5b505050565b60086020528060005260406000206000915090508060000154908060010160009054906101000a900473ffffffffffffffffffffffffffffffffffffffff16905082565b600060019054906101000a900473ffffffffffffffffffffffffffffffffffffffff1673ffffffffffffffffffffffffffffffffffffffff163373ffffffffffffffffffffffffffffffffffffffff1614610aba576040517f08c379a0000000000000000000000000000000000000000000000000000000008152600401610ab190612e1b565b60405180910390fd5b600554811015610aff576040517f08c379a0000000000000000000000000000000000000000000000000000000008152600401610af690612ead565b60405180910390fd5b806007819055507f0b26d58d207871fa7b6481a3e958baf2fc3693e42739e543a1b5cde6c8a7f316600754604051610b3791906126af565b60405180910390a150565b60065481565b60008054906101000a900460ff1615610b96576040517f08c379a0000000000000000000000000000000000000000000000000000000008152600401610b8d90612f19565b60405180910390fd5b42861015610ba2574295505b600554851015610be7576040517f08c379a0000000000000000000000000000000000000000000000000000000008152600401610bde90612f85565b60405180910390fd5b600754851115610c2c576040517f08c379a0000000000000000000000000000000000000000000000000000000008152600401610c2390612ff1565b60405180910390fd5b60006201518086610c3d91906129cb565b42610c489190613011565b905086811015610c8d576040517f08c379a0000000000000000000000000000000000000000000000000000000008152600401610c84906130b3565b60405180910390fd5b6032851015610cd1576040517f08c379a0000000000000000000000000000000000000000000000000000000008152600401610cc89061311f565b60405180910390fd5b6064851115610d15576040517f08c379a0000000000000000000000000000000000000000000000000000000008152600401610d0c906131b1565b60405180910390fd5b600654831015610d5a576040517f08c379a0000000000000000000000000000000000000000000000000000000008152600401610d519061321d565b60405180910390fd5b6000610d6584611ec9565b905080341015610daa576040517f08c379a0000000000000000000000000000000000000000000000000000000008152600401610da190613289565b60405180910390fd5b6001851015610dee576040517f08c379a0000000000000000000000000000000000000000000000000000000008152600401610de5906132f5565b60405180910390fd5b670de0b6b3a7640000851115610e39576040517f08c379a0000000000000000000000000000000000000000000000000000000008152600401610e3090613387565b60405180910390fd5b6000600460008573ffffffffffffffffffffffffffffffffffffffff1673ffffffffffffffffffffffffffffffffffffffff1681526020019081526020016000205414610ebb576040517f08c379a0000000000000000000000000000000000000000000000000000000008152600401610eb290613419565b60405180910390fd5b6000610ec7858861060b565b9050600160036000828254610edc9190613011565b92505081905550600354600460008673ffffffffffffffffffffffffffffffffffffffff1673ffffffffffffffffffffffffffffffffffffffff168152602001908152602001600020819055506040518061016001604052808a81526020018481526020018881526020018281526020018681526020018681526020018781526020013373ffffffffffffffffffffffffffffffffffffffff1681526020018573ffffffffffffffffffffffffffffffffffffffff1681526020016000151581526020016000815250600260006003548152602001908152602001600020600082015181600001556020820151816001015560408201518160020155606082015181600301556080820151816004015560a0820151816005015560c0820151816006015560e08201518160070160006101000a81548173ffffffffffffffffffffffffffffffffffffffff021916908373ffffffffffffffffffffffffffffffffffffffff1602179055506101008201518160080160006101000a81548173ffffffffffffffffffffffffffffffffffffffff021916908373ffffffffffffffffffffffffffffffffffffffff1602179055506101208201518160080160146101000a81548160ff0219169083151502179055506101408201518160090155905050600084905060128173ffffffffffffffffffffffffffffffffffffffff1663313ce5676040518163ffffffff1660e01b815260040160206040518083038186803b15801561110b57600080fd5b505afa15801561111f573d6000803e3d6000fd5b505050506040513d601f19601f820116820180604052508101906111439190613472565b60ff1614611186576040517f08c379a000000000000000000000000000000000000000000000000000000000815260040161117d90613511565b60405180910390fd5b60008173ffffffffffffffffffffffffffffffffffffffff166370a08231336040518263ffffffff1660e01b81526004016111c19190612966565b60206040518083038186803b1580156111d957600080fd5b505afa1580156111ed573d6000803e3d6000fd5b505050506040513d601f19601f820116820180604052508101906112119190613546565b905086811015611256576040517f08c379a000000000000000000000000000000000000000000000000000000000815260040161124d906135e5565b60405180910390fd5b868273ffffffffffffffffffffffffffffffffffffffff1663dd62ed3e33306040518363ffffffff1660e01b8152600401611292929190613605565b60206040518083038186803b1580156112aa57600080fd5b505afa1580156112be573d6000803e3d6000fd5b505050506040513d601f19601f820116820180604052508101906112e29190613546565b1015611323576040517f08c379a000000000000000000000000000000000000000000000000000000000815260040161131a9061367a565b60405180910390fd5b8173ffffffffffffffffffffffffffffffffffffffff166323b872dd33308a6040518463ffffffff1660e01b81526004016113609392919061369a565b602060405180830381600087803b15801561137a57600080fd5b505af115801561138e573d6000803e3d6000fd5b505050506040513d601f19601f820116820180604052508101906113b29190612d36565b6113f1576040517f08c379a00000000000000000000000000000000000000000000000000000000081526004016113e89061371d565b60405180910390fd5b7ff349a5561a5b5b67c42c6d238c581ea38682ff0909602bc11356e94e231c872d8b8b8b8b8b8b60405161142a9695949392919061373d565b60405180910390a15050505050505050505050565b600060019054906101000a900473ffffffffffffffffffffffffffffffffffffffff1673ffffffffffffffffffffffffffffffffffffffff163373ffffffffffffffffffffffffffffffffffffffff16146114cf576040517f08c379a00000000000000000000000000000000000000000000000000000000081526004016114c690612e1b565b60405180910390fd5b600754811115611514576040517f08c379a000000000000000000000000000000000000000000000000000000000815260040161150b90613810565b60405180910390fd5b806005819055507f42cbadd085735291b6a01da1498f497e5d86a74f8927dace693bf71c0606cbf660055460405161154c91906126af565b60405180910390a150565b60026020528060005260406000206000915090508060000154908060010154908060020154908060030154908060040154908060050154908060060154908060070160009054906101000a900473ffffffffffffffffffffffffffffffffffffffff16908060080160009054906101000a900473ffffffffffffffffffffffffffffffffffffffff16908060080160149054906101000a900460ff1690806009015490508b565b600354811115611643576040517f08c379a000000000000000000000000000000000000000000000000000000000815260040161163a90612b4e565b60405180910390fd5b600015156002600083815260200190815260200160002060080160149054906101000a900460ff161515146116ad576040517f08c379a00000000000000000000000000000000000000000000000000000000081526004016116a49061387c565b60405180910390fd5b600080600260008481526020019081526020016000206005015460026000858152602001908152602001600020600401546116e8919061389c565b9050600260008481526020019081526020016000206003015481106117105760019150611715565b600091505b60006002600085815260200190815260200160002060010154421061173d5760019050611742565b600090505b806117db57821561179b5760006002600086815260200190815260200160002060050154141561177a57611775846122c0565b611796565b6002806000868152602001908152602001600020600901819055505b6117d6565b6040517f08c379a00000000000000000000000000000000000000000000000000000000081526004016117cd9061391c565b60405180910390fd5b611807565b80156118065782156117f5576117f0846122c0565b611805565b82611804576118038461247d565b5b5b5b5b50505050565b600060019054906101000a900473ffffffffffffffffffffffffffffffffffffffff1673ffffffffffffffffffffffffffffffffffffffff163373ffffffffffffffffffffffffffffffffffffffff161461189d576040517f08c379a000000000000000000000000000000000000000000000000000000000815260040161189490612e1b565b60405180910390fd5b600081116118e0576040517f08c379a00000000000000000000000000000000000000000000000000000000081526004016118d790613988565b60405180910390fd5b60648110611923576040517f08c379a000000000000000000000000000000000000000000000000000000000815260040161191a906139f4565b60405180910390fd5b8060018190555050565b60008054906101000a900460ff161561197b576040517f08c379a000000000000000000000000000000000000000000000000000000000815260040161197290612f19565b60405180910390fd5b6002600082815260200190815260200160002060070160009054906101000a900473ffffffffffffffffffffffffffffffffffffffff1673ffffffffffffffffffffffffffffffffffffffff163373ffffffffffffffffffffffffffffffffffffffff161415611a20576040517f08c379a0000000000000000000000000000000000000000000000000000000008152600401611a1790613a86565b60405180910390fd5b600354811115611a65576040517f08c379a0000000000000000000000000000000000000000000000000000000008152600401611a5c90612b4e565b60405180910390fd5b6002600082815260200190815260200160002060000154421015611abe576040517f08c379a0000000000000000000000000000000000000000000000000000000008152600401611ab590613af2565b60405180910390fd5b6002600082815260200190815260200160002060010154421115611b17576040517f08c379a0000000000000000000000000000000000000000000000000000000008152600401611b0e90613b5e565b60405180910390fd5b6000600260008381526020019081526020016000206005015411611b70576040517f08c379a0000000000000000000000000000000000000000000000000000000008152600401611b6790613bca565b60405180910390fd5b600060026000838152602001908152602001600020600601549050600081670de0b6b3a7640000611ba19190612a54565b905080341015611be6576040517f08c379a0000000000000000000000000000000000000000000000000000000008152600401611bdd90613c5c565b60405180910390fd5b60008234611bf491906129cb565b90506000670de0b6b3a764000082611c0c9190612a54565b90508060026000878152602001908152602001600020600501541015611c67576040517f08c379a0000000000000000000000000000000000000000000000000000000008152600401611c5e90613cc8565b60405180910390fd5b806002600087815260200190815260200160002060050154611c89919061389c565b60026000878152602001908152602001600020600501819055506000600860003373ffffffffffffffffffffffffffffffffffffffff1673ffffffffffffffffffffffffffffffffffffffff16815260200190815260200160002060000154905060008282611cf89190613011565b90506040518060400160405280828152602001600260008a815260200190815260200160002060080160009054906101000a900473ffffffffffffffffffffffffffffffffffffffff1673ffffffffffffffffffffffffffffffffffffffff16815250600860003373ffffffffffffffffffffffffffffffffffffffff1673ffffffffffffffffffffffffffffffffffffffff1681526020019081526020016000206000820151816000015560208201518160010160006101000a81548173ffffffffffffffffffffffffffffffffffffffff021916908373ffffffffffffffffffffffffffffffffffffffff16021790555090505050505050505050565b600060019054906101000a900473ffffffffffffffffffffffffffffffffffffffff1673ffffffffffffffffffffffffffffffffffffffff163373ffffffffffffffffffffffffffffffffffffffff1614611e87576040517f08c379a0000000000000000000000000000000000000000000000000000000008152600401611e7e90612e1b565b60405180910390fd5b806000806101000a81548160ff02191690831515021790555050565b600060019054906101000a900473ffffffffffffffffffffffffffffffffffffffff1681565b600080606460015484611edc91906129cb565b611ee69190612a54565b9050662386f26fc1000081611efb91906129cb565b915050919050565b60008054906101000a900460ff1681565b600060019054906101000a900473ffffffffffffffffffffffffffffffffffffffff1673ffffffffffffffffffffffffffffffffffffffff163373ffffffffffffffffffffffffffffffffffffffff1614611fa4576040517f08c379a0000000000000000000000000000000000000000000000000000000008152600401611f9b90612e1b565b60405180910390fd5b600073ffffffffffffffffffffffffffffffffffffffff168173ffffffffffffffffffffffffffffffffffffffff161415612014576040517f08c379a000000000000000000000000000000000000000000000000000000000815260040161200b90613d34565b60405180910390fd5b80600060016101000a81548173ffffffffffffffffffffffffffffffffffffffff021916908373ffffffffffffffffffffffffffffffffffffffff16021790555050565b60008060015490506000662386f26fc10000905060006064838661207c91906129cb565b6120869190612a54565b90506000828261209691906129cb565b905080945050505050919050565b60075481565b60046020528060005260406000206000915090505481565b60035481565b600080600260008481526020019081526020016000206005015490506000811415612128576040517f08c379a000000000000000000000000000000000000000000000000000000000815260040161211f90613da0565b60405180910390fd5b60006002600085815260200190815260200160002060060154670de0b6b3a76400006121549190612a54565b9050808261216291906129cb565b92505050919050565b60006002600083815260200190815260200160002060060154670de0b6b3a76400006121979190612a54565b9050919050565b60015481565b600060019054906101000a900473ffffffffffffffffffffffffffffffffffffffff1673ffffffffffffffffffffffffffffffffffffffff163373ffffffffffffffffffffffffffffffffffffffff1614612234576040517f08c379a000000000000000000000000000000000000000000000000000000000815260040161222b90612e1b565b60405180910390fd5b60008111612277576040517f08c379a000000000000000000000000000000000000000000000000000000000815260040161226e90613e0c565b60405180910390fd5b806006819055507f328db17120caa4c283f2086572f767f14d471acf104900d1ee3a2ad85f184d1a6006546040516122af91906126af565b60405180910390a150565b60055481565b60016002600083815260200190815260200160002060080160146101000a81548160ff02191690831515021790555060028060008381526020019081526020016000206009018190555060006002600083815260200190815260200160002060060154670de0b6b3a76400006123369190612a54565b9050600081600260008581526020019081526020016000206004015461235c91906129cb565b905060006002600085815260200190815260200160002060070160009054906101000a900473ffffffffffffffffffffffffffffffffffffffff1673ffffffffffffffffffffffffffffffffffffffff16826040516123ba90612c77565b60006040518083038185875af1925050503d80600081146123f7576040519150601f19603f3d011682016040523d82523d6000602084013e6123fc565b606091505b5050905080612440576040517f08c379a000000000000000000000000000000000000000000000000000000000815260040161243790612cd8565b60405180910390fd5b7fa2f987465605050caa2fa2eb7b6d8fdacd08377a37adaaa4533c734b81dded6c8260405161246f91906126af565b60405180910390a150505050565b60016002600083815260200190815260200160002060080160146101000a81548160ff0219169083151502179055506001600260008381526020019081526020016000206009018190555060006002600083815260200190815260200160002060080160009054906101000a900473ffffffffffffffffffffffffffffffffffffffff1690506000600260008481526020019081526020016000206004015490508173ffffffffffffffffffffffffffffffffffffffff1663a9059cbb6002600086815260200190815260200160002060070160009054906101000a900473ffffffffffffffffffffffffffffffffffffffff16836040518363ffffffff1660e01b815260040161258f929190612cf8565b602060405180830381600087803b1580156125a957600080fd5b505af11580156125bd573d6000803e3d6000fd5b505050506040513d601f19601f820116820180604052508101906125e19190612d36565b612620576040517f08c379a000000000000000000000000000000000000000000000000000000000815260040161261790613e78565b60405180910390fd5b505050565b600080fd5b6000819050919050565b61263d8161262a565b811461264857600080fd5b50565b60008135905061265a81612634565b92915050565b6000806040838503121561267757612676612625565b5b60006126858582860161264b565b92505060206126968582860161264b565b9150509250929050565b6126a98161262a565b82525050565b60006020820190506126c460008301846126a0565b92915050565b6000602082840312156126e0576126df612625565b5b60006126ee8482850161264b565b91505092915050565b600073ffffffffffffffffffffffffffffffffffffffff82169050919050565b6000612722826126f7565b9050919050565b61273281612717565b811461273d57600080fd5b50565b60008135905061274f81612729565b92915050565b60006020828403121561276b5761276a612625565b5b600061277984828501612740565b91505092915050565b61278b81612717565b82525050565b60006040820190506127a660008301856126a0565b6127b36020830184612782565b9392505050565b60008060008060008060c087890312156127d7576127d6612625565b5b60006127e589828a0161264b565b96505060206127f689828a0161264b565b955050604061280789828a0161264b565b945050606061281889828a0161264b565b935050608061282989828a0161264b565b92505060a061283a89828a01612740565b9150509295509295509295565b60008115159050919050565b61285c81612847565b82525050565b600061016082019050612878600083018e6126a0565b612885602083018d6126a0565b612892604083018c6126a0565b61289f606083018b6126a0565b6128ac608083018a6126a0565b6128b960a08301896126a0565b6128c660c08301886126a0565b6128d360e0830187612782565b6128e1610100830186612782565b6128ef610120830185612853565b6128fd6101408301846126a0565b9c9b505050505050505050505050565b61291681612847565b811461292157600080fd5b50565b6000813590506129338161290d565b92915050565b60006020828403121561294f5761294e612625565b5b600061295d84828501612924565b91505092915050565b600060208201905061297b6000830184612782565b92915050565b60006020820190506129966000830184612853565b92915050565b7f4e487b7100000000000000000000000000000000000000000000000000000000600052601160045260246000fd5b60006129d68261262a565b91506129e18361262a565b9250817fffffffffffffffffffffffffffffffffffffffffffffffffffffffffffffffff0483118215151615612a1a57612a1961299c565b5b828202905092915050565b7f4e487b7100000000000000000000000000000000000000000000000000000000600052601260045260246000fd5b6000612a5f8261262a565b9150612a6a8361262a565b925082612a7a57612a79612a25565b5b828204905092915050565b600082825260208201905092915050565b7f726566756e642074797065206e6f742073657420796574210000000000000000600082015250565b6000612acc601883612a85565b9150612ad782612a96565b602082019050919050565b60006020820190508181036000830152612afb81612abf565b9050919050565b7f496e76616c6964206c61756e6368706164496400000000000000000000000000600082015250565b6000612b38601383612a85565b9150612b4382612b02565b602082019050919050565b60006020820190508181036000830152612b6781612b2b565b9050919050565b7f6e6f7468696e6720746f20776974686472617700000000000000000000000000600082015250565b6000612ba4601383612a85565b9150612baf82612b6e565b602082019050919050565b60006020820190508181036000830152612bd381612b97565b9050919050565b7f6e6f7420656e6f7567682062616c616e636520746f2077697468647261770000600082015250565b6000612c10601e83612a85565b9150612c1b82612bda565b602082019050919050565b60006020820190508181036000830152612c3f81612c03565b9050919050565b600081905092915050565b50565b6000612c61600083612c46565b9150612c6c82612c51565b600082019050919050565b6000612c8282612c54565b9150819050919050565b7f4661696c656420746f2073656e64204574686572000000000000000000000000600082015250565b6000612cc2601483612a85565b9150612ccd82612c8c565b602082019050919050565b60006020820190508181036000830152612cf181612cb5565b9050919050565b6000604082019050612d0d6000830185612782565b612d1a60208301846126a0565b9392505050565b600081519050612d308161290d565b92915050565b600060208284031215612d4c57612d4b612625565b5b6000612d5a84828501612d21565b91505092915050565b7f756e61626c6520746f2073656e64206d6f6e6579000000000000000000000000600082015250565b6000612d99601483612a85565b9150612da482612d63565b602082019050919050565b60006020820190508181036000830152612dc881612d8c565b9050919050565b7f4f6e6c79206f776e65722063616e206578656375746500000000000000000000600082015250565b6000612e05601683612a85565b9150612e1082612dcf565b602082019050919050565b60006020820190508181036000830152612e3481612df8565b9050919050565b7f537570706c696564206461797320697320736d616c6c6572207468616e206d6960008201527f6e696d756d206e756d626572206f662064617973000000000000000000000000602082015250565b6000612e97603483612a85565b9150612ea282612e3b565b604082019050919050565b60006020820190508181036000830152612ec681612e8a565b9050919050565b7f436f6e7472616374206973206c6f636b65642062792061646d696e0000000000600082015250565b6000612f03601b83612a85565b9150612f0e82612ecd565b602082019050919050565b60006020820190508181036000830152612f3281612ef6565b9050919050565b7f746f6f2073686f72740000000000000000000000000000000000000000000000600082015250565b6000612f6f600983612a85565b9150612f7a82612f39565b602082019050919050565b60006020820190508181036000830152612f9e81612f62565b9050919050565b7f57686f6f70732c2063616e27742062652074686174206c6f6e67000000000000600082015250565b6000612fdb601a83612a85565b9150612fe682612fa5565b602082019050919050565b6000602082019050818103600083015261300a81612fce565b9050919050565b600061301c8261262a565b91506130278361262a565b9250827fffffffffffffffffffffffffffffffffffffffffffffffffffffffffffffffff0382111561305c5761305b61299c565b5b828201905092915050565b7f736f6d657468696e67206973207265616c6c792077726f6e6720686572650000600082015250565b600061309d601e83612a85565b91506130a882613067565b602082019050919050565b600060208201905081810360008301526130cc81613090565b9050919050565b7f4d757374206265206f7665722035302520616363657074616e63650000000000600082015250565b6000613109601b83612a85565b9150613114826130d3565b602082019050919050565b60006020820190508181036000830152613138816130fc565b9050919050565b7f4d757374206265206c657373207468616e203130302520616363657074616e6360008201527f6500000000000000000000000000000000000000000000000000000000000000602082015250565b600061319b602183612a85565b91506131a68261313f565b604082019050919050565b600060208201905081810360008301526131ca8161318e565b9050919050565b7f4e656564206d6f726520746f6b656e7320746f2070726f636573730000000000600082015250565b6000613207601b83612a85565b9150613212826131d1565b602082019050919050565b60006020820190508181036000830152613236816131fa565b9050919050565b7f4e6f7420656e6f75676820666565732070616964000000000000000000000000600082015250565b6000613273601483612a85565b915061327e8261323d565b602082019050919050565b600060208201905081810360008301526132a281613266565b9050919050565b7f6d617820312065746865722070657220746f6b656e0000000000000000000000600082015250565b60006132df601583612a85565b91506132ea826132a9565b602082019050919050565b6000602082019050818103600083015261330e816132d2565b9050919050565b7f796f75206578636565646564206d696e696d756d205f7072696365506572546f60008201527f6b656e0000000000000000000000000000000000000000000000000000000000602082015250565b6000613371602383612a85565b915061337c82613315565b604082019050919050565b600060208201905081810360008301526133a081613364565b9050919050565b7f54686973206163636f756e742068617320616e206578697374696e67206c617560008201527f6e63687061640000000000000000000000000000000000000000000000000000602082015250565b6000613403602683612a85565b915061340e826133a7565b604082019050919050565b60006020820190508181036000830152613432816133f6565b9050919050565b600060ff82169050919050565b61344f81613439565b811461345a57600080fd5b50565b60008151905061346c81613446565b92915050565b60006020828403121561348857613487612625565b5b60006134968482850161345d565b91505092915050565b7f5765206f6e6c792061636365707420313820646563696d616c7320746f6b656e60008201527f7300000000000000000000000000000000000000000000000000000000000000602082015250565b60006134fb602183612a85565b91506135068261349f565b604082019050919050565b6000602082019050818103600083015261352a816134ee565b9050919050565b60008151905061354081612634565b92915050565b60006020828403121561355c5761355b612625565b5b600061356a84828501613531565b91505092915050565b7f4e6f7420656e6f7567682066756e647320696e2073656e6465722062616c616e60008201527f6365210000000000000000000000000000000000000000000000000000000000602082015250565b60006135cf602383612a85565b91506135da82613573565b604082019050919050565b600060208201905081810360008301526135fe816135c2565b9050919050565b600060408201905061361a6000830185612782565b6136276020830184612782565b9392505050565b7f496e737566696369656e7420616c6c6f77616e63650000000000000000000000600082015250565b6000613664601583612a85565b915061366f8261362e565b602082019050919050565b6000602082019050818103600083015261369381613657565b9050919050565b60006060820190506136af6000830186612782565b6136bc6020830185612782565b6136c960408301846126a0565b949350505050565b7f5472616e73666572206661696c65640000000000000000000000000000000000600082015250565b6000613707600f83612a85565b9150613712826136d1565b602082019050919050565b60006020820190508181036000830152613736816136fa565b9050919050565b600060c08201905061375260008301896126a0565b61375f60208301886126a0565b61376c60408301876126a0565b61377960608301866126a0565b61378660808301856126a0565b61379360a0830184612782565b979650505050505050565b7f537570706c696564206461797320697320626967676572207468616e206d617860008201527f696d756d206e756d626572206f66206461797300000000000000000000000000602082015250565b60006137fa603383612a85565b91506138058261379e565b604082019050919050565b60006020820190508181036000830152613829816137ed565b9050919050565b7f54686973206c61756e636870616420686173206265656e20736574746c656400600082015250565b6000613866601f83612a85565b915061387182613830565b602082019050919050565b6000602082019050818103600083015261389581613859565b9050919050565b60006138a78261262a565b91506138b28361262a565b9250828210156138c5576138c461299c565b5b828203905092915050565b7f4d696c6573746f6e65206e6f7420616368696576656420796574210000000000600082015250565b6000613906601b83612a85565b9150613911826138d0565b602082019050919050565b60006020820190508181036000830152613935816138f9565b9050919050565b7f466565206d757374206265206c6172676572207468616e203025000000000000600082015250565b6000613972601a83612a85565b915061397d8261393c565b602082019050919050565b600060208201905081810360008301526139a181613965565b9050919050565b7f466565206d757374206265206c6f776572207468616e20313030250000000000600082015250565b60006139de601b83612a85565b91506139e9826139a8565b602082019050919050565b60006020820190508181036000830152613a0d816139d1565b9050919050565b7f646576656c6f706572732063616e6e6f7420627579207468656972206f776e2060008201527f746f6b656e000000000000000000000000000000000000000000000000000000602082015250565b6000613a70602583612a85565b9150613a7b82613a14565b604082019050919050565b60006020820190508181036000830152613a9f81613a63565b9050919050565b7f686176656e277420737461727420796574000000000000000000000000000000600082015250565b6000613adc601183612a85565b9150613ae782613aa6565b602082019050919050565b60006020820190508181036000830152613b0b81613acf565b9050919050565b7f697420616c726561647920656e64656400000000000000000000000000000000600082015250565b6000613b48601083612a85565b9150613b5382613b12565b602082019050919050565b60006020820190508181036000830152613b7781613b3b565b9050919050565b7f4e6f20746f6b656e73206c656674000000000000000000000000000000000000600082015250565b6000613bb4600e83612a85565b9150613bbf82613b7e565b602082019050919050565b60006020820190508181036000830152613be381613ba7565b9050919050565b7f53656e742066756e6473206e6f7420656e6f75676820746f2062757920746f6b60008201527f656e732100000000000000000000000000000000000000000000000000000000602082015250565b6000613c46602483612a85565b9150613c5182613bea565b604082019050919050565b60006020820190508181036000830152613c7581613c39565b9050919050565b7f4e6f7420656e6f75676820746f6b656e7320746f206275792100000000000000600082015250565b6000613cb2601983612a85565b9150613cbd82613c7c565b602082019050919050565b60006020820190508181036000830152613ce181613ca5565b9050919050565b7f63616e6e6f742073657420746f206e756c6c2061646472657373000000000000600082015250565b6000613d1e601a83612a85565b9150613d2982613ce8565b602082019050919050565b60006020820190508181036000830152613d4d81613d11565b9050919050565b7f4e6f20746f6b656e73206c65667420746f206275792100000000000000000000600082015250565b6000613d8a601683612a85565b9150613d9582613d54565b602082019050919050565b60006020820190508181036000830152613db981613d7d565b9050919050565b7f43616e6e6f742073657420617320300000000000000000000000000000000000600082015250565b6000613df6600f83612a85565b9150613e0182613dc0565b602082019050919050565b60006020820190508181036000830152613e2581613de9565b9050919050565b7f756e61626c6520746f2073656e642066756e647320746f206465762100000000600082015250565b6000613e62601c83612a85565b9150613e6d82613e2c565b602082019050919050565b60006020820190508181036000830152613e9181613e55565b905091905056fea264697066735822122095a112349bea8cf530d2dea9396aae6c0665fc88f403fc42c854b59287fb018764736f6c63430008090033",
  "immutableReferences": {},
  "source": "// SPDX-License-Identifier: MIT\npragma solidity ^0.8.9;\n\nimport \"@openzeppelin/contracts/token/ERC20/ERC20.sol\"; //we use https://docs.openzeppelin.com/contracts/4.x/api/token/erc20#ERC20 to get decimals()\n\ncontract LaunchPad {\n\n    // Admin operation variables\n    bool public isLocked; //lock contract to prevent new launchpad \n    address public owner; //owner of this contract\n    uint public fee = 1; //fee is 1% by default\n\n    //Launchpad variables\n    struct LaunchPadInformation {\n        uint startTimeStamp; //start time of launchpad\n        uint endTimeStamp; //end time of launchpad\n        uint acceptancePercentage; //required percentage for launchpad to valid, eg. 60%\n        uint milestone; //tokens needed accordingly to acceptancePercentage\n        uint originalAmountofTokens; //original amount of tokens, act as a preserve\n        uint totalTokens; //totaltokens of ERC20 token, will decrease per user buy\n        uint pricePerToken; //price per token, eg. 1000 = 0.001 ETH\n        address sender; //developer address, used to send funds or refund\n        address tokenAddress; //ERC20 token address\n        bool paid;//boolean to indicate whether we paid the developer or not\n        uint creditType; //refund amount for users; 0: Unset, 1: ETH, 2: Token\n    }\n    mapping(uint => LaunchPadInformation) public launchpads; //total launchpads in existence\n    uint public totalLaunchpads = 0;\n    mapping(address => uint) public launchedTokens;\n    uint public minNumberofDays = 10;\n    uint public minimumTokens = 1000;\n    uint public maxNumberofDays = 60;\n\n    struct CreditPerLaunchPad {\n        uint credits;\n        address tokenAddress;\n    }\n\n    mapping(address => CreditPerLaunchPad) public userCredits; //user credit to withdraw\n\n\n    //MODIFIERS \n\n    modifier onlyOwner() {\n        //prevents unauthorized access\n        require(msg.sender == owner, \"Only owner can execute\");\n        _;\n    }\n\n    modifier isLock() {\n        //lock contract to prevent new launchpad\n        require(!isLocked, \"Contract is locked by admin\");\n        _;\n    }\n\n    modifier checkWithdrawType(uint _launchpadId) {\n        //dynamic modifier to ensure whether user can get their money/tokens \n        require(launchpads[_launchpadId].creditType != 0, \"refund type not set yet!\");\n        _;\n    }\n\n    //event\n\n    event DepositToken(uint256 _startTime, uint256 _numOfDays, uint _acceptedPercentage, uint _pricePerToken, uint _totalTokens, address _tokenAddress);\n    event changeMaxDays(uint _numOfDays);\n    event changeMinDays(uint _numOfDays);\n    event changeTokens(uint _minimumTokens);\n    event succeedLaunchpad(uint developerProfit);\n\n    //CONSTRUCTOR\n\n    constructor(bool _isLocked) {\n        owner = msg.sender;\n        isLocked = _isLocked;\n    }\n\n    /// DEVELOPER DEPOSIT\n\n    function launchMyToken(uint256 _startTime, uint256 _numOfDays, uint _acceptedPercentage, uint _pricePerToken, uint _totalTokens, address _tokenAddress) public payable isLock {\n\n        // @front-end should handle the conversion from date to Unix timestamp\n        // @front-end need to handle price decimal conversion, eg. 1000 = 0.001 ETH\n        // @front-end need to handle approval https://ethereum.stackexchange.com/a/112191\n\n        //verify time logic\n        if (_startTime < block.timestamp){\n            //default start now unless specified otherwise\n            _startTime = block.timestamp;\n        }\n        require(_numOfDays >= minNumberofDays, \"too short\");\n        require(_numOfDays <= maxNumberofDays, \"Whoops, can't be that long\");\n        uint _endTimeStamp = block.timestamp + (_numOfDays * 1 days);\n        require(_endTimeStamp >= _startTime, \"something is really wrong here\");\n\n        //verify percentage rate\n        require(_acceptedPercentage >= 50, \"Must be over 50% acceptance\");\n        require(_acceptedPercentage <= 100, \"Must be less than 100% acceptance\");\n\n        //verify minimum tokens\n        require(_totalTokens >= minimumTokens, \"Need more tokens to process\");\n\n        //verify fees\n        uint protocolFee = calculateFee(_totalTokens);\n        require(msg.value >= protocolFee, \"Not enough fees paid\");\n\n        //verify _pricePerToken, limit 1 to 10**18, hence we can only accept 18 decimals contract\n        require(_pricePerToken >= 1, \"max 1 ether per token\");\n        require(_pricePerToken <= 1 ether, \"you exceeded minimum _pricePerToken\");\n\n        //verify existing launchpad for specifc token address\n        require(launchedTokens[_tokenAddress] == 0, \"This account has an existing launchpad\");\n\n        //calculate required acceptance tokens\n        uint milestoneRequired = calculateAcceptanceRate(_totalTokens, _acceptedPercentage);\n\n        //increment lauchpad id and update values\n        totalLaunchpads += 1;\n        launchedTokens[_tokenAddress] = totalLaunchpads;\n\n        launchpads[totalLaunchpads] = LaunchPadInformation(_startTime, _endTimeStamp, _acceptedPercentage, milestoneRequired, _totalTokens, _totalTokens, _pricePerToken, msg.sender, _tokenAddress, false, 0);\n\n        // fund contract with developer custom ERC20 token\n        ERC20 customToken = ERC20(_tokenAddress);\n        require(customToken.decimals() == 18, \"We only accept 18 decimals tokens\");\n        uint balanceOfUser = customToken.balanceOf(msg.sender);\n        require(balanceOfUser >= _totalTokens, \"Not enough funds in sender balance!\");\n        require(customToken.allowance(msg.sender, address(this)) >= _totalTokens, \"Insuficient allowance\");\n        require(customToken.transferFrom(msg.sender, address(this), _totalTokens), \"Transfer failed\");\n\n        emit DepositToken(_startTime, _numOfDays, _acceptedPercentage, _pricePerToken, _totalTokens, _tokenAddress);\n    }\n\n    /// USER OPERATIONS\n    function buyLaunchPadToken(uint _launchpadId) public payable isLock {\n        require(msg.sender != launchpads[_launchpadId].sender, \"developers cannot buy their own token\");\n\n        //check launchpad stuff\n        require(_launchpadId <= totalLaunchpads, \"Invalid launchpadId\");\n        require(block.timestamp >= launchpads[_launchpadId].startTimeStamp, \"haven't start yet\");\n        require(block.timestamp <= launchpads[_launchpadId].endTimeStamp, \"it already ended\");\n        require(launchpads[_launchpadId].totalTokens > 0, \"No tokens left\");\n\n        //calculation price stuffs\n        uint launchpadPricePerToken = launchpads[_launchpadId].pricePerToken;\n        uint minimumFunds = 1 ether / launchpadPricePerToken;\n        require(msg.value >= minimumFunds, \"Sent funds not enough to buy tokens!\");\n        uint amountToBuy = msg.value * launchpadPricePerToken;\n        uint tokensToBuy = amountToBuy / (10 ** 18);\n\n        //in case user sent too much funds to buy all tokens\n        require(launchpads[_launchpadId].totalTokens >= tokensToBuy, \"Not enough tokens to buy!\");\n\n        launchpads[_launchpadId].totalTokens = launchpads[_launchpadId].totalTokens - tokensToBuy;\n\n        //increment credit\n        uint oldCredit = userCredits[msg.sender].credits;\n        uint newCredit = oldCredit + tokensToBuy;\n        userCredits[msg.sender] = CreditPerLaunchPad(newCredit, launchpads[_launchpadId].tokenAddress);\n    }\n\n    /// AFTER SALES\n    function settleLaunchPad(uint _launchpadId) public {\n\n        //developers and user run this to take funds\n        require(_launchpadId <= totalLaunchpads, \"Invalid launchpadId\");\n        require(launchpads[_launchpadId].paid == false, \"This launchpad has been settled\");\n\n        //calculate acceptance percentage\n        bool mileStoneAchieved;\n        uint tokensBought = launchpads[_launchpadId].originalAmountofTokens - launchpads[_launchpadId].totalTokens;\n        if (tokensBought >= launchpads[_launchpadId].milestone) {\n            mileStoneAchieved = true;\n        } else {\n            mileStoneAchieved = false;\n        }\n\n        //check launchpad end\n        bool isLaunchPadEnd;\n        if (block.timestamp >= launchpads[_launchpadId].endTimeStamp) {\n            isLaunchPadEnd = true;\n        } else {\n            isLaunchPadEnd = false;\n        }\n\n        //pre launchpad ending time\n        if (!isLaunchPadEnd) {\n            //code would enter this block if launchpad is too popular, ie. tokens are all bought before ending time\n            //user can call this function to start withdraw tokens before ending time, under condition that milestone is achieved\n\n            if (mileStoneAchieved) {\n                //if the tokens are so popular that everyone bought it before ending time, we will close it\n                if (launchpads[_launchpadId].totalTokens == 0) {\n                    successLaunchPad(_launchpadId);\n\n                } else {\n                    //there are still tokens left, so we allow user withdraw first because milestone is achieved\n                    launchpads[_launchpadId].creditType = 2;\n                }\n\n            } else {\n                //if milestone is not achieved yet\n                revert(\"Milestone not achieved yet!\");\n            }\n\n        } else if (isLaunchPadEnd) {\n            //post launchpad ending time\n            //only two possibilites, accepted or not\n\n            if (mileStoneAchieved) {\n                //if milestone achieved\n                successLaunchPad(_launchpadId);\n\n            } else if (!mileStoneAchieved) {\n                //if no one buy their token :(\n                failLaunchPad(_launchpadId);\n            }\n        }\n\n    }\n\n    function successLaunchPad(uint _launchpadId) internal {\n        //set funds paid to true\n        launchpads[_launchpadId].paid = true;\n\n        //allow user withdraw token\n        launchpads[_launchpadId].creditType = 2;\n\n        //calculate ETH amount to be sent\n        uint tokenInEth = 1 ether / launchpads[_launchpadId].pricePerToken;\n        uint amount = launchpads[_launchpadId].originalAmountofTokens * tokenInEth;\n\n        //send ETH to dev\n        (bool sent, ) = launchpads[_launchpadId].sender.call{value: amount}(\"\");\n        require(sent, \"Failed to send Ether\");\n\n        emit succeedLaunchpad(amount);\n    }\n\n    function failLaunchPad(uint _launchpadId) internal {\n        //set funds paid to true\n        launchpads[_launchpadId].paid = true;\n\n        //allow user withdraw eth\n        launchpads[_launchpadId].creditType = 1;\n\n        //calculate token to be sent\n        ERC20 customToken = ERC20(launchpads[_launchpadId].tokenAddress);\n        uint amount = launchpads[_launchpadId].originalAmountofTokens;\n\n        //send token to dev\n        require(customToken.transfer(launchpads[_launchpadId].sender, amount), \"unable to send funds to dev!\");\n    }\n\n    function withdrawCredits(uint _launchPadId) public checkWithdrawType(_launchPadId) {\n        //NOTE: all verifications are done in settleLaunchPad, hence a modifier to prevent bad stuff happen\n        // get launchpads address from struct\n        uint amount = userCredits[msg.sender].credits;\n\n        require(_launchPadId <= totalLaunchpads, \"Invalid launchpadId\");\n        require(amount != 0, \"nothing to withdraw\");\n        require(address(this).balance >= amount, \"not enough balance to withdraw\");\n\n        userCredits[msg.sender].credits = 0;\n\n        if (launchpads[_launchPadId].creditType == 1){\n            //user withdraw ETH\n            (bool sent, ) = msg.sender.call {value: amount}(\"\");\n            require(sent, \"Failed to send Ether\");\n        } else if ((launchpads[_launchPadId].creditType == 2)){\n            //user withdraw token\n            ERC20 customToken = ERC20(launchpads[_launchPadId].tokenAddress);\n            require(customToken.transfer(msg.sender, amount), \"unable to send money\");\n        }   \n    }\n    \n    //ADMIN OPERATIONS\n    function changeMaxNumOfDays(uint _numOfDays) public onlyOwner {\n        require(_numOfDays >= minNumberofDays, \"Supplied days is smaller than minimum number of days\");\n        maxNumberofDays = _numOfDays;\n\n        emit changeMaxDays(maxNumberofDays);\n    }\n    \n    function changeMinNumOfDays(uint _numOfDays) public onlyOwner {\n        require(_numOfDays <= maxNumberofDays, \"Supplied days is bigger than maximum number of days\");\n        minNumberofDays = _numOfDays;\n\n        emit changeMinDays(minNumberofDays);\n    }\n    \n    function changeMinimumTokens(uint _minimumTokens) public onlyOwner {\n        require(_minimumTokens > 0, \"Cannot set as 0\");\n        minimumTokens = _minimumTokens;\n        \n        emit changeTokens(minimumTokens);\n    }\n\n    function lockContract(bool _isLocked) public onlyOwner {\n        isLocked = _isLocked;\n    }\n\n    function changeFee(uint _fee) public onlyOwner {\n        //check fee rate range from 0%-100%\n        require(_fee > 0, \"Fee must be larger than 0%\");\n        require(_fee < 100, \"Fee must be lower than 100%\");\n        fee = _fee;\n    }\n\n    function changeOwner(address _newOwner) public onlyOwner {\n        require(_newOwner != address(0), \"cannot set to null address\");\n        owner = _newOwner;\n    }\n\n    //add admin remove launchpads TODO\n\n    function retrievePriceForToken(uint _launchPadId) public view returns (uint) {\n        // return ETH price for one token \n        // get price per token for supplied _launchPadId\n        return 1 ether / launchpads[_launchPadId].pricePerToken;\n    }\n\n    // get max buy value for available tokens\n    function getMaxBuyValueForToken(uint _launchPadId) public view returns (uint) {\n        uint tokensLeft = launchpads[_launchPadId].totalTokens;\n        require(tokensLeft != 0, \"No tokens left to buy!\");\n        uint pricePerToken = 1 ether / launchpads[_launchPadId].pricePerToken;\n        return tokensLeft * pricePerToken;\n    }\n\n    /// Helper functions\n    function calculateFee(uint _totalTokens) public view returns(uint) {\n        uint totalFee = (_totalTokens * fee) / 100; //multiply before divide\n        return totalFee * 10 ** 16; // refer to README for calculation\n    }\n\n    function calculateAcceptanceRate(uint _totalTokens, uint _acceptedRate) public pure returns(uint) {\n        uint milestone = (_totalTokens * _acceptedRate) / 100;\n        return milestone;\n    }\n\n     function estimateProtocolFee(uint _totalTokens) public view returns (uint) {\n        // Formula: totalTokens * protocolFeePercentage * ethUnit\n        uint _protocolFeePercentage = fee; // 1%\n        uint _ethUnit = 10 ** 16; // 0.001 ETH\n        uint feePercentage = (_totalTokens * _protocolFeePercentage) / 100; \n        uint feeToPaid = feePercentage * _ethUnit;\n        return feeToPaid;\n    }\n\n}\n",
  "sourcePath": "/home/miao/Downloads/solidity/blockchain-assignment/contracts/LaunchPad.sol",
  "compiler": {
    "name": "solc",
    "version": "0.8.9+commit.e5eed63a.Emscripten.clang"
  },
  "schemaVersion": "3.3.2",
  "updatedAt": "2021-12-07T03:28:41.394Z",
  "devdoc": {
    "kind": "dev",
    "methods": {},
    "version": 1
  },
  "userdoc": {
    "kind": "user",
    "methods": {
      "buyLaunchPadToken(uint256)": {
        "notice": "USER OPERATIONS"
      },
      "calculateFee(uint256)": {
        "notice": "Helper functions"
      },
      "launchMyToken(uint256,uint256,uint256,uint256,uint256,address)": {
        "notice": "DEVELOPER DEPOSIT"
      },
      "settleLaunchPad(uint256)": {
        "notice": "AFTER SALES"
      }
    },
    "version": 1
  }
}